:020000040800F2
:10000000D006002029020008F31400080314000899
:10001000F11400081F040008571800080000000031
:100020000000000000000000000000009D15000816
:100030002104000800000000F51400089F150008C6
:10004000430200084302000843020008430200087C
:10005000430200084302000843020008430200086C
:10006000430200084302000843020008430200085C
:10007000430200084302000843020008430200084C
:10008000430200084302000843020008430200083C
:10009000430200084302000843020008430200082C
:1000A000430200084302000843020008430200081C
:1000B00049160008430200084302000843020008F2
:1000C00043020008430200084302000843020008FC
:1000D00043020008430200084302000843020008EC
:1000E00043020008430200084302000843020008DC
:1000F00043020008430200084302000843020008CC
:1001000043020008430200084302000843020008BB
:1001100043020008430200084302000843020008AB
:10012000430200084302000843020008430200089B
:100130004302000800000000000000004302000825
:10014000430200084302000843020008430200087B
:10015000430200084302000843020008430200086B
:10016000430200084302000843020008430200085B
:1001700043020008430200080000000000000000E5
:10018000430200084302000800F002F800F03CF8C7
:100190000AA090E8000C82448344AAF10107DA45E2
:1001A00001D100F031F8AFF2090EBAE80F0013F0F8
:1001B000010F18BFFB1A43F0010318479419000000
:1001C000B4190000103A24BF78C878C1FAD8520791
:1001D00024BF30C830C144BF04680C6070470000C1
:1001E0000023002400250026103A28BF78C1FBD840
:1001F000520728BF30C148BF0B6070471FB501F0E0
:1002000095FC1FBD10B510BD00F0CFF81146FFF7EB
:10021000F5FF01F039FB00F0EDF803B4FFF7F2FF52
:1002200003BC00F0F5F80000094880470948004782
:10023000FEE7FEE7FEE7FEE7FEE7FEE7FEE7FEE796
:10024000FEE7FEE704480549054A064B70470000F3
:100250003916000889010008D0000020D0060020CF
:10026000D0020020D002002053EA020C00F0698086
:100270002DE9F04B4FF00006002B1FBFB3FA83F5BA
:1002800003FA05F424FA05F65E4012BF1643B2FAEB
:1002900082F502FA05F4C5F120051EBF22FA05FC1D
:1002A00044EA0C04203556EA044C4FEA144418BFC3
:1002B000641C4FF000084FF00009904271EB030CF2
:1002C00039D3002919BFB1FA81F701FA07F6B0FA5C
:1002D00080F700FA07F6C7F120071EBF20FA07FCD7
:1002E00046EA0C062037B6FBF4FCA7EB0507103FE7
:1002F00007F01F0BCBF120060CFA0BFB2CFA06F6CD
:1003000044BFB3460026202FA4BF5E464FF0000B2B
:100310005BEA060C08BF4FF0010B19EB0B09ABFBB6
:10032000027C48EB0608C01B06FB02CC0BFB03CC8F
:1003300071EB0C01C1E70B46024641464846BDE859
:10034000F08B13B54FF000004FF00001AFF30080C9
:10035000BDE81C4070474FF0000200B513469446BC
:100360009646203922BFA0E80C50A0E80C50B1F10D
:100370002001BFF4F7AF090728BFA0E80C5048BF21
:100380000CC05DF804EB890028BF40F8042B08BFBF
:10039000704748BF20F8022B11F0804F18BF00F8BB
:1003A000012B7047704770477047754600F02CF876
:1003B000AE4605006946534620F00700854618B052
:1003C00020B5FFF73FFFBDE820404FF000064FF09B
:1003D00000074FF000084FF0000B21F00701AC467A
:1003E000ACE8C009ACE8C009ACE8C009ACE8C00999
:1003F0008D46704710B50446AFF300802046BDE837
:100400001040FFF70ABF000000487047700000204E
:1004100001491820ABBEFEE7260002007047FEE748
:10042000704772B6FEE7000070B5044600F00CF9A4
:100430000546601C02D004480078044400F004F92A
:10044000401BA042FAD370BD000000202DE9F84FF8
:10045000DFF8BCA10022012503264FF00F090AF1A5
:10046000040BAAF1040E00BF0B6805FA02F4234046
:10047000A34270D10F7907F00307012F01D0022F9B
:1004800016D187684FEA420806FA08FC27EA0C07EB
:10049000D1F80CC00CFA08FC4CEA070CC0F808C0F4
:1004A0004768A7430C79C4F3001494403C4344606C
:1004B0000C79E443A4070AD0C4684FEA420C06FA58
:1004C0000CF7BC438F6807FA0CF72743C7600C7919
:1004D00004F00304022C12D1D40800EB840CDCF8E5
:1004E00020405707FF0E09FA07F824EA0804D1F85C
:1004F000108008FA07F848EA0408CCF8208004685D
:100500004FEA420C06FA0CF7BC430F7907F00307D9
:1005100007FA0CF7274307604C6814F4403F70D08B
:100520003C4C276847F480472760246822F0030783
:1005300004F480440094384C07EB040CDCF80848C1
:1005400097074FEA177809FA08F7BC43334FB842C8
:1005500002D1002724E054E0314FB84201D10127F5
:100560001EE0304FB84201D1022719E02E4FB842A9
:1005700001D1032714E02D4FB84201D104270FE029
:100580002B4FB84201D105270AE02A4FB84201D1CA
:10059000062705E0284FB84201D1072700E00827C9
:1005A00007FA08F72743CCF80878DAF800405746EE
:1005B000D1F804C09C435FEACC2C00D51C433C60BE
:1005C000DBF800405F46D1F804C09C435FEA8C2C06
:1005D00000D51C433C60DEF800407746D1F804C0EB
:1005E0009C435FEA8C3C00D51C433C60084F083FAD
:1005F0003C68D1F804C09C435FEACC3C00D51C4366
:100600003C60521C102AFFF42FAFBDE8F88F0000A9
:10061000083C0140443802400030014000000240E4
:100620000004024000080240000C0240001002409A
:100630000014024000180240001C02400AB181610F
:1006400070470904FBE7000001488068704700001C
:1006500000000020024881680278114481607047E0
:10066000000000200B4810B5016841F400710160E2
:10067000016841F480610160016841F480710160AA
:10068000032000F06FF80F2000F006F800F024F8C7
:10069000002010BD003C024070B50D4D04464FF4E3
:1006A0007A712878B1FBF0F00A490968B1FBF0F0E3
:1006B00000F0ECFA48B9102C07D200222146501E57
:1006C00000F030F800206C6070BD012070BD0000AB
:1006D000000000200C0000200A4808B5016841F421
:1006E00080410160006800F4804000900548001FD0
:1006F000016841F080510160006800F08050009076
:1007000008BD000044380240002809DB00F01F0249
:10071000012191404009800000F1E020C0F8001163
:1007200070470000F0B40E4B1B680C46C3F3022365
:10073000C3F10705042D00D90425191D072901D28D
:10074000002300E0DB1E012606FA05F1491E2140C8
:1007500099409E40761E16403143F0BC01F07CB8B3
:100760000CED00E0064900F0070208684FF6FF03B1
:10077000184040EA0220034A104308607047000016
:100780000CED00E00000FA052DE9F0470E460500EB
:1007900065D0DFF81481D8F80000F7B200F0070048
:1007A000B04207D288F80070D8F8000000F00700C7
:1007B000B04254D128683D4C810712D5400703D57B
:1007C000206840F4E05020602878000703D52068B6
:1007D00040F4604020602068A96820F0F0000843E1
:1007E00020602878C0072DD0304968680839012872
:1007F00012D0022813D0032811D0096889070029D4
:100800002DDA216821F0030101432160FFF71CFF6D
:10081000814641F2883A0EE009688903EFE70968EA
:100820008901ECE7FFF710FFA0EB0901514502D960
:100830000320BDE8F0872068696800F00C00B0EB89
:10084000810FEFD1D8F80010404601F00701B14206
:1008500007D90770006800F00700B04201D00120FE
:10086000E7E72878400705D52068E96820F4E050DC
:10087000084320602878000706D52068296920F4FD
:10088000604040EAC100206000F018F82168084A82
:10089000C1F30311515CC84006490860064800686E
:1008A000FFF7FAFE0020C4E7003C0240083802408F
:1008B000401B00080C00002004000020154810B563
:1008C000006810F00C02144813D01449042A0FD009
:1008D000082A0ED10F4C241F2268236802F03F0221
:1008E0005B0207D52068C0F38810A0FB010106E079
:1008F000084610BD2168C1F38811A1FB0001002347
:10090000FFF7B2FC2168C1F30141491C4900B0FB6B
:10091000F1F010BD083802400024F40040787D0159
:100920002DE9F84F04006ED02078DFF84C93C00713
:10093000A9F104054AD009F104000168C1F381015D
:10094000012908D00068C0F3810002280AD1D9F833
:100950000000400206D52868800337D5606800286B
:10096000E1D033E06068B0F5803F10D0B0F5A02F43
:10097000286810D020F480302860286820F4802077
:1009800028606068A8B1FFF75FFE06460DE02868A2
:1009900040F48030F4E740F480202860F7E700BF9F
:1009A000FFF752FE801B642873D828688003F7D5B0
:1009B0000CE0FFF749FE064605E000BFFFF744FEE6
:1009C000801B6428F0D828688003F7D42078DFF8EB
:1009D000AC8280074FF0000A3ED5A748001D016891
:1009E00011F00C0F08D00068C0F3810002280BD171
:1009F000D9F80000400207D42868800716D5E068BF
:100A0000012800D112E033E1E068B8B10120C8F854
:100A10000000FFF719FE064605E000BFFFF714FED1
:100A2000801B0228C0D828688007F7D5286821696C
:100A300020F0F80040EAC10028600DE0C8F800A0EE
:100A4000FFF702FE064604E0FFF7FEFD801B0228CA
:100A50001FD828688007F7D42078000722D5864F52
:100A600087486169703771B101210160FFF7ECFDC2
:100A7000064604E0FFF7E8FD801B022809D8386825
:100A80008007F7D50EE0C0F800A0FFF7DDFD0646B1
:100A900005E082E0FFF7D8FD801B02287DD838688A
:100AA0008007F7D42078400768D5DFF8CCB100275D
:100AB0000BF13C0BDBF80000C0000BD4DBF800109E
:100AC00041F08051CBF80010DBF80000012700F066
:100AD000805000906B4E3068C00510D4306840F4F0
:100AE00080703060FFF7B0FD009005E0FFF7ACFDCF
:100AF0000099401A022850D83068C005F6D55E4EDD
:100B0000A0686C3601280FD00528306810D020F07E
:100B100001003060306820F004003060A068B8B197
:100B2000FFF792FD00900FE0306840F00100F4E71D
:100B300040F004003060F7E7FFF786FD0099411AA6
:100B400041F28830814266D830688007F4D50EE0E3
:100B5000FFF77AFD009007E0FFF776FD0099411A54
:100B600041F28830814256D830688007F4D42FB1E2
:100B7000DBF8001021F08051CBF80010A069C8B359
:100B80003D49091D0968C1F3810102294AD00228A3
:100B9000504607D0C8F8600000E03CE0FFF754FD85
:100BA00004463BE04746C8F86000FFF74DFD0646A7
:100BB00005E000BFFFF748FD801B02282BD82868FE
:100BC0008001F7D4D4E907010843A16A2E4A4908F5
:100BD00002EB0141626A41EA8211084394F82C1049
:100BE00040EA0161C9F8001001203866FFF72CFDCA
:100BF000044606E03EE000BFFFF726FD001B02288A
:100C000009D828688001F7D534E000BFFFF71CFD44
:100C1000001B022802D90320BDE8F88F2868800154
:100C2000F4D427E00128F7D0D9F80000E26900F4F5
:100C3000800191421CD1226A00F03F01914217D1FC
:100C400047F6C071626A0140B1EB821F10D1A26AFF
:100C50004FF0FF3300F4403103EB5202B1EB024F8F
:100C600006D194F82C1000F07060B0EB016F01D049
:100C70000120D1E70020CFE70438024000004742BE
:100C8000800E4742007000400000FFFF10B5401E7C
:100C9000B0F1807F01D3012010BD4FF0E0246061EE
:100CA0000F21601700F0D8FD0020A061072020610F
:100CB000002010BD7047704770B590F83C20012AA5
:100CC00032D0012480F83C40022280F83D200368A5
:100CD0005A689D6822F070060A6832435A60134BC6
:100CE00002689A4214D0B2F1804F11D0104B9A4250
:100CF0000ED0104B9A420BD00F4B9A4208D00F4B9C
:100D00009A4205D00E4B9A4202D00E4B9A4204D121
:100D1000496825F080031943916080F83D40002127
:100D200080F83C10084670BD022070BD00000140F4
:100D30000004004000080040000C00400004014096
:100D4000004001400018004010B5040003D094F8A2
:100D50003D0010B107E0012010BD002084F83C00E8
:100D6000204600F01FF8022084F83D00211D206875
:100D700000F070FC012084F8460084F83E0084F8FE
:100D80003F0084F8400084F8410084F8420084F871
:100D9000430084F8440084F8450084F83D000020B6
:100DA00010BD000010B586B0044614216846FFF758
:100DB000D2FA2068B0F1804F26D114480021026891
:100DC00042F001020260006800F0010005900F4847
:100DD0001038026842F0010202600068022200F04E
:100DE0000100059001200090CDE90121CDE903101B
:100DF00069460748FFF72AFB002211461C20FFF72F
:100E000091FC1C20FFF780FC06B010BD403802406A
:100E10000000024070B5044690F83C00002501280F
:100E200017D0012684F83C60022084F83D00206839
:100E3000826822F0770222F47F428260086850289C
:100E400038D00DDC20284FD005DC90B3102811D10C
:100E50004AE0022070BD302846D040280AD13BE04D
:100E600060282FD070280DD0B0F5805F03D0B0F58A
:100E7000005F12D0012584F83D60002084F83C001A
:100E8000284670BDCB68D1E90121206800F053FCF1
:100E90002068816841F0770109E0CB68D1E9012140
:100EA000206800F048FC2068816841F4804181603E
:100EB000E1E719E0CA684968206800F04EFC50215B
:100EC000206806E0CA684968206800F097FC602145
:100ED000206800F03AFCCEE7CA684968206800F054
:100EE0003CFC40212068F4E7226801461046F0E708
:100EF00070B50068B0F1804F12D1124C124D2078BD
:100F000001280ED002280BD10021104800F063FA0E
:100F1000686000210D4800F05FF92078401C2070C7
:100F200070BD0021094800F056FA286007480168A2
:100F30000A6A22F00A020A620068016A41F00201AC
:100F40000162EAE710000020640000201C0000207D
:100F50002DE9F041054690F83C0000260C4601289A
:100F600010D0012085F83C0072B1042A1CD0082A58
:100F70002CD00C2A50D00126002085F83C003046A9
:100F8000BDE8F0810220FBE7D4E90012E36828689D
:100F900000F0F4FB2868816921F00C018161286868
:100FA0008169A26811430FE0D4E90012E368286860
:100FB00000F036FC2868816921F44061816128686D
:100FC0008169A26841EA02218161D5E72868D4E9F4
:100FD000002C277B016A21F480710162C169036AD8
:100FE00021F0030141EA0C0121F0F00C39074FF424
:100FF00020674CEA116123F4206307EA02221A43B6
:10100000C16102622868C16921F00C01C1612868D0
:10101000C169A268114328E02868D4E90027E16883
:10102000036A23F480530362D0F81CC0036A2CF4D3
:10103000407C4CEA07274FF6FF7C27F470470CEA08
:10104000013139434FF4204723F4204307EA0232A9
:101050001A43C16102622868C16921F44061C1611B
:101060002868C169A26841EA0221C16184E710B51C
:10107000040003D094F83D0010B107E0012010BD3A
:10108000002084F83C00204600F01EF8022084F87E
:101090003D00211D206800F0DDFA012084F84600A3
:1010A00084F83E0084F83F0084F8400084F8410052
:1010B00084F8420084F8430084F8440084F8450032
:1010C00084F83D00002010BD7047000030B5044694
:1010D000002551B104290DD0082910D094F8410001
:1010E00094F84520012811D10EE094F83E0094F8C0
:1010F0004220F7E794F83F0094F84320F2E794F891
:10110000400094F84420EDE7012A01D0012030BDD1
:10111000022059B1042912D0082919D084F84100BD
:1011200084F845000C2944D0012540E084F83E00B5
:1011300084F842002068C26842F0020210E084F89D
:101140003F0084F843002068C26842F0040207E0D0
:1011500084F8400084F844002068C26842F0080225
:10116000C2600122206800F0D9FA14492068884240
:1011700014D0B0F1804F11D0114988420ED01149DE
:1011800088420BD01049884208D01049884205D0C7
:101190000F49884202D00F49884204D1816801F08A
:1011A0000701062903D0016841F0010101602846CA
:1011B00030BD2068C26842F01002D1E70000014053
:1011C0000004004000080040000C00400004014002
:1011D000004001400018004070B50D0004464FF07B
:1011E000000607D0042D0AD0082D0DD00C2D10D0EC
:1011F00001262FE02068C16821F002010DE020687F
:10120000C16821F0040108E02068C16821F00801EC
:1012100003E02068C16821F01001C1600022294666
:10122000206800F07BFA2068016A41F21112114235
:1012300007D1016A9210114203D1016821F0010126
:101240000160012045B1042D09D0082D0AD004F811
:10125000410F2071304670BD04F83E0FF9E704F8E5
:101260003F0FF6E704F8400FF3E770B50446006857
:1012700001694FF00005C943890715D4C168C94306
:10128000890711D4E91E0161012020772068806957
:101290008007204602D0FFF72BFE04E000F098F80C
:1012A000204600F096F8257720680169C943490770
:1012B00017D4C168C943490713D46FF00401016111
:1012C000022020772068806910F4407F204602D0F9
:1012D000FFF70EFE04E000F07BF8204600F079F8FE
:1012E000257720680169C943090716D4C168C94335
:1012F000090712D46FF008010161042020772068EB
:10130000C0698007204602D0FFF7F2FD04E000F03C
:101310005FF8204600F05DF8257720680169C94331
:10132000C90617D4C168C943C90613D46FF01001A8
:101330000161082020772068C06910F4407F2046B2
:1013400002D0FFF7D5FD04E000F042F8204600F09F
:1013500040F8257720680169C943C90708D1C168E9
:10136000C943C90704D1891E0161204600F032F843
:1013700020680169C943090609D4C168C94309063F
:1013800005D46FF0800101612046FFF793FC2068CF
:101390000169C943490609D4C168C943490605D44E
:1013A0006FF040010161204600F02AF820680169D1
:1013B000C94389060BD4C168C943890607D46FF0B5
:1013C000200101612046BDE87040FFF774BC70BD8C
:1013D0007047704770470246002041B1042909D088
:1013E00008290AD00C2901D11068006C70471068D8
:1013F000406B70471068806B70471068C06B704717
:101400007047FEE710B586B014216846FEF7A3FFCB
:101410001148016841F080010160016801F080011C
:101420000591016841F00101016000680B4C00F07A
:1014300001000590002202212046FFF7FFF802215B
:101440000122CDE90012CDE9022169462046FEF7CE
:10145000FDFF06B010BD0000303802400000024021
:1014600010B58AB00024214804940594069407948A
:10147000089409940094019402944FF080410394DD
:101480000160A721C0E90114611EC0E90314846151
:10149000FFF75AFC08B1FEF7C4FF4FF480500490E8
:1014A00004A91248FFF7B6FC08B1FEF7BAFF0F48CF
:1014B000FFF7DDFD08B1FEF7B4FF089408A90B485B
:1014C0000994FFF7F9FB08B1FEF7ABFF0120CDE966
:1014D000004002940022694604480394FFF738FD57
:1014E000002801D0FEF79DFF0AB010BD1C000020AF
:1014F000FEE7FEE77047000070B5204C2078E0B1B1
:10150000032819D11E4803C8081AA06000F0FDF98D
:101510009FED1C1B53EC112B00F00AFA9FED1B1BD7
:1015200053EC112B00F004FA00F0BEF960600020CB
:101530004FF080412070486270BD164D012202219B
:101540002846FFF77BF81E2000F096F900220221C2
:101550002846FFF773F82078401C20700E48016879
:101560000A6A22F00A020A620068016A0162BDE8A2
:10157000704000210848FFF7A9BD000010000020BE
:10158000640000209CC420B07268A13F00000000ED
:101590000000E03F000002401C0000207047FFF701
:1015A00059B8000030B593B030216846FEF7D3FE3D
:1015B00014210CA8FEF7CFFE1D480025016841F05C
:1015C00080510160006800F0805011901948016856
:1015D00041F4804101600068022400F480401190D1
:1015E0000120039010200490009406940820CDE977
:1015F0000750A820CDE9090404200B906846FFF7A6
:101600008FF908B172B6FEE70CA90F2081E831000E
:101610004FF4A0500F904FF48050109005210CA86B
:10162000FFF7B2F8002801D072B6FEE713B030BD64
:1016300040380240007000400248016841F47001E7
:101640000160704788ED00E00148FFF70EBE000022
:101650001C000020F0B50268254C264D264E274F71
:10166000274B4FF0804CA04209D0604507D0A842DC
:1016700005D0B04203D0B84201D0984204D122F044
:10168000700E4A6842EA0E02A0421BD0604519D093
:10169000A84217D0B04215D0B84213D0984211D00A
:1016A000184DA8420ED0184DA8420BD0174DA84295
:1016B00008D0174DA84205D0164DA84202D0164DAD
:1016C000A84203D122F44075CA682A434D6922F02A
:1016D00080022A4302608A68C2620A688262A0426B
:1016E00001D0984201D10969016301214161F0BD36
:1016F000000001400004004000080040000C0040D1
:101700000004014000400140004401400048014005
:1017100000180040001C00400020004010B501F0FF
:101720001F030121046A99408C430462016A9A40B4
:101730001143016210BD10B5846842EA032224F40B
:101740007F440A432243826010BD826822F0700207
:101750000A4342F007018160704710B5036A046ACA
:1017600024F001040462846924F0F00444EA0214C1
:1017700023F00A020A438461026210BD70B5046A54
:1017800024F0010404628469056A154EB04214D045
:10179000B0F1804F11D0134EB0420ED0124EB04275
:1017A0000BD0124EB04208D0114EB04205D0114EAF
:1017B000B04202D0104EB04203D124F003041443CF
:1017C00001E044F001041A0724F0F00444EA126234
:1017D00025F00A0301F00A0119438261016270BD1C
:1017E000000001400004004000080040000C0040E0
:1017F00000040140004001400018004010B5036A99
:1018000023F0100303628369046A23F4704343EAFC
:10181000023224F0A00343EA01118261016210BD8B
:1018200030B5046A24F0100404628469056A24F463
:10183000407444EA022222F470444FF6FF7202EA36
:1018400003322243A02425F0A00304EA0111194326
:101850008261016230BDFEE70907090E002804DB42
:1018600000F1E02080F80014704700F00F0000F154
:10187000E02080F8141D7047002102E000BF491CE1
:1018800089B28142FAD37047FEF7ECFEFFF78AFE79
:10189000FFF7B8FDFFF7E4FD40F2DC54FFF72CFE44
:1018A0002046FEF7C1FDF9E721F00042A2F16052A7
:1018B000B2F5801F01F0004328BFD2F17F6C0BD935
:1018C0005FEA001C43EAC20242EB507018BF704747
:1018D00028BF20F001007047B2F5801FBCBF18463A
:1018E00070474FEA410C1CF5001F02D2084600F079
:1018F00022B970B500F0C6F800000089FFF7F6BF06
:101900004FF00040A0F580007047B0FA80F310FA65
:1019100003F10AD0C3F11D0303F580634FEA415080
:101920004FEA035202EBD12170474FF0000070479D
:10193000DFF848C170B51CEA111E1EBF1CEA131562
:101940009EEA0C0F95EA0C0F00F06F8081EA030409
:1019500023EA4C134EEAD47E21EA4C1141F4801163
:1019600043F48013AE44A1FB024CA0FB0365AEF12F
:101970007F7E361955EB0C05A1FB034C4CF100039F
:10198000A0FB021C16EB0C06654153F10003094253
:1019900018BF46F0010613F4007F0BD14FEA033164
:1019A0004FEA0530340341EA155140EA16506FF012
:1019B00003020AE04FEAC3214FEAC520F40241EADC
:1019C000555140EA56506FF0020202EB2E4201EBF5
:1019D000025585EACE710AD05FEA440C18BF24F0A4
:1019E000004450F1000041F1000120EAD47040F2BF
:1019F000FE7C624500D270BDA84214BF4FF0804407
:101A00004FF04044002E08BF0024BEF1806FA8BFF5
:101A1000A1F1C041BDE8704080F282804FF000002B
:101A200001F1C04101F0004170479EEA0C0F0CEA41
:101A3000131518BF95EA0C0F06D04FF0000081EA8D
:101A4000030E0EF0004170BD00F01CF88900013E4D
:101A500000F007B800F009B84FEA430C5FEA5C5C9D
:101A600008D081EA030100F05BB84FEA410C5FEA5D
:101A70005C5CF6D14FF00000014970470000FF07A1
:101A80000000F87F0EF1020E2EF0030E5EF8046BDC
:101A9000364205D4012A43EB030515F5001F12D881
:101AA000012841EB010C1CF5001F0CD80ED14FEAA8
:101AB000D17C15F5001F0CEB4C0C0CF1020C08BF8F
:101AC0004CEBD37C04E04FF0080C01E04FEAD37CF0
:101AD0000CEB4C0526FA05F606F00706B6F1040CE9
:101AE00006D20EEB860CBDE870404CF0010C60474E
:101AF000DFE80CF0090B02024FF000414FF000004C
:101B0000A1F5002170BD19461046012851EB0104D2
:101B100018BFD4F5001484BF002001F0004170BD4F
:101B20000808A0F500114FEA310170474FF04070EE
:101B3000E1EE100A7047FF2141EAD050C00570471E
:101B4000000000000000000001020304060708096D
:101B5000701B0008000000201C000000C4010008E9
:101B60008C1B00081C000020B4060000E0010008E7
:101B70000100000010000000000000000024F4003C
:0C1B800000000000000000000000000059
:040000050800018965
:00000001FF
