:020000040800F2
:10000000F00B002069020008D70D0008D50C00088D
:10001000D50D00085F040008091200080000000068
:100020000000000000000000000000005D1100085A
:1000300061040008000000005B1100085F11000867
:10004000830200088302000883020008830200087C
:10005000830200088302000883020008830200086C
:10006000830200088302000883020008830200085C
:10007000830200088302000883020008830200084C
:10008000830200088302000883020008830200083C
:10009000830200088302000883020008830200082C
:1000A000830200088302000883020008830200081C
:1000B000830200088302000883020008830200080C
:1000C00083020008830200088302000883020008FC
:1000D00083020008830200088302000883020008EC
:1000E00083020008830200088302000883020008DC
:1000F00083020008830200088302000883020008CC
:1001000083020008830200088302000883020008BB
:1001100083020008830200088302000883020008AB
:10012000830200088302000883020008830200089B
:1001300083020008000000000000000083020008A5
:10014000830200088302000883020008830200087B
:10015000830200088302000883020008830200086B
:10016000830200088302000883020008830200085B
:100170008302000883020008000000000000000065
:10018000830200088302000800F002F800F05CF827
:100190000AA090E8000C82448344AAF10107DA45E2
:1001A00001D100F051F8AFF2090EBAE80F0013F0D8
:1001B000010F18BFFB1A43F001031847901A000003
:1001C000B01A00000A444FF0000C10F8013B13F085
:1001D000070408BF10F8014B1D1108BF10F8015BA0
:1001E000641E05D010F8016B641E01F8016BF9D193
:1001F00013F0080F1EBF10F8014BAD1C0C1B09D1EA
:100200006D1E58BF01F801CBFAD505E014F8016B5B
:1002100001F8016B6D1EF9D59142D6D370470000ED
:100220000023002400250026103A28BF78C1FBD8FF
:10023000520728BF30C148BF0B6070471FB501F09F
:10024000EBF81FBD10B510BD00F0D4F81146FFF754
:10025000F5FF01F05FF800F0F2F803B4FFF7F2FFEA
:1002600003BC00F0F5F80000094880470948004742
:10027000FEE7FEE7FEE7FEE7FEE7FEE7FEE7FEE756
:10028000FEE7FEE704480549054A064B70470000B3
:10029000F911000889010008F0050020F00B00208A
:1002A000F0070020F007002053EA020C00F06980FC
:1002B0002DE9F04B4FF00006002B1FBFB3FA83F57A
:1002C00003FA05F424FA05F65E4012BF1643B2FAAB
:1002D00082F502FA05F4C5F120051EBF22FA05FCDD
:1002E00044EA0C04203556EA044C4FEA144418BF83
:1002F000641C4FF000084FF00009904271EB030CB2
:1003000039D3002919BFB1FA81F701FA07F6B0FA1B
:1003100080F700FA07F6C7F120071EBF20FA07FC96
:1003200046EA0C062037B6FBF4FCA7EB0507103FA6
:1003300007F01F0BCBF120060CFA0BFB2CFA06F68C
:1003400044BFB3460026202FA4BF5E464FF0000BEB
:100350005BEA060C08BF4FF0010B19EB0B09ABFB76
:10036000027C48EB0608C01B06FB02CC0BFB03CC4F
:1003700071EB0C01C1E70B46024641464846BDE819
:10038000F08B13B54FF000004FF00001AFF3008089
:10039000BDE81C4070474FF0000200B5134694467C
:1003A0009646203922BFA0E80C50A0E80C50B1F1CD
:1003B0002001BFF4F7AF090728BFA0E80C5048BFE1
:1003C0000CC05DF804EB890028BF40F8042B08BF7F
:1003D000704748BF20F8022B11F0804F18BF00F87B
:1003E000012B704770477047704700000048704706
:1003F000900500207546FFF7F9FFAE4605006946F7
:10040000534620F00700854618B020B5FFF73AFFA5
:10041000BDE820404FF000064FF000074FF0000805
:100420004FF0000B21F00701AC46ACE8C009ACE886
:10043000C009ACE8C009ACE8C0098D46704710B5EA
:100440000446AFF300802046BDE81040FFF705BF2B
:1004500001491820ABBEFEE7260002007047FEE708
:100460007047000070B5044600F00CF90546601CAA
:1004700002D004480078044400F004F9401BA04274
:10048000FAD370BD000000202DE9F84FDFF8BCA1C1
:100490000022012503264FF00F090AF1040BAAF1EF
:1004A000040E00BF0B6805FA02F42340A34270D18A
:1004B0000F7907F00307012F01D0022F16D18768AB
:1004C0004FEA420806FA08FC27EA0C07D1F80CC0EC
:1004D0000CFA08FC4CEA070CC0F808C04768A743B0
:1004E0000C79C4F3001494403C4344600C79E44319
:1004F000A4070AD0C4684FEA420C06FA0CF7BC43C2
:100500008F6807FA0CF72743C7600C7904F00304DF
:10051000022C12D1D40800EB840CDCF820405707E1
:10052000FF0E09FA07F824EA0804D1F8108008FA47
:1005300007F848EA0408CCF8208004684FEA420C27
:1005400006FA0CF7BC430F7907F0030707FA0CF71C
:10055000274307604C6814F4403F70D03C4C276838
:1005600047F480472760246822F0030704F480449E
:100570000094384C07EB040CDCF8084897074FEA66
:10058000177809FA08F7BC43334FB84202D1002765
:1005900024E054E0314FB84201D101271EE0304F32
:1005A000B84201D1022719E02E4FB84201D10327EA
:1005B00014E02D4FB84201D104270FE02B4FB84271
:1005C00001D105270AE02A4FB84201D1062705E0EC
:1005D000284FB84201D1072700E0082707FA08F79B
:1005E0002743CCF80878DAF800405746D1F804C021
:1005F0009C435FEACC2C00D51C433C60DBF80040F8
:100600005F46D1F804C09C435FEA8C2C00D51C43A4
:100610003C60DEF800407746D1F804C09C435FEAB6
:100620008C3C00D51C433C60084F083F3C68D1F827
:1006300004C09C435FEACC3C00D51C433C60521C88
:10064000102AFFF42FAFBDE8F88F0000083C0140EE
:1006500044380240003001400000024000040240E3
:1006600000080240000C024000100240001402404A
:1006700000180240001C02400AB181617047090461
:10068000FBE7000001488068704700000000002080
:1006900002488168027811448160704700000020A0
:1006A0000B4810B5016841F400710160016841F424
:1006B00080610160016841F480710160032000F0F5
:1006C00061F80F2000F006F800F024F8002010BDBB
:1006D000003C024070B50D4D04464FF47A71287805
:1006E000B1FBF0F00A490968B1FBF0F000F0DEFA66
:1006F00048B9102C07D200222146501E00F022F8E3
:1007000000206C6070BD012070BD00000000002062
:100710000C0000200A4808B5016841F480410160DE
:10072000006800F4804000900548001F016841F017
:1007300080510160006800F08050009008BD00000A
:1007400044380240F0B40E4B1B680C46C3F302233E
:10075000C3F10705042D00D90425191D072901D26D
:10076000002300E0DB1E012606FA05F1491E2140A8
:1007700099409E40761E16403143F0BC00F0BABD51
:100780000CED00E0064900F0070208684FF6FF0391
:10079000184040EA0220034A1043086070470000F6
:1007A0000CED00E00000FA052DE9F0470E460500CB
:1007B00065D0DFF81481D8F80000F7B200F0070028
:1007C000B04207D288F80070D8F8000000F00700A7
:1007D000B04254D128683D4C810712D5400703D55B
:1007E000206840F4E05020602878000703D5206896
:1007F00040F4604020602068A96820F0F0000843C1
:1008000020602878C0072DD0304968680839012851
:1008100012D0022813D0032811D0096889070029B3
:100820002DDA216821F0030101432160FFF72AFF3F
:10083000814641F2883A0EE009688903EFE70968CA
:100840008901ECE7FFF71EFFA0EB0901514502D932
:100850000320BDE8F0872068696800F00C00B0EB69
:10086000810FEFD1D8F80010404601F00701B142E6
:1008700007D90770006800F00700B04201D00120DE
:10088000E7E72878400705D52068E96820F4E050BC
:10089000084320602878000706D52068296920F4DD
:1008A000604040EAC100206000F018F82168084A62
:1008B000C1F30311515CC84006490860064800684E
:1008C000FFF708FF0020C4E7003C02400838024060
:1008D000221400080C00002004000020154810B568
:1008E000006810F00C02144813D01449042A0FD0E9
:1008F000082A0ED10F4C241F2268236802F03F0201
:100900005B0207D52068C0F38810A0FB010106E058
:10091000084610BD2168C1F38811A1FB0001002326
:10092000FFF7C2FC2168C1F30141491C4900B0FB3B
:10093000F1F010BD083802400024F40040787D0139
:100940002DE9F84F04006ED02078DFF84C93C007F3
:10095000A9F104054AD009F104000168C1F381013D
:10096000012908D00068C0F3810002280AD1D9F813
:100970000000400206D52868800337D5606800284B
:10098000E1D033E06068B0F5803F10D0B0F5A02F23
:10099000286810D020F480302860286820F4802057
:1009A00028606068A8B1FFF76DFE06460DE0286874
:1009B00040F48030F4E740F480202860F7E700BF7F
:1009C000FFF760FE801B642873D828688003F7D582
:1009D0000CE0FFF757FE064605E000BFFFF752FEAA
:1009E000801B6428F0D828688003F7D42078DFF8CB
:1009F000AC8280074FF0000A3ED5A748001D016871
:100A000011F00C0F08D00068C0F3810002280BD150
:100A1000D9F80000400207D42868800716D5E0689E
:100A2000012800D112E033E1E068B8B10120C8F834
:100A30000000FFF727FE064605E000BFFFF722FE95
:100A4000801B0228C0D828688007F7D5286821694C
:100A500020F0F80040EAC10028600DE0C8F800A0CE
:100A6000FFF710FE064604E0FFF70CFE801B02288D
:100A70001FD828688007F7D42078000722D5864F32
:100A800087486169703771B101210160FFF7FAFD94
:100A9000064604E0FFF7F6FD801B022809D83868F7
:100AA0008007F7D50EE0C0F800A0FFF7EBFD064683
:100AB00005E082E0FFF7E6FD801B02287DD838685C
:100AC0008007F7D42078400768D5DFF8CCB100273D
:100AD0000BF13C0BDBF80000C0000BD4DBF800107E
:100AE00041F08051CBF80010DBF80000012700F046
:100AF000805000906B4E3068C00510D4306840F4D0
:100B000080703060FFF7BEFD009005E0FFF7BAFD92
:100B10000099401A022850D83068C005F6D55E4EBC
:100B2000A0686C3601280FD00528306810D020F05E
:100B300001003060306820F004003060A068B8B177
:100B4000FFF7A0FD00900FE0306840F00100F4E7EF
:100B500040F004003060F7E7FFF794FD0099411A78
:100B600041F28830814266D830688007F4D50EE0C3
:100B7000FFF788FD009007E0FFF784FD0099411A18
:100B800041F28830814256D830688007F4D42FB1C2
:100B9000DBF8001021F08051CBF80010A069C8B339
:100BA0003D49091D0968C1F3810102294AD0022883
:100BB000504607D0C8F8600000E03CE0FFF762FD57
:100BC00004463BE04746C8F86000FFF75BFD064679
:100BD00005E000BFFFF756FD801B02282BD82868D0
:100BE0008001F7D4D4E907010843A16A2E4A4908D5
:100BF00002EB0141626A41EA8211084394F82C1029
:100C000040EA0161C9F8001001203866FFF73AFD9B
:100C1000044606E03EE000BFFFF734FD001B02285B
:100C200009D828688001F7D534E000BFFFF72AFD16
:100C3000001B022802D90320BDE8F88F2868800134
:100C4000F4D427E00128F7D0D9F80000E26900F4D5
:100C5000800191421CD1226A00F03F01914217D1DC
:100C600047F6C071626A0140B1EB821F10D1A26ADF
:100C70004FF0FF3300F4403103EB5202B1EB024F6F
:100C800006D194F82C1000F07060B0EB016F01D029
:100C90000120D1E70020CFE704380240000047429E
:100CA000800E4742007000400000FFFF10B5401E5C
:100CB000B0F1807F01D3012010BD4FF0E0246061CE
:100CC0000F21601700F016FB0020A06107202061B3
:100CD000002010BDFEE7000070B501220B4D54034B
:100CE00021462846FFF7C8FC0122960331462846D4
:100CF000FFF7C2FC002231462846FFF7BDFC214623
:100D00002846BDE870400022FFF7B6BC000802404C
:100D100070B50A4C012251032046FFF7ADFC4FF499
:100D20008045002229462046FFF7A6FC294620469A
:100D3000BDE870400122FFF79FBC000000080240A0
:100D400070B50122064D540321462846FFF794FC56
:100D500021462846BDE870400022FFF78DBC000008
:100D60000008024070B586B014216846FFF713FBF7
:100D700016480025016841F004010160016801F096
:100D800004010591016841F080010160016801F0F2
:100D900080010591016841F00101016000680C4E7D
:100DA00000F001004FF4C044059000222146304677
:100DB000FFF762FC0121CDE90041CDE9021569464A
:100DC0003046FFF761FB06B070BD000030380240CE
:100DD00000080240FEE7FEE770B50024002104F1A0
:100DE000B00000F0B4F90021084600F0B0F900218D
:100DF000102000F0ACF900250121002000F0A7F937
:100E00006D1CEDB2802DF7D3641CE4B2082CE5D341
:100E100070BD2DE9F04798461746824600260C46DD
:100E2000DDF8209012E02146504600F0A9F8554622
:100E300008E019F80600761CB6B2012100F087F927
:100E40006D1CEDB2BD42F4D3641CE4B24445EAD358
:100E5000BDE8F08770B586B014216846FFF79BFAAD
:100E600045480025016841F0040101600068434ED7
:100E700000F004004FF4C04405902A462146304655
:100E8000FFF7FAFB0121CDE90041CDE902156946E2
:100E90003046FFF7F9FA0A20FFF7E4FA0021AE2006
:100EA00000F055F90021022000F051F90021102036
:100EB00000F04DF90021402000F049F90021B02058
:100EC00000F045F90021812000F041F90021FF20C8
:100ED00000F03DF90021A12000F039F90021A62001
:100EE00000F035F90021A82000F031F900213F2061
:100EF00000F02DF90021C82000F029F90021D320AD
:100F000000F025F90021084600F021F90021D52044
:100F100000F01DF90021802000F019F90021D820EF
:100F200000F015F90021052000F011F90021D92069
:100F300000F00DF90021F12000F009F90021DA207C
:100F400000F005F90021122000F001F90021DB205A
:100F500000F0FDF80021302000F0F9F800218D208C
:100F600000F0F5F80021142000F0F1F80021AF2086
:100F700000F0EDF806B070BD3038024000080240C5
:100F800010B50A460446002102F1B00000F0DFF877
:100F9000A41CC4F3031040F01000002100F0D7F8A7
:100FA00004F00F00BDE81040002100F0D0B80000B0
:100FB0002DE9F04115460E460746FFF7E1FF0F48C1
:100FC000002400EB85150121285D00F0C0F8641CA9
:100FD000E4B2102CF7D3761CF1B23846FFF7D0FFFD
:100FE00000242819012190F8200000F0B0F8641CBA
:100FF000E4B2102CF5D3BDE8F08100001000002011
:101000002DE9F047203A0024089E0F468146D5B2CC
:101010007F2803D900208F1C8146FFB2102B394650
:1010200012D0FFF7ADFF1B4905EB450001EB400572
:10103000285D06B1C043012100F089F8641CE4B2C8
:10104000062CF5D3BDE8F087FFF79AFFDFF848805C
:1010500004EB051118F8010006B1C043012100F0AE
:1010600076F8641CE4B2082CF2D37F1CF9B248462F
:10107000FFF786FF0024474604EB05103844007A4A
:1010800006B1C043012100F062F8641CE4B2082CF0
:10109000F2D3D7E7321400085A1600082DE9FF4FA3
:1010A00081B00026DDE90EA91D46934680463446F0
:1010B0004FEA5A0727E0281B401EC1B20A2000F061
:1010C000A3F9BBFBF0F00A21B0FBF1F201FB120027
:1010D00026B9691E8C4201DA48B101263030C2B20D
:1010E00007FB0480C0B25346CDF8009006E007FB32
:1010F0000480C0B253462022CDF800900299FFF739
:101100007FFF641CE4B2AC42D5D305B0BDE8F08FDC
:101110002DE9F843994617460E4604460025DDF8AA
:1011200020800FE04B4631462046CDF80080FFF787
:1011300067FF0834E4B2782C02D90024B61CF6B25A
:101140006D1CEDB27A5D002AECD1BDE8F883C0B227
:1011500009B100F0B8B800F09FB870477047FFF7CA
:1011600097BA000030B593B030216846FFF713F905
:1011700014210CA8FFF70FF91D480025016841F064
:1011800080510160006800F080501190194801689A
:1011900041F4804101600068022400F48040119015
:1011A0000120039010200490009406940820CDE9BB
:1011B0000750A820CDE9090404200B906846FFF7EA
:1011C000BFFB08B172B6FEE70CA90F2081E8310021
:1011D0004FF4A0500F904FF48050109005210CA8B0
:1011E000FFF7E2FA002801D072B6FEE713B030BD77
:1011F00040380240007000400248016841F470012C
:101200000160704788ED00E0FEE700002DE9F04145
:10121000204F04464FF40056002231463846FFF76F
:101220002BFA00254FF4804804F0800080282FD04E
:10123000002241463846FFF71FFA6006040E00BF41
:1012400000BF00BF00BF00BF00BF00BF00BF00BFA6
:1012500000BF00BF00BF00BF00BF00BF00BF00BF96
:1012600000BF00BF00BF00BF00BF00BF00BF00BF86
:10127000012231463846FFF7FFF900223146384651
:10128000FFF7FAF96D1CEDB2082DCDD3BDE8F08162
:101290000122CEE70008024010B50446FFF71CFD0E
:1012A0007820FFF7B3FFFFF74BFD0020FFF7AEFFFD
:1012B000FFF746FD2046FFF7A9FFFFF741FDBDE818
:1012C0001040FFF725BD10B50446FFF705FD782057
:1012D000FFF79CFFFFF734FD4020FFF797FFFFF774
:1012E0002FFD2046FFF792FFFFF72AFDBDE81040D3
:1012F000FFF70EBD0907090E002804DB00F1E0200E
:1013000080F80014704700F00F0000F1E02080F832
:10131000141D70471CB5FFF7C3F9FFF723FFFFF754
:1013200021FDFFF797FDFFF757FD0024DFF8C4A06C
:101330004FF010084FF001090C2540F29A264FF4A7
:101340007A77002110232CA208460094FFF7E0FED4
:10135000102329A202210020CDF80090FFF7D8FE2B
:10136000CDE900540323324604210020FFF796FE06
:10137000CDE900540323324605211E20FFF78EFEDF
:10138000CDE900840323324604213C20FFF786FE8A
:10139000002206211046FFF70BFE01220621102035
:1013A000FFF706FE022206212020FFF701FE03229E
:1013B00006213020FFF7FCFD042206214020FFF724
:1013C000F7FD052206215020FFF7F2FD3846FFF712
:1013D00049F8FFF701FD0021082380220846CDF8D7
:1013E00000A0FFF716FD3846FFF73CF8FFF7F4FCC6
:1013F000A7E700009001002048656C6C6F20576FD4
:10140000726C6420210000000246012000E050437D
:10141000491EC9B2FBD270474FF04070E1EE100A8E
:1014200070470000000000000000010203040607EE
:1014300008090000000000000000002F000000006C
:101440000700070000147F147F1400242A7F2A124B
:10145000006264081323003649552250000005033A
:10146000000000001C224100000041221C0000146A
:10147000083E08140008083E0808000000A06000AC
:10148000000808080808000060600000002010083C
:101490000402003E5149453E0000427F40000042A8
:1014A00061514946002141454B31001814127F100B
:1014B000002745454539003C4A494930000171093A
:1014C000050300364949493600064949291E0000EE
:1014D0003636000000005636000000081422410095
:1014E00000141414141400004122140800020151C5
:1014F000090600324959513E007C1211127C007FCE
:1015000049494936003E41414122007F4141221C68
:10151000007F49494941007F09090901003E4149CD
:10152000497A007F0808087F0000417F41000020C1
:1015300040413F01007F08142241007F404040406D
:10154000007F020C027F007F0408107F003E4141B3
:10155000413E007F09090906003E4151215E007F9E
:10156000091929460046494949310001017F010115
:10157000003F4040403F001F2040201F003F4038B8
:10158000403F0063140814630007087008070061F7
:101590005149454300007F41410000552A552A55D5
:1015A000000041417F00000402010204004040406D
:1015B0004040000001020400002054545478007F91
:1015C0004844443800384444442000384444487F68
:1015D00000385454541800087E0901020018A4A4CD
:1015E000A47C007F080404780000447D4000004093
:1015F00080847D00007F102844000000417F40006F
:10160000007C04180478007C080404780038444402
:10161000443800FC242424180018242418FC007CDE
:101620000804040800485454542000043F44402057
:10163000003C4040207C001C2040201C003C4030EE
:10164000403C004428102844001CA0A0A07C00447A
:1016500064544C44141414141414000000000000CA
:1016600000000000000000000000000000F8000082
:101670000000000000333000000000100C06100CC9
:101680000600000000000000000040C07840C07864
:101690004000043F04043F040400007088FC08304C
:1016A0000000001820FF211E0000F008F000E018E4
:1016B000000000211C031E211E0000F0088870009D
:1016C00000001E2123241927211010160E000000EF
:1016D00000000000000000000000000000E018040E
:1016E0000200000000071820400000020418E0007B
:1016F00000000040201807000000404080F08040BB
:1017000040000202010F01020200000000F0000090
:1017100000000101011F01010100000000000000A4
:10172000000080B070000000000000000000000019
:1017300000000001010101010101000000000000A2
:101740000000003030000000000000000000806059
:101750001804006018060100000000E010080810DE
:10176000E000000F102020100F00001010F8000003
:1017700000000020203F202000000070080808889A
:10178000700000302824222130000030088888486A
:1017900030000018202020110E000000C02010F89A
:1017A000000000070424243F240000F8088888086B
:1017B00008000019212020110E0000E01088881870
:1017C0000000000F112020110E0000380808C83852
:1017D00008000000003F0000000000708808088832
:1017E0007000001C222121221C0000E010080810BB
:1017F000E0000000312222110F00000000C0C000F4
:1018000000000000003030000000000000800000F8
:1018100000000000806000000000000080402010F8
:1018200008000001020408102000404040404040F1
:101830004000040404040404040000081020408054
:101840000000002010080402010000704808080889
:10185000F0000000003036010000C030C828E81059
:10186000E0000718272423140B000000C038E00014
:101870000000203C23020227382008F8888888705E
:101880000000203F202020110E00C030080808086A
:101890003800071820202010080008F80808081051
:1018A000E000203F202020100F0008F88888E8087A
:1018B0001000203F20202320180008F88888E8081E
:1018C0001000203F200003000000C0300808083846
:1018D000000007182020221E020008F80800000857
:1018E000F808203F210101213F20000808F80808DE
:1018F00000000020203F2020000000000808F80819
:101900000800C08080807F00000008F888C0281888
:101910000800203F20012638200008F808000000B9
:101920000000203F20202020300008F8F800F8F8C0
:101930000800203F003F003F200008F830C00008AA
:10194000F808203F200007183F00E01008080810A2
:10195000E0000F10202020100F0008F808080808E9
:10196000F000203F210101010000E01008080810EC
:10197000E0000F18242438504F0008F88888888821
:101980007000203F2000030C3020007088080808F9
:1019900038000038202121221C00180808F8080807
:1019A00018000000203F2000000008F80800000890
:1019B000F808001F202020201F000878880000C899
:1019C0003808000007380E010000F80800F8000889
:1019D000F800033C0700073C030008186880806893
:1019E000180820302C03032C30200838C800C838D1
:1019F00008000000203F2000000010080808C83838
:101A000008002038262120201800000000FE0202D5
:101A100002000000007F40404000000C30C0000089
:101A20000000000000010638C00000020202FE00B3
:101A30000000004040407F0000000000040202025D
:101A40000400000000000000000000000000000092
:101A5000000080808080808080800002020400007E
:101A60000000000000000000000000008080808076
:101A700000000019242222223F2008F80080800064
:101A80000000003F112020110E0000000080808027
:101A90000000000E1120202011000000008080882E
:101AA000F800000E112020103F2000008080808070
:101AB0000000001F222222221300008080F088886C
:101AC00088180020203F20200000000080808080B7
:101AD0008000006B94949493600008F800808080EC
:101AE0000000203F210000203F2000809898000047
:101AF00000000020203F2020000000000080989877
:101B0000000000C08080807F000008F80000808016
:101B10008000203F24022D302000000808F800003B
:101B200000000020203F20200000808080808080F6
:101B30008000203F20003F20003F80800080808088
:101B40000000203F210000203F2000008080808096
:101B50000000001F202020201F00808000808000C7
:101B6000000080FFA12020110E0000000080808076
:101B70008000000E112020A0FF80808080008080E7
:101B8000800020203F212000010000008080808014
:101B900080000033242424241900008080E0808009
:101BA00000000000001F2020000080800000008056
:101BB0008000001F202020103F20808080000080B7
:101BC000808000010E3008060100808000800080C7
:101BD00080800F300C030C300F000080800080806C
:101BE00080000020312E0E31200080808000008097
:101BF000808080818E701806010000808080808047
:101C000080000021302C2221300000000000807C68
:101C1000020200000000003F404000000000FF0002
:101C2000000000000000FF0000000002027C8000B5
:101C300000000040403F00000000000601010202D9
:101C40000404000000000000000000006C1C0008FC
:101C50000000002090050000C40100085C1E000880
:101C6000900500206006000020020008320182106A
:101C70003324F41BF010012AFF050215F01B0F049A
:101C8000012AFF0502140F1808FE0212929292F226
:101C90000404131202FE1CFF4048010008124F48C2
:101CA0004A4C4840FF00101220242424FE23222006
:101CB00020FF20222CA020000F110848847F024121
:101CC0004020130C142241F800101280642C34249C
:101CD00024EC322222322E23A260000F12412191E5
:101CE00089874D552525554D818080000F118060D5
:101CF000F8074020180F08C8080828181A01C21150
:101D000017100C0340807F0B100106201115FC04F6
:101D100004FC080911C2BA828282FE828260000C31
:101D2000E20F04040F2010080442817F1280276014
:101D300004868680803C406020115C8080401B29A6
:101D40001601336DC0C06020012D60606040011B32
:101D5000C0C04E3B80C00C2901101E7070181C1CA6
:101D600006052564646CCC9090C040605054C6C297
:101D70004040515444C6C2021308081A01010137F9
:101D80001D0101030201280A060606C6C474341C9C
:101D90000CCB280DC0E070381E1F0786C4E4743CCD
:101DA0001219111813E0F8FC1C1C0C1C1CFCFCFC88
:101DB0008C0C0C0D0D0D0C01063E0D0F070703409A
:101DC000101CFEFE82020303060E1C1C13131E1CB5
:101DD0002D0307FFFC866011C7C76D6D4848C8C852
:101DE000888808080818F8F8001141F1F9F9F1712C
:101DF00031313179794F4FC08080801C01070F60ED
:101E000019015E0F0F0705010118250C1E1F332055
:101E1000203030181C0E070303387868484F4FCE27
:101E2000404040C0C04F7F7F3F060604040C0C3387
:101E30001D0C0F0787843901017214FFFFC0D80FF2
:101E4000C0C0C0E0F0F8B0B0C0C0C4FDFDFF0101EB
:0C1E50005FAC1F1F0F01FA1F01221000E1
:040000050800018965
:00000001FF
