:020000040800F2
:1000000070060020290200080B0D0008950C00085E
:10001000090D00081F040008751200080000000008
:10002000000000000000000000000000CB110008EC
:100030002104000800000000C9110008CD110008CB
:10004000430200084302000843020008430200087C
:10005000430200084302000843020008430200086C
:10006000430200084302000843020008430200085C
:10007000430200084302000843020008430200084C
:10008000430200084302000843020008430200083C
:10009000430200084302000843020008430200082C
:1000A000430200084302000843020008430200081C
:1000B000430200084302000843020008430200080C
:1000C00043020008430200084302000843020008FC
:1000D00043020008430200084302000843020008EC
:1000E00043020008430200084302000843020008DC
:1000F00043020008430200084302000843020008CC
:1001000043020008430200084302000843020008BB
:1001100043020008430200084302000843020008AB
:10012000430200084302000843020008430200089B
:100130004302000800000000000000004302000825
:10014000430200084302000843020008430200087B
:10015000430200084302000843020008430200086B
:10016000430200084302000843020008430200085B
:1001700043020008430200080000000000000000E5
:10018000430200084302000800F002F800F03CF8C7
:100190000AA090E8000C82448344AAF10107DA45E2
:1001A00001D100F031F8AFF2090EBAE80F0013F0F8
:1001B000010F18BFFB1A43F001031847941F0000FA
:1001C000B41F0000103A24BF78C878C1FAD852078B
:1001D00024BF30C830C144BF04680C6070470000C1
:1001E0000023002400250026103A28BF78C1FBD840
:1001F000520728BF30C148BF0B6070471FB501F0E0
:10020000CDF81FBD10B510BD00F0CFF81146FFF7B7
:10021000F5FF01F041F800F0EDF803B4FFF7F2FF4D
:1002200003BC00F0F5F80000094880470948004782
:10023000FEE7FEE7FEE7FEE7FEE7FEE7FEE7FEE796
:10024000FEE7FEE704480549054A064B70470000F3
:100250006512000889010008700000207006002067
:10026000700200207002002053EA020C00F0698046
:100270002DE9F04B4FF00006002B1FBFB3FA83F5BA
:1002800003FA05F424FA05F65E4012BF1643B2FAEB
:1002900082F502FA05F4C5F120051EBF22FA05FC1D
:1002A00044EA0C04203556EA044C4FEA144418BFC3
:1002B000641C4FF000084FF00009904271EB030CF2
:1002C00039D3002919BFB1FA81F701FA07F6B0FA5C
:1002D00080F700FA07F6C7F120071EBF20FA07FCD7
:1002E00046EA0C062037B6FBF4FCA7EB0507103FE7
:1002F00007F01F0BCBF120060CFA0BFB2CFA06F6CD
:1003000044BFB3460026202FA4BF5E464FF0000B2B
:100310005BEA060C08BF4FF0010B19EB0B09ABFBB6
:10032000027C48EB0608C01B06FB02CC0BFB03CC8F
:1003300071EB0C01C1E70B46024641464846BDE859
:10034000F08B13B54FF000004FF00001AFF30080C9
:10035000BDE81C4070474FF0000200B513469446BC
:100360009646203922BFA0E80C50A0E80C50B1F10D
:100370002001BFF4F7AF090728BFA0E80C5048BF21
:100380000CC05DF804EB890028BF40F8042B08BFBF
:10039000704748BF20F8022B11F0804F18BF00F8BB
:1003A000012B7047704770477047754600F02CF876
:1003B000AE4605006946534620F00700854618B052
:1003C00020B5FFF73FFFBDE820404FF000064FF09B
:1003D00000074FF000084FF0000B21F00701AC467A
:1003E000ACE8C009ACE8C009ACE8C009ACE8C00999
:1003F0008D46704710B50446AFF300802046BDE837
:100400001040FFF70ABF00000048704710000020AE
:1004100001491820ABBEFEE7260002007047FEE748
:100420007047000070B5044600F00CF90546601CEA
:1004300002D004480078044400F004F9401BA042B4
:10044000FAD370BD000000202DE9F84FDFF8BCA101
:100450000022012503264FF00F090AF1040BAAF12F
:10046000040E00BF0B6805FA02F42340A34270D1CA
:100470000F7907F00307012F01D0022F16D18768EB
:100480004FEA420806FA08FC27EA0C07D1F80CC02C
:100490000CFA08FC4CEA070CC0F808C04768A743F0
:1004A0000C79C4F3001494403C4344600C79E44359
:1004B000A4070AD0C4684FEA420C06FA0CF7BC4302
:1004C0008F6807FA0CF72743C7600C7904F0030420
:1004D000022C12D1D40800EB840CDCF82040570722
:1004E000FF0E09FA07F824EA0804D1F8108008FA88
:1004F00007F848EA0408CCF8208004684FEA420C68
:1005000006FA0CF7BC430F7907F0030707FA0CF75C
:10051000274307604C6814F4403F70D03C4C276878
:1005200047F480472760246822F0030704F48044DE
:100530000094384C07EB040CDCF8084897074FEAA6
:10054000177809FA08F7BC43334FB84202D10027A5
:1005500024E054E0314FB84201D101271EE0304F72
:10056000B84201D1022719E02E4FB84201D103272A
:1005700014E02D4FB84201D104270FE02B4FB842B1
:1005800001D105270AE02A4FB84201D1062705E02C
:10059000284FB84201D1072700E0082707FA08F7DB
:1005A0002743CCF80878DAF800405746D1F804C061
:1005B0009C435FEACC2C00D51C433C60DBF8004038
:1005C0005F46D1F804C09C435FEA8C2C00D51C43E5
:1005D0003C60DEF800407746D1F804C09C435FEAF7
:1005E0008C3C00D51C433C60084F083F3C68D1F868
:1005F00004C09C435FEACC3C00D51C433C60521CC9
:10060000102AFFF42FAFBDE8F88F0000083C01402E
:100610004438024000300140000002400004024023
:1006200000080240000C024000100240001402408A
:1006300000180240001C02400AB1816170470904A1
:10064000FBE70000014880687047000000000020C0
:1006500002488168027811448160704700000020E0
:100660000B4810B5016841F400710160016841F464
:1006700080610160016841F480710160032000F035
:1006800061F80F2000F006F800F024F8002010BDFB
:10069000003C024070B50D4D04464FF47A71287845
:1006A000B1FBF0F00A490968B1FBF0F000F0DEFAA6
:1006B00048B9102C07D200222146501E00F022F823
:1006C00000206C6070BD012070BD000000000020A3
:1006D0000C0000200A4808B5016841F4804101601F
:1006E000006800F4804000900548001F016841F058
:1006F00080510160006800F08050009008BD00004B
:1007000044380240F0B40E4B1B680C46C3F302237E
:10071000C3F10705042D00D90425191D072901D2AD
:10072000002300E0DB1E012606FA05F1491E2140E8
:1007300099409E40761E16403143F0BC00F09BBDB0
:100740000CED00E0064900F0070208684FF6FF03D1
:10075000184040EA0220034A104308607047000036
:100760000CED00E00000FA052DE9F0470E4605000B
:1007700065D0DFF81481D8F80000F7B200F0070068
:10078000B04207D288F80070D8F8000000F00700E7
:10079000B04254D128683D4C810712D5400703D59B
:1007A000206840F4E05020602878000703D52068D6
:1007B00040F4604020602068A96820F0F000084301
:1007C00020602878C0072DD0304968680839012892
:1007D00012D0022813D0032811D0096889070029F4
:1007E0002DDA216821F0030101432160FFF72AFF80
:1007F000814641F2883A0EE009688903EFE709680B
:100800008901ECE7FFF71EFFA0EB0901514502D972
:100810000320BDE8F0872068696800F00C00B0EBA9
:10082000810FEFD1D8F80010404601F00701B14226
:1008300007D90770006800F00700B04201D001201E
:10084000E7E72878400705D52068E96820F4E050FC
:10085000084320602878000706D52068296920F41D
:10086000604040EAC100206000F018F82168084AA2
:10087000C1F30311515CC84006490860064800688E
:10088000FFF708FF0020C4E7003C024008380240A0
:10089000A61700080C00002004000020154810B521
:1008A000006810F00C02144813D01449042A0FD029
:1008B000082A0ED10F4C241F2268236802F03F0241
:1008C0005B0207D52068C0F38810A0FB010106E099
:1008D000084610BD2168C1F38811A1FB0001002367
:1008E000FFF7C2FC2168C1F30141491C4900B0FB7C
:1008F000F1F010BD083802400024F40040787D017A
:100900002DE9F84F04006ED02078DFF84C93C00733
:10091000A9F104054AD009F104000168C1F381017D
:10092000012908D00068C0F3810002280AD1D9F853
:100930000000400206D52868800337D5606800288B
:10094000E1D033E06068B0F5803F10D0B0F5A02F63
:10095000286810D020F480302860286820F4802097
:1009600028606068A8B1FFF76DFE06460DE02868B4
:1009700040F48030F4E740F480202860F7E700BFBF
:10098000FFF760FE801B642873D828688003F7D5C2
:100990000CE0FFF757FE064605E000BFFFF752FEEA
:1009A000801B6428F0D828688003F7D42078DFF80B
:1009B000AC8280074FF0000A3ED5A748001D0168B1
:1009C00011F00C0F08D00068C0F3810002280BD191
:1009D000D9F80000400207D42868800716D5E068DF
:1009E000012800D112E033E1E068B8B10120C8F875
:1009F0000000FFF727FE064605E000BFFFF722FED6
:100A0000801B0228C0D828688007F7D5286821698C
:100A100020F0F80040EAC10028600DE0C8F800A00E
:100A2000FFF710FE064604E0FFF70CFE801B0228CD
:100A30001FD828688007F7D42078000722D5864F72
:100A400087486169703771B101210160FFF7FAFDD4
:100A5000064604E0FFF7F6FD801B022809D8386837
:100A60008007F7D50EE0C0F800A0FFF7EBFD0646C3
:100A700005E082E0FFF7E6FD801B02287DD838689C
:100A80008007F7D42078400768D5DFF8CCB100277D
:100A90000BF13C0BDBF80000C0000BD4DBF80010BE
:100AA00041F08051CBF80010DBF80000012700F086
:100AB000805000906B4E3068C00510D4306840F410
:100AC00080703060FFF7BEFD009005E0FFF7BAFDD3
:100AD0000099401A022850D83068C005F6D55E4EFD
:100AE000A0686C3601280FD00528306810D020F09F
:100AF00001003060306820F004003060A068B8B1B8
:100B0000FFF7A0FD00900FE0306840F00100F4E72F
:100B100040F004003060F7E7FFF794FD0099411AB8
:100B200041F28830814266D830688007F4D50EE003
:100B3000FFF788FD009007E0FFF784FD0099411A58
:100B400041F28830814256D830688007F4D42FB102
:100B5000DBF8001021F08051CBF80010A069C8B379
:100B60003D49091D0968C1F3810102294AD00228C3
:100B7000504607D0C8F8600000E03CE0FFF762FD97
:100B800004463BE04746C8F86000FFF75BFD0646B9
:100B900005E000BFFFF756FD801B02282BD8286810
:100BA0008001F7D4D4E907010843A16A2E4A490815
:100BB00002EB0141626A41EA8211084394F82C1069
:100BC00040EA0161C9F8001001203866FFF73AFDDC
:100BD000044606E03EE000BFFFF734FD001B02289C
:100BE00009D828688001F7D534E000BFFFF72AFD57
:100BF000001B022802D90320BDE8F88F2868800175
:100C0000F4D427E00128F7D0D9F80000E26900F415
:100C1000800191421CD1226A00F03F01914217D11C
:100C200047F6C071626A0140B1EB821F10D1A26A1F
:100C30004FF0FF3300F4403103EB5202B1EB024FAF
:100C400006D194F82C1000F07060B0EB016F01D069
:100C50000120D1E70020CFE70438024000004742DE
:100C6000800E4742007000400000FFFF10B5401E9C
:100C7000B0F1807F01D3012010BD4FF0E02460610E
:100C80000F21601700F0F7FA0020A0610720206113
:100C9000002010BDFEE7000070B586B01421684644
:100CA000FFF759FB16480024016841F00401016078
:100CB000016801F004010591016841F080010160C3
:100CC000016801F080010591016841F001010160B6
:100CD00000680C4E00F001004EF201050590002264
:100CE00029463046FFF7A8FC01200095CDE9010414
:100CF000694630460394FFF7A7FB06B070BD0000BD
:100D00003038024000080240FEE7FEE770B50024DC
:100D100004F1B000C0B2002100F022FA0021084620
:100D200000F01EFA0021102000F01AFA002501211F
:100D3000002000F015FA6D1CEDB2802DF7D3641C75
:100D4000E4B2082CE4D370BD2DE9F047984617466D
:100D5000824600260C46DDF8209011E021465046E0
:100D600000F0E2F8554607E019F806000121761C6C
:100D700000F0F6F96D1CEDB2BD42F5D3641CE4B28F
:100D80004445EBD3BDE8F0872DE9F041644886B0D7
:100D9000016841F0020101600068012400F00200D6
:100DA0000094DFF880810225059069460194404651
:100DB000CDE90245FFF748FB6603CDE900646946CB
:100DC0004046CDE90245FFF73FFBA703CDE900749C
:100DD00069464046CDE90245FFF736FB0122114640
:100DE0004046FFF729FC012231464046FFF724FC2C
:100DF000012239464046FFF71FFC0122D403214659
:100E00004046FFF719FC6420FFF70CFB0022214647
:100E10004046FFF711FC6420FFF704FB0122214646
:100E20004046FFF709FC0021AE2000F099F90021AF
:100E3000022000F095F90021102000F091F9002126
:100E4000402000F08DF90021812000F089F9002177
:100E5000CF2000F085F90021A12000F081F90021C8
:100E6000C82000F07DF90021A62000F079F90021CA
:100E7000A82000F075F900213F2000F071F9002151
:100E8000D32000F06DF90021084600F069F9002137
:100E9000D52000F065F90021802000F061F90021E3
:100EA000D92000F05DF90021F12000F059F900216E
:100EB000DA2000F055F90021122000F051F900214C
:100EC000DB2000F04DF90021402000F049F900211D
:100ED000202000F045F90021022000F041F9002116
:100EE0008D2000F03DF90021142000F039F9002197
:100EF000A42000F035F90021A62000F031F90021EE
:100F0000AF2000F02DF90021AF2000F029F9FFF704
:100F1000FDFE0021084600F007F806B0BDE8F081AC
:100F2000303802400008024010B50446B031C8B263
:100F3000002100F015F9102040EA1410002100F003
:100F40000FF904F00F00BDE8104040F0010000214F
:100F500000F006B92DE9F04115460E460746FFF7A9
:100F6000E3FF0F48002400EB85150121285D00F008
:100F7000F7F8641CE4B2102CF7D3761CF1B23846B3
:100F8000FFF7D2FF00242819012190F8200000F07B
:100F9000E7F8641CE4B2102CF5D3BDE8F081000042
:100FA000CE1F00082DE9F0478046203A002408981B
:100FB0000D46D6B2B8F17F0F02D9AD1CA046EDB2F6
:100FC000DFF8E090384F012813D0102B2946404617
:100FD00048D0FFF7A9FF06EB460007EB40050121CB
:100FE000285D00F0BDF8641CE4B2062CF7D3BDE820
:100FF000F087102B2946404610D0FFF795FF06EBEF
:10100000460007EB40050121285DC043C0B200F057
:10101000A7F8641CE4B2062CF5D3E8E7FFF784FFD9
:101020004FEA090704EB06100121385CC043C0B247
:1010300000F096F8641CE4B2082CF3D36D1CE9B2FE
:101040004046FFF771FF002404EB061038440121ED
:10105000007AC043C0B200F083F8641CE4B2082CEC
:10106000F2D3C4E7FFF760FF4FEA090704EB06106D
:101070000121385C00F074F8641CE4B2082CF5D34C
:101080006D1CE9B24046FFF74FFF002404EB061049
:1010900038440121007A00F063F8641CE4B2082CA3
:1010A000F4D3A4E7DE190008B61700082DE9FF4FB6
:1010B00081B00026DDE90EA91D46934680463446E0
:1010C0004FEA5A0727E0281B401EC1B20A2000F051
:1010D0005DF9BBFBF0F00A21B0FBF1F201FB12005D
:1010E00026B9691E8C4201DA48B101263030C2B2FD
:1010F00007FB0480C0B25346CDF8009006E007FB22
:101100000480C0B253462022CDF800900299FFF728
:1011100049FF641CE4B2AC42D5D305B0BDE8F08F02
:101120002DE9F843994617460E4604460025DDF89A
:1011300020800FE04B4631462046CDF80080FFF777
:1011400031FF0834E4B2782C02D90024B61CF6B280
:101150006D1CEDB27A5D002AECD1BDE8F883000089
:101160002DE9F041174E054609B1012200E00022A9
:1011700001213046FFF760FA00244FF480484FF415
:101180000057002239463046FFF756FA280601D5A7
:10119000012200E0002241463046FFF74DFA0122CD
:1011A00039463046FFF748FA6806641C050EE4B27B
:1011B000082CE6D33046BDE8F04101221146FFF786
:1011C0003BBA00000008024070477047FFF740BA82
:1011D00030B593B030216846FFF7BDF814210CA854
:1011E000FFF7B9F81D480025016841F08051016002
:1011F000006800F0805011901948016841F4804166
:1012000001600068022400F48040119001200390E6
:1012100010200490009406940820CDE90750A820DF
:10122000CDE9090404200B906846FFF769FB08B17B
:1012300072B6FEE70CA90F2081E831004FF4A050F0
:101240000F904FF48050109005210CA8FFF78CFAF6
:10125000002801D072B6FEE713B030BD403802401E
:10126000007000400248016841F47001016070475D
:1012700088ED00E0FEE70907090E002804DB00F115
:10128000E02080F80014704700F00F0000F1E0202B
:1012900080F8141D704700001CB5FFF7E1F9FFF757
:1012A00097FFFFF7F9FCFFF76FFDFFF72FFD002415
:1012B000DFF8C4A04FF010084FF001090C2540F2F0
:1012C0009A264FF47A77002110232CA20846009426
:1012D000FFF726FF102329A202210020CDF800905D
:1012E000FFF71EFFCDE900540323324604210020FE
:1012F000FFF7DCFECDE900540323324605211E2012
:10130000FFF7D4FECDE900840323324604213C20BC
:10131000FFF7CCFE002206211046FFF71BFE01223C
:1013200006211020FFF716FE022206212020FFF7DB
:1013300011FE032206213020FFF70CFE04220621B5
:101340004020FFF707FE052206215020FFF702FE8E
:101350003846FFF767F8FFF7D9FC00210823802201
:101360000846CDF800A0FFF7EFFC3846FFF75AF823
:10137000FFF7CCFCA7E70000A613000848656C6CDB
:101380006F20576F726C642021000000024601201C
:1013900000E05043491EC9B2FBD270474FF0407085
:1013A000E1EE100A7047000000000000000000009D
:1013B000000000000000000000000000000000002D
:1013C000000000000000000000000000000000001D
:1013D000000000000000000000000000000000000D
:1013E00000000000000000000000000000000000FD
:1013F00000000000000000000000000000000000ED
:1014000000000000000000000000000000000000DC
:1014100000000000000000000000000000000000CC
:1014200000000000000000000000000000000000BC
:1014300000000000000000000000000000000000AC
:10144000000000000000000000000000000000009C
:10145000000000000000000000000000000000008C
:10146000000000000000000000000000000000007C
:1014700000000000800060048686808000004060DC
:1014800020000000008080804000000000000080FC
:10149000808000000000000000000000000000004C
:1014A000000000000000000000000000000000003C
:1014B000000000000000000000000000000000002C
:1014C00000000000000000C0C0602020202020207C
:1014D0002020206060604040404040C0C08080804C
:1014E00080C04040404040404040407070181C1C4C
:1014F00006052564646CCC9090C040605054C6C210
:101500004040515444C6C2020008080001010101D4
:1015100000000000000000000000000000000000CB
:1015200000000000000000000000000000000000BB
:1015300000000000000000000000000000000000AB
:101540000000000000000001010302020202060682
:1015500006C6C474341C0C00000080C0E070381E45
:101560001F0786C4E4743C1C0C000080C0E0E0F857
:10157000FC1C1C0C1C1CFCFCFC8C0C0C0D0D0D0C28
:101580000C0C0C0D0F07070300000000000000000A
:10159000000000000000000000000000000000004B
:1015A000000000000000000000000000000000003B
:1015B000000000000000000000000000000000002B
:1015C0000000000000001CFEFE82020303060E1C49
:1015D0001C13131E1C000000000307FFFC0000008A
:1015E00080C7C76D6D4848C8C8888808080818F8BB
:1015F000F8000000000000F1F9F9F17131313179A2
:10160000794F4FC080808000000000000000000083
:1016100000000000000000000000000000000000CA
:1016200000000000000000000000000000000000BA
:1016300000000000000000000000000000000000AA
:10164000000000000000000001070F08080808085B
:10165000080F0F070501010101010101010C1E1F07
:101660003320203030181C0E070303387868484FA9
:101670004FCE404040C0C04F7F7F3F060604040C61
:101680000C0808080C0F078780808080808080808D
:10169000000000000000000000000000000000004A
:1016A000000000000000000000000000000000003A
:1016B000000000000000000000000000000000002A
:1016C000000000000000000000000000000000001A
:1016D000000000000000000000000000000000000A
:1016E00000000000000000000000000000000000FA
:1016F00000000000000000000000000000000000EA
:101700000000FFFFC000C0C0C0E0F0F8B0B0C0C033
:10171000C4FDFDFFFFFFFFFFFFFFFFFFFFFFFFFF18
:10172000FFFFFF00000000000000000000000000BC
:1017300000000000000000000000000000000000A9
:101740000000000000000000000000000000000099
:101750000000000000000000000000000000000089
:101760000000000000000000000000000000000079
:101770000000000000000000000000000000000069
:1017800000001F1F0F0F0F0F0F0F0F0F0F0F0F0F67
:101790000F1F1F1F1F1F1F1F1F1F1F1F1F1F1F1F69
:1017A0001F1F1F10000000000000000000000102C9
:1017B0000304060708090000000000000000002FD5
:1017C000000000000700070000147F147F140024AD
:1017D0002A7F2A12006264081323003649552250DA
:1017E00000000503000000001C224100000041220F
:1017F0001C000014083E08140008083E08080000F9
:1018000000A06000000808080808000060600000F0
:10181000002010080402003E5149453E0000427F6E
:101820004000004261514946002141454B310018BA
:1018300014127F10002745454539003C4A4949307C
:101840000001710905030036494949360006494936
:10185000291E000036360000000056360000000841
:10186000142241000014141414140000412214081E
:1018700000020151090600324959513E007C121103
:10188000127C007F49494936003E41414122007F98
:101890004141221C007F49494941007F0909090152
:1018A000003E4149497A007F0808087F0000417FD7
:1018B0004100002040413F01007F08142241007F89
:1018C00040404040007F020C027F007F0408107FF0
:1018D000003E4141413E007F09090906003E415159
:1018E000215E007F09192946004649494931000116
:1018F000017F0101003F4040403F001F2040201F6A
:10190000003F4038403F006314081463000708702C
:10191000080700615149454300007F4141000055DF
:101920002A552A55000041417F00000402010204AB
:101930000040404040400000010204000020545498
:101940005478007F484444380038444444200038E8
:101950004444487F00385454541800087E0901025A
:101960000018A4A4A47C007F080404780000447D2F
:101970004000004080847D00007F1028440000006B
:10198000417F4000007C04180478007C080404783F
:1019900000384444443800FC24242418001824242B
:1019A00018FC007C08040408004854545420000427
:1019B0003F444020003C4040207C001C2040201C34
:1019C000003C4030403C004428102844001CA0A0AB
:1019D000A07C004464544C441414141414140000E7
:1019E00000000000000000000000000000000000F7
:1019F00000F800000000000000333000000000107C
:101A00000C06100C0600000000000000000040C0A2
:101A10007840C0784000043F04043F040400007094
:101A200088FC08300000001820FF211E0000F0088C
:101A3000F000E018000000211C031E211E0000F031
:101A40000888700000001E21232419272110101679
:101A50000E00000000000000000000000000000078
:101A600000E01804020000000007182040000002F7
:101A70000418E0000000004020180700000040406B
:101A800080F0804040000202010F010202000000CD
:101A900000F0000000000101011F01010100000031
:101AA00000000000000080B0700000000000000096
:101AB000000000000000000101010101010100001F
:101AC00000000000000000303000000000000000B6
:101AD000000080601804006018060100000000E0AB
:101AE00010080810E000000F102020100F00001058
:101AF00010F8000000000020203F202000000070AF
:101B000008080888700000302824222130000030A6
:101B10000888884830000018202020110E0000009E
:101B2000C02010F8000000070424243F240000F81F
:101B30000888880808000019212020110E0000E004
:101B4000108888180000000F112020110E000038A6
:101B50000808C83808000000003F000000000070BE
:101B6000880808887000001C222121221C0000E047
:101B700010080810E0000000312222110F000000C0
:101B800000C0C00000000000003030000000000075
:101B900000800000000000008060000000000000E5
:101BA000804020100800000102040810200040407E
:101BB00040404040400004040404040404000008C1
:101BC0001020408000000020100804020100007076
:101BD00048080808F0000000003036010000C0305E
:101BE000C828E810E0000718272423140B00000081
:101BF000C038E0000000203C23020227382008F80B
:101C0000888888700000203F202020110E00C030FE
:101C1000080808083800071820202010080008F8D5
:101C200008080810E000203F202020100F0008F8CE
:101C30008888E8081000203F20202320180008F89A
:101C40008888E8081000203F200003000000C03012
:101C500008080838000007182020221E020008F893
:101C600008000008F808203F210101213F2000085A
:101C700008F8080800000020203F20200000000095
:101C80000808F8080800C08080807F00000008F87D
:101C900088C028180800203F20012638200008F8B6
:101CA000080000000000203F20202020300008F81D
:101CB000F800F8F80800203F003F003F200008F837
:101CC00030C00008F808203F200007183F00E0104F
:101CD00008080810E0000F10202020100F0008F85E
:101CE00008080808F000203F210101010000E01071
:101CF00008080810E0000F18242438504F0008F896
:101D0000888888887000203F2000030C30200070F5
:101D10008808080838000038202121221C001808F3
:101D200008F8080818000000203F2000000008F80C
:101D300008000008F808001F202020201F00087855
:101D4000880000C83808000007380E010000F808B5
:101D500000F80008F800033C0700073C03000818DF
:101D600068808068180820302C03032C3020083845
:101D7000C800C83808000000203F200000001008FC
:101D80000808C83808002038262120201800000044
:101D900000FE020202000000007F40404000000CF4
:101DA00030C000000000000000010638C000000242
:101DB0000202FE000000004040407F0000000000E2
:101DC0000402020204000000000000000000000005
:101DD0000000000000008080808080808080000201
:101DE00002040000000000000000000000000000ED
:101DF0008080808000000019242222223F2008F8E1
:101E0000008080000000003F112020110E00000023
:101E1000008080800000000E1120202011000000B2
:101E200000808088F800000E112020103F20000064
:101E3000808080800000001F222222221300008068
:101E400080F0888888180020203F202000000000B3
:101E5000808080808000006B94949493600008F8E8
:101E6000008080800000203F210000203F20008073
:101E70009898000000000020203F20200000000073
:101E800000809898000000C08080807F000008F8E3
:101E9000000080808000203F24022D3020000008B8
:101EA00008F8000000000020203F20200000808073
:101EB000808080808000203F20003F20003F808085
:101EC000008080800000203F210000203F20000093
:101ED000808080800000001F202020201F00808044
:101EE00000808000000080FFA12020110E00000073
:101EF000008080808000000E112020A0FF80808064
:101F000080008080800020203F2120000100000010
:101F100080808080800000332424242419000080E5
:101F200080E0808000000000001F202000008080F2
:101F3000000000808000001F202020103F208080B3
:101F400080000080808000010E3008060100808043
:101F50000080008080800F300C030C300F00008068
:101F60008000808080000020312E0E312000808093
:101F700080000080808080818E70180601000080C3
:101F80008080808080000021302C222130000000E1
:101F90000000807C020200000000003F4040000082
:101FA0000000FF00000000000000FF000000000231
:101FB000027C800000000040403F0000000000065E
:101FC0000101020204040000000000000000000003
:101FD000F010101010FF10101010F00000000000A2
:101FE00000000000000000000000000000000000F1
:101FF0000F04040404FF040404040F0000000000A4
:10200000000000000000000000000000000000FED2
:102010000212929292F29292921202FE000000003C
:10202000000000000000000000000000000000FFB1
:1020300040484848484F484A4C4840FF000000008C
:10204000000000000000000000000000000020244C
:102050002424FE23222020FF20222CA02000000088
:102060000000000000000000000000000000000868
:1020700048847F02414020130C142241F8000000E4
:10208000000000000000000000000000000080646C
:102090002C342424EC322222322E23A260000000B1
:1020A00000000000000000000000000000000041EF
:1020B000219189874D552525554D8180800000004F
:1020C0000000000000000000000000000000008090
:1020D00060F8074020180F08C808082818000000FA
:1020E00000000000000000000000000000000100EF
:1020F00000FF00100C0340807F0001061800000064
:10210000000000000000000000000000000000FCD3
:102110000404FC00C2BA828282FE82828000000037
:102120000000000000000000000000000000000FA0
:1021300004040F2010080442817F0000000000000A
:10214000000000000000000000000000000000008F
:10215000702100080000002010000000C4010008E9
:10216000802100081000002060060000E001000847
:102170000100000010000000000000000024F40036
:040000050800018965
:00000001FF
