:020000040800F2
:10000000280900202902000823150008751400089B
:1000100021150008AD05000889190008000000003E
:10002000000000000000000000000000271500088C
:10003000AF0500080000000025150008291500087C
:10004000430200084302000843020008430200087C
:10005000430200084302000843020008430200086C
:10006000430200084302000843020008430200085C
:10007000430200084302000843020008430200084C
:10008000430200084302000843020008430200083C
:10009000430200084302000843020008430200082C
:1000A000430200084302000843020008430200081C
:1000B000430200084302000843020008430200080C
:1000C00043020008430200084302000843020008FC
:1000D000430200084D1900084302000843020008CB
:1000E00043020008430200084302000843020008DC
:1000F00043020008430200084302000843020008CC
:1001000043020008430200084302000843020008BB
:10011000430200084302000843020008D11500080A
:10012000430200084302000843020008430200089B
:100130004302000800000000000000004302000825
:10014000430200084302000843020008430200087B
:10015000430200084302000843020008430200086B
:10016000430200084302000843020008430200085B
:1001700043020008430200080000000000000000E5
:10018000430200084302000800F002F800F03CF8C7
:100190000AA090E8000C82448344AAF10107DA45E2
:1001A00001D100F031F8AFF2090EBAE80F0013F0F8
:1001B000010F18BFFB1A43F0010318473028000055
:1001C00050280000103A24BF78C878C1FAD85207E6
:1001D00024BF30C830C144BF04680C6070470000C1
:1001E0000023002400250026103A28BF78C1FBD840
:1001F000520728BF30C148BF0B6070471FB502F0DF
:10020000E3FA1FBD10B510BD00F07EF91146FFF7EF
:10021000F5FF02F05DF800F09CF903B4FFF7F2FF80
:1002200003BC00F013F90000094880470948004763
:10023000FEE7FEE7FEE7FEE7FEE7FEE7FEE7FEE796
:10024000FEE7FEE704480549054A064B70470000F3
:10025000C115000889010008280300202809002092
:10026000280500202805002053EA020C00F06980D0
:100270002DE9F04B4FF00006002B1FBFB3FA83F5BA
:1002800003FA05F424FA05F65E4012BF1643B2FAEB
:1002900082F502FA05F4C5F120051EBF22FA05FC1D
:1002A00044EA0C04203556EA044C4FEA144418BFC3
:1002B000641C4FF000084FF00009904271EB030CF2
:1002C00039D3002919BFB1FA81F701FA07F6B0FA5C
:1002D00080F700FA07F6C7F120071EBF20FA07FCD7
:1002E00046EA0C062037B6FBF4FCA7EB0507103FE7
:1002F00007F01F0BCBF120060CFA0BFB2CFA06F6CD
:1003000044BFB3460026202FA4BF5E464FF0000B2B
:100310005BEA060C08BF4FF0010B19EB0B09ABFBB6
:10032000027C48EB0608C01B06FB02CC0BFB03CC8F
:1003300071EB0C01C1E70B46024641464846BDE859
:10034000F08B13B54FF000004FF00001AFF30080C9
:10035000BDE81C40704710B5002000F07DF8FFF7A5
:1003600051FFBDE81040012000F070B8032A40F2B0
:10037000308010F0030C00F0158011F8013BBCF147
:10038000020F624498BF11F801CB00F8013B38BF5F
:1003900011F8013BA2F1040298BF00F801CB38BF6D
:1003A00000F8013B11F0030300F05D80083AC0F053
:1003B000088051F8043B083A51F804CBA0E8081033
:1003C000F5E7121D5CBF51F8043B40F8043BAFF366
:1003D0000080D20724BF11F8013B11F801CB48BFC0
:1003E00011F8012B24BF00F8013B00F801CB48BFF6
:1003F00000F8012B70474FF0000200B513469446F9
:100400009646203922BFA0E80C50A0E80C50B1F16C
:100410002001BFF4F7AF090728BFA0E80C5048BF80
:100420000CC05DF804EB890028BF40F8042B08BF1E
:10043000704748BF20F8022B11F0804F18BF00F81A
:10044000012B704770477047704700000149182022
:10045000ABBEFEE72600020010B500F03DF8BDE897
:10046000104000F033B810B5203AC0F00B80B1E86E
:100470001850203AA0E81850B1E81850A0E81850D9
:10048000BFF4F5AF5FEA027C24BFB1E81850A0E8E2
:10049000185044BF18C918C0BDE810405FEA827CFC
:1004A00024BF51F8043B40F8043B08BF7047D20713
:1004B00028BF31F8023B48BF11F8012B28BF20F8B4
:1004C000023B48BF00F8012B70477047002801D05D
:1004D000FFF7BCBF7047000010B5002102A000F07C
:1004E00041F8012010BD0000534947414252543A9F
:1004F0002041626E6F726D616C207465726D696E01
:100500006174696F6E000000754600F04BF8AE46EE
:1005100005006946534620F00700854618B020B50F
:10052000FFF790FEBDE820404FF000064FF00007B7
:100530004FF000084FF0000B21F00701AC46ACE88B
:10054000C009ACE8C009ACE8C009ACE8C0098D46F8
:10055000704710B50446AFF300802046BDE8104058
:10056000FFF75BBE70B505460C460A2000E06D1C27
:1005700000F011F835B128780028F8D102E0641CA9
:1005800000F009F814B120780028F8D1BDE87040D7
:100590000A20AFF3008008B569468DF800000320FB
:1005A000ABBE08BD00487047C8020020FEE7704798
:1005B00072B6FEE72DE9F0410446876D00F04EF972
:1005C000064694F835000025022806D08020606594
:1005D00084F834500120BDE8F0812068016821F0E2
:1005E000160101602068416921F080014161206CA1
:1005F00008B9A06C20B12068016821F008010160F1
:100600002068016821F0010101600CE000F026F98A
:10061000801B052807D920206065032084F8350059
:1006200084F83450D7E720680068C007EED194F80A
:100630005C103F208840B860012084F8350084F8C1
:1006400034500020C7E790F83510022903D08021EC
:10065000416501207047052180F835100068016868
:1006600021F0010101600020704700002DE9F84FE2
:10067000DFF8BCA10022012503264FF00F090AF183
:10068000040BAAF1040E00BF0B6805FA02F4234024
:10069000A34270D10F7907F00307012F01D0022F79
:1006A00016D187684FEA420806FA08FC27EA0C07C9
:1006B000D1F80CC00CFA08FC4CEA070CC0F808C0D2
:1006C0004768A7430C79C4F3001494403C4344604A
:1006D0000C79E443A4070AD0C4684FEA420C06FA36
:1006E0000CF7BC438F6807FA0CF72743C7600C79F7
:1006F00004F00304022C12D1D40800EB840CDCF8C3
:1007000020405707FF0E09FA07F824EA0804D1F839
:10071000108008FA07F848EA0408CCF8208004683A
:100720004FEA420C06FA0CF7BC430F7907F00307B7
:1007300007FA0CF7274307604C6814F4403F70D069
:100740003C4C276847F480472760246822F0030761
:1007500004F480440094384C07EB040CDCF808489F
:1007600097074FEA177809FA08F7BC43334FB842A6
:1007700002D1002724E054E0314FB84201D10127D3
:100780001EE0304FB84201D1022719E02E4FB84287
:1007900001D1032714E02D4FB84201D104270FE007
:1007A0002B4FB84201D105270AE02A4FB84201D1A8
:1007B000062705E0284FB84201D1072700E00827A7
:1007C00007FA08F72743CCF80878DAF800405746CC
:1007D000D1F804C09C435FEACC2C00D51C433C609C
:1007E000DBF800405F46D1F804C09C435FEA8C2CE4
:1007F00000D51C433C60DEF800407746D1F804C0C9
:100800009C435FEA8C3C00D51C433C60084F083F8A
:100810003C68D1F804C09C435FEACC3C00D51C4343
:100820003C60521C102AFFF42FAFBDE8F88F000087
:10083000083C0140443802400030014000000240C2
:100840000004024000080240000C02400010024078
:100850000014024000180240001C02400148806859
:1008600070470000000000200248816802781144AF
:1008700081607047000000200B4810B5016841F40A
:1008800000710160016841F480610160016841F418
:1008900080710160032000F07BF80F2000F006F863
:1008A00000F024F8002010BD003C024070B50D4D52
:1008B00004464FF47A712878B1FBF0F00A490968D0
:1008C000B1FBF0F000F018FB48B9102C07D2002261
:1008D0002146501E00F03CF800206C6070BD0120E5
:1008E00070BD0000000000200C0000200A4808B580
:1008F000016841F480410160006800F4804000908C
:100900000548001F016841F080510160006800F057
:100910008050009008BD000044380240002809DBE8
:1009200000F01F02012191404009800000F1E02009
:10093000C0F880127047002809DB00F01F02012177
:1009400091404009800000F1E020C0F8001170479C
:10095000F0B40E4B1B680C46C3F30223C3F107052A
:10096000042D00D90425191D072901D2002300E018
:10097000DB1E012606FA05F1491E214099409E40E2
:10098000761E16403143F0BC00F0FFBF0CED00E0D6
:10099000064900F0070208684FF6FF03184040EAD6
:1009A0000220034A10430860704700000CED00E08D
:1009B0000000FA052DE9F0470E46050065D0DFF886
:1009C0001481D8F80000F7B200F00700B04207D257
:1009D00088F80070D8F8000000F00700B04254D149
:1009E00028683D4C810712D5400703D5206840F4A4
:1009F000E05020602878000703D5206840F460406C
:100A000020602068A96820F0F00008432060287862
:100A1000C0072DD0304968680839012812D0022853
:100A200013D0032811D00968890700292DDA21681D
:100A300021F0030101432160FFF710FF814641F2DD
:100A4000883A0EE009688903EFE709688901ECE755
:100A5000FFF704FFA0EB0901514502D90320BDE8CF
:100A6000F0872068696800F00C00B0EB810FEFD1CF
:100A7000D8F80010404601F00701B14207D90770CD
:100A8000006800F00700B04201D00120E7E72878B5
:100A9000400705D52068E96820F4E050084320604D
:100AA0002878000706D52068296920F4604040EACC
:100AB000C100206000F038F82168084AC1F3031132
:100AC000515CC8400649086006480068FFF7EEFE22
:100AD0000020C4E7003C024008380240D22700084A
:100AE0000C00002004000020044805490068096843
:100AF000044AC1F38221515CC84070470C000020B9
:100B000008380240E22700080448054900680968DF
:100B1000044AC1F34231515CC84070470C000020C8
:100B200008380240E2270008154810B5006810F0A8
:100B30000C02144813D01449042A0FD0082A0ED1ED
:100B40000F4C241F2268236802F03F025B0207D586
:100B50002068C0F38810A0FB010106E0084610BD24
:100B60002168C1F38811A1FB00010023FFF77CFB82
:100B70002168C1F30141491C4900B0FBF1F010BDEF
:100B8000083802400024F40040787D012DE9F84F38
:100B900004006ED02078DFF84C93C007A9F104055B
:100BA0004AD009F104000168C1F38101012908D08C
:100BB0000068C0F3810002280AD1D9F80000400281
:100BC00006D52868800337D560680028E1D033E077
:100BD0006068B0F5803F10D0B0F5A02F286810D025
:100BE00020F480302860286820F480202860606825
:100BF000A8B1FFF733FE06460DE0286840F48030C8
:100C0000F4E740F480202860F7E700BFFFF726FEF6
:100C1000801B642873D828688003F7D50CE0FFF7A1
:100C20001DFE064605E000BFFFF718FE801B642886
:100C3000F0D828688003F7D42078DFF8AC828007EA
:100C40004FF0000A3ED5A748001D016811F00C0FB7
:100C500008D00068C0F3810002280BD1D9F8000049
:100C6000400207D42868800716D5E068012800D123
:100C700012E033E1E068B8B10120C8F80000FFF7E6
:100C8000EDFD064605E000BFFFF7E8FD801B0228EA
:100C9000C0D828688007F7D52868216920F0F800B7
:100CA00040EAC10028600DE0C8F800A0FFF7D6FDBB
:100CB000064604E0FFF7D2FD801B02281FD82868F3
:100CC0008007F7D42078000722D5864F87486169CE
:100CD000703771B101210160FFF7C0FD064604E0E5
:100CE000FFF7BCFD801B022809D838688007F7D5BC
:100CF0000EE0C0F800A0FFF7B1FD064605E082E077
:100D0000FFF7ACFD801B02287DD838688007F7D438
:100D10002078400768D5DFF8CCB100270BF13C0BF9
:100D2000DBF80000C0000BD4DBF8001041F080516C
:100D3000CBF80010DBF80000012700F08050009095
:100D40006B4E3068C00510D4306840F4807030605D
:100D5000FFF784FD009005E0FFF780FD0099401A41
:100D6000022850D83068C005F6D55E4EA0686C36B3
:100D700001280FD00528306810D020F00100306025
:100D8000306820F004003060A068B8B1FFF766FD5D
:100D900000900FE0306840F00100F4E740F00400FC
:100DA0003060F7E7FFF75AFD0099411A41F28830A9
:100DB000814266D830688007F4D50EE0FFF74EFD1B
:100DC000009007E0FFF74AFD0099411A41F2883090
:100DD000814256D830688007F4D42FB1DBF8001078
:100DE00021F08051CBF80010A069C8B33D49091D1E
:100DF0000968C1F3810102294AD00228504607D070
:100E0000C8F8600000E03CE0FFF728FD04463BE046
:100E10004746C8F86000FFF721FD064605E000BF21
:100E2000FFF71CFD801B02282BD828688001F7D40F
:100E3000D4E907010843A16A2E4A490802EB01419F
:100E4000626A41EA8211084394F82C1040EA016179
:100E5000C9F8001001203866FFF700FD044606E0DF
:100E60003EE000BFFFF7FAFC001B022809D8286803
:100E70008001F7D534E000BFFFF7F0FC001B02282B
:100E800002D90320BDE8F88F28688001F4D427E058
:100E90000128F7D0D9F80000E26900F480019142FE
:100EA0001CD1226A00F03F01914217D147F6C07170
:100EB000626A0140B1EB821F10D1A26A4FF0FF338A
:100EC00000F4403103EB5202B1EB024F06D194F82B
:100ED0002C1000F07060B0EB016F01D00120D1E761
:100EE0000020CFE70438024000004742800E47420E
:100EF000007000400000FFFF10B5401EB0F1807F81
:100F000001D3012010BD4FF0E02460610F21601774
:100F100000F03BFD0020A06107202061002010BDF3
:100F200070B590F83C20012A32D0012480F83C4072
:100F3000022280F83D2003685A689D6822F07006FE
:100F40000A6832435A60134B02689A4214D0B2F1D5
:100F5000804F11D0104B9A420ED0104B9A420BD0BA
:100F60000F4B9A4208D00F4B9A4205D00E4B9A4233
:100F700002D00E4B9A4204D1496825F080031943F0
:100F8000916080F83D40002180F83C10084670BD1B
:100F9000022070BD00000140000400400008004035
:100FA000000C0040000401400040014000180040D7
:100FB00010B5040003D094F83D0010B107E0012003
:100FC00010BD002084F83C00204600F01FF80220ED
:100FD00084F83D00211D206800F00AFB012084F800
:100FE000460084F83E0084F83F0084F8400084F80E
:100FF000410084F8420084F8430084F8440084F8F7
:10100000450084F83D00002010BD000008B50068D0
:101010000B49884212D10B48016841F02001016060
:101020000068002200F02000009011463720FFF7F2
:101030008FFCBDE808403720FFF77DBC08BD0000ED
:10104000001400404038024070B5044690F83C005F
:101050000025012817D0012684F83C60022084F87E
:101060003D002068826822F0770222F47F4282608D
:101070000868502838D00DDC20284FD005DC90B30C
:10108000102811D14AE0022070BD302846D04028F7
:101090000AD13BE060282FD070280DD0B0F5805FDA
:1010A00003D0B0F5005F12D0012584F83D60002028
:1010B00084F83C00284670BDCB68D1E90121206846
:1010C00000F0FAFA2068816841F0770109E0CB6806
:1010D000D1E90121206800F0EFFA2068816841F42D
:1010E00080418160E1E719E0CA684968206800F042
:1010F000F5FA5021206806E0CA684968206800F0C7
:10110000FEFA6021206800F0E1FACEE7CA6849687B
:10111000206800F0E3FA40212068F4E722680146E5
:101120001046F0E770477047F8B501680446086854
:10113000CA684B6910F00F0F4FF0000559D003F04B
:10114000010602F49077374365D0C10705D0D10579
:1011500003D5216C41F001012164410705D5D90770
:1011600003D0216C41F002012164810705D5D90724
:1011700003D0216C41F004012164010707D502F07E
:101180002001314303D0216C41F008012164216C1E
:1011900000293AD0800604D5900602D5204600F0FA
:1011A000EFFA20684069216CC0F38010090700D471
:1011B00060B3204600F0BDFA20684069400621D5A2
:1011C0002068143050E8001F21F0400140E8001270
:1011D000002AF5D1A06BA8B16C490165A06BFFF79F
:1011E00032FA002811D0A06B016D01B0BDE8F040CB
:1011F000084783060FD593060DD52046BDE8F84075
:1012000000F0BEBA2046FFF78EFFF8BD2046FFF77C
:101210008AFF2564F8BD266B2023012E79D1C606EE
:1012200077D5D60675D508684868009048694006A5
:1012300040D5A16B086840680004000CEAD0A28D7C
:101240008242E7D9E085C869B0F5807F2DD020685B
:101250000C3050E8001F21F4807140E80012002A91
:10126000F5D12068143050E8001F21F0010140E85A
:101270000012002AF5D12068143050E8001F21F038
:10128000400140E80012002AF5D184F83E30256381
:1012900020680C3050E8001F21F0100140E80012D7
:1012A000002AF5D1A06BFFF785F9A08DE18D401ADA
:1012B00081B229E0A08DE18D401A81B2E08D002835
:1012C000A8D00029A6D020680C3050E8002F22F4C6
:1012D000907240E80026002EF5D12068143050E8C6
:1012E000002F22F0010240E80026002EF5D184F8FC
:1012F0003E30256320680C3050E8002F22F01002A9
:1013000040E80023002BF5D12046FFF70BFFF8BD86
:10131000FFE705062BD5150629D594F83D002128B1
:10132000F5D1A068B0F5805F01D12069B0B1206A25
:10133000411C2162216800784860E08C401E000456
:10134000000CE084E3D12068C16821F08001C16015
:101350002068C16841F04001C160D8E7206A008878
:10136000C0F308004860206A801C2062E5E7400660
:10137000CDD55006CBD5CA68204622F04002CA60BF
:1013800084F83D3000F075F8C1E70000231700082D
:1013900070B5040004D094F83D00002510B106E0BB
:1013A000012070BD84F83C50204600F023F8242032
:1013B00084F83D002068C16821F40051C1602046D6
:1013C00000F03EFA2068016921F490410161206833
:1013D000416921F02A0141612068C16841F400514E
:1013E000C1602564202084F83D0084F83E00002080
:1013F00070BD000010B586B0044614216846FEF7A3
:10140000FAFF18492068884229D11748002102684C
:1014100042F010020260006800F0100005901248CF
:101420001438026842F001020260006800F0010016
:1014300005904FF4C06000900220CDE90101032027
:1014400003900720049069460848FFF70FF900222F
:1014500011462520FFF77CFA2520FFF76CFA06B02D
:1014600010BD00000010014044380240000002405E
:1014700070477047FEE70000094808B5016841F071
:1014800080010160016801F080010091016841F074
:1014900001010160006800F00100009008BD00003B
:1014A000303802401CB500240E4800940C490194C9
:1014B000C0E900144FF6FF71C0E902418461FFF7F3
:1014C00077FD08B1FFF774F8009469460548019468
:1014D000FFF726FD002801D0FFF76AF81CBD0000C9
:1014E00000140040F40000200C4810B50A490160C7
:1014F0004FF4E1314160002181600C22C160C0E9FC
:1015000004128161C161FFF743FF002803D0BDE8E9
:101510001040FFF74DB810BD001001403C01002005
:10152000FEE7FEE770477047FFF79EB930B593B00E
:1015300030216846FEF75FFF14210CA8FEF75BFF21
:101540001D480025016841F080510160006800F0ED
:10155000805011901948016841F480410160006891
:10156000022400F480401190012003901020049088
:10157000009406940820CDE90750A820CDE909047D
:1015800004200B906846FFF701FB08B172B6FEE736
:101590000CA90F2081E831004FF4A0500F904FF4B8
:1015A0008050109005210CA8FFF704FA002801D004
:1015B00072B6FEE713B030BD403802400070004004
:1015C0000248016841F470010160704788ED00E055
:1015D000054800680169C90705D06FF00101016184
:1015E0000248006800477047F400002038000020DF
:1015F000F0B50268254C264D264E274F274B4FF05D
:10160000804CA04209D0604507D0A84205D0B04226
:1016100003D0B84201D0984204D122F0700E4A683B
:1016200042EA0E02A0421BD0604519D0A84217D052
:10163000B04215D0B84213D0984211D0184DA842EC
:101640000ED0184DA8420BD0174DA84208D0174D08
:10165000A84205D0164DA84202D0164DA84203D18B
:1016600022F44075CA682A434D6922F080022A4359
:1016700002608A68C2620A688262A04201D098420F
:1016800001D10969016301214161F0BD0000014000
:101690000004004000080040000C0040000401402D
:1016A0000040014000440140004801400018004053
:1016B000001C00400020004010B5846842EA03226C
:1016C00024F47F440A432243826010BD826822F0E2
:1016D00070020A4342F007018160704710B5036A47
:1016E000046A24F001040462846924F0F00444EAEA
:1016F000021423F00A020A438461026210BD10B58D
:10170000036A23F0100303628369046A23F47043BD
:1017100043EA023224F0A00343EA0111826101622C
:1017200010BD10B5806B0021C185C184FFF7FBFCA3
:1017300010BD01680C3151E8002F22F4907241E88D
:101740000023002BF5D10168143151E8002F22F05D
:10175000010241E80023002BF5D1016B012909D1D9
:1017600001680C3151E8002F22F0100241E80023FB
:10177000002BF5D1202180F83E1000210163704735
:1017800008B590F83E10222901D0022008BD8268D9
:101790004FF480539A4201D1016921B1816A9A4282
:1017A0001BD04AB10AE00268816A5268C2F308029B
:1017B0000A80816A891C08E0026972B10268526875
:1017C00002F07F020A70816A491C8162C18D491E44
:1017D0000904090CC18503D019E002685268F1E7D9
:1017E0000168CA6822F02002CA600168CA6822F44F
:1017F0008072CA6001684A6922F001024A612021B0
:1018000080F83E10016B012903D0FFF731FE002064
:1018100008BD0021016301680C3151E8002F22F05E
:10182000100241E80023002BF5D101680A68D206B6
:1018300002D50A6849680091818DFFF773FCE6E7DD
:1018400070B5044600680169E26821F44051114313
:1018500001612169A068E269084361691143084395
:101860002168CA6849F20C639A430243CA6020683F
:101870004169A26921F440711143416131492068F5
:10188000884202D03049884202D1FFF73DF901E099
:10189000FFF72AF9E2690023192164253226B2F5FF
:1018A000004F626828D0A0FB0101930F9200FEF761
:1018B000DBFC0146B0FBF5F06FF01802504301EB82
:1018C000800006EB0010B0FBF5F000F0F002B1FB79
:1018D000F5F002EB0012B1FBF5F06FF0180358437E
:1018E00001EB800006EB0010B0FBF5F000F00F00FC
:1018F00021681044886070BDA0FB010192185B4113
:10190000FEF7B2FC0146B0FBF5F00201B1FBF5F0C9
:101910006FF01803584301EB800006EBC000B0FBEA
:10192000F5F000F0F80002EB4002B1FBF5F058438F
:1019300001EB800006EBC000B0FBF5F000F0070003
:10194000D6E70000001001400014014010B50B4C18
:101950002068C068800602D5094800688047206872
:10196000C068000602D50748006880472520FEF7BA
:10197000D5FFBDE810400148FFF7D6BB3C01002071
:101980003000002034000020FEE70907090E00287F
:1019900004DB00F1E02080F80014704700F00F0035
:1019A00000F1E02080F8141D7047000070B5164665
:1019B0000846002472B60A21084DE9700722314614
:1019C00000F018FE012805D144F6206000F040FE2A
:1019D000012800D0032462B6204670BDBC00002060
:1019E0002DE9F041164688460746002572B60E4C92
:1019F000A088FF2801D9FEF7AEFCA088032804D3F5
:101A0000A188A06800F097FC20B1052562B62846A1
:101A1000BDE8F081A06810F8011B3970A188891E0B
:101A20003180C8F80000F1E7BC00002070B5034623
:101A3000002572B60F4C607818B1052562B62846AD
:101A400070BD491E0126E1600846E6800B70E18802
:101A50001144E180E18800F06EFC0146E088A26854
:101A60000244401CE080117026700121002000F02B
:101A700085FCE3E7BC00002010B572B60021012010
:101A800000F07CFC03490020487062B6BDE81040BD
:101A900000F0A0BDBC00002010B572B600210846C1
:101AA00000F06CFC00F082FC62B610BD70B5064D13
:101AB00000242878012802D00624204670BD286919
:101AC000804700202870F8E71000002070B50C4611
:101AD0000988002505292FD1417840F2CF760A02E6
:101AE00081781143C278491C1302027989B21A43E2
:101AF000531EB34220D200232380012300F8013B70
:101B00002688761C2680560703D003EBD203DEB26C
:101B100001E0C2F3C70600F8016B23885B1C238039
:101B2000002300F0F3FA18B100F0EBFB054604E0E7
:101B300020883044208000E00325284670BD70B521
:101B40000C460988002505292FD1417840F2CF762F
:101B50000A0281781143C278491C1302027989B2C2
:101B60001A43531EB34220D200232380022300F8DD
:101B7000013B23885B1C2380530704D0012303EB24
:101B8000D203DEB201E0C2F3C70600F8016B23887E
:101B90005B1C238000F008FB18B100F0B2FB054687
:101BA00004E020883044208000E00325284670BDF2
:101BB00070B50C4609880026052925D1417805799C
:101BC0000A0281781143491C6A1E89B27C2A1BD8FB
:101BD00000222280032200F8012B22880023521CBD
:101BE00022806A0000F8012B2288521C22802A469B
:101BF00000F01AFB18B100F084FB064605E02088CF
:101C000000EB4500208000E00326304670BD70B533
:101C10000C4609880026052927D1417805790A0252
:101C200081781143C278491C45EA02256A1E89B2AF
:101C30007C2A1AD200222280042200F8012B22885A
:101C4000521C22806A0000F8012B2288521C22803C
:101C50002A4600F015FB18B100F053FB064605E0DC
:101C6000208800EB4500208000E00326304670BD50
:101C70002DE9F0410446088800270D460A2842D382
:101C8000607826790102A078227A0843401C1FFA66
:101C900080F8E07846EA00266079731E0102A07998
:101CA0000843401C81B2E0797C2B42EA0022607A32
:101CB00028D83AB3792A25D8B0EB420F22D1012394
:101CC00004F10A0000F0B0FA98B900212980172128
:101CD00021702988601C491C2980710000F8011BB3
:101CE00029880023491C29803246414600F09CFA8D
:101CF00018B100F006FB074605E0288800EB460017
:101D0000288000E003273846BDE8F08170B5064C16
:101D10000D4606492288401CFEF728FB2088401CFF
:101D20002880002070BD0000CC0000208001002031
:101D300038B50988002405290BD141780A02817839
:101D40001143491C027989B21AB9C278FF2A03D01B
:101D500012B10324204638BD00228DF80120C0783E
:101D6000FF280CD08DF8002001231A46684600F0A9
:101D7000CDF90028EED000F0C4FA0446EAE70120CD
:101D80008DF80000F0E710B509880024052902D07D
:101D90000324204610BD417801230A028178C01C2B
:101DA0001143491C89B21A4600F03EFA0028F0D0CF
:101DB00000F0A7FA0446ECE72DE9F0410D4609884A
:101DC0000024052926D9417843790A0281781143F4
:101DD000491C8EB2C178027942EA0122510704D02F
:101DE000012101EBD201C9B201E0C2F3C701571EC4
:101DF000B7F5F66F0ED299420CD101233146801D02
:101E000000F084F918B100F07CFA044603E00520E4
:101E1000288000E003242046BDE8F08170B50D461F
:101E20000988002406291DD341780A0281781143CC
:101E3000C278491C1302027989B21A434379561EAB
:101E4000772E0FD85606360E9E420BD10123801DE9
:101E500000F0EAF918B100F054FA044603E0052056
:101E6000288000E00324204670BD00002DE9F041E9
:101E70001D46069B1746064641B1F72906D81E4C5B
:101E80000846217100211EB1012E15D002252EE039
:101E90001A4A22611A4A62611A4AE2601A4AC4E97D
:101EA00006211A4921621A4961621A49A1622A4629
:101EB000394600F099F812E0174A2261174A626128
:101EC000174AE260174AC4E90621174921621749F7
:101ED00061621749A1622A463946FFF767FD05008E
:101EE00005D100F06FFB28B16671012020702846F3
:101EF000BDE8F0810325FAE710000020D920000892
:101F0000F92000087D20000829200008C5260008C7
:101F10006D2700082D270008791A0008991A000873
:101F20002D1A0008E1190008E9230008FD24000823
:101F3000CD24000838B52B4C207808B1062038BDD8
:101F4000684600F031FB01284AD19DF80000E8B353
:101F5000012802D0022843D10FE0224AA369921D32
:101F6000911CC81F984788BB60782179884200D0AF
:101F700060BB022000F02EFB32E0A0680121194B6B
:101F80000278A270E170002113F12C0313F8315094
:101F900065B1954207D103EBC1014A681149891D1A
:101FA0009047E07002E0491C1029EFDB607868B1CF
:101FB000E07880B10021E180A17841F08002A16841
:101FC0000A70E288521C92B2E28000E008E0885475
:101FD000E088401CE080D4E90213E2882079984729
:101FE000002038BD1000002070B5154608460024BA
:101FF00072B60822294600F0FDFA01280DD1B5F588
:10200000964F01D9232003E006496800B1FBF0F0A8
:1020100080B200F01DFB012800D0032462B62046E8
:1020200070BD0000A07F17002DE9F04116468846DC
:102030000746002572B60F4CA088FF2801D9FEF78D
:102040008AF9A088042804D3A1880B4800F080F9FD
:1020500020B1052562B62846BDE8F0810648007823
:102060003870A088C01E30800348401CC8F80000AB
:10207000F0E70000D0000020A001002070B503466A
:10208000002572B6124C6078012803D0052562B68F
:10209000284670BD491E0126A160084666800B7067
:1020A000618811446180618800F052F96188094AB1
:1020B0005318491C61801870010A60880244401C52
:1020C0006080117026700121002000F057F9DEE7D2
:1020D000D0000020A001002010B572B600200549F4
:1020E00048700146012000F049F900F071F962B62C
:1020F00010BD0000D000002010B572B600210846C7
:1021000000F03CF900F052F962B610BDF0B5491E7E
:1021100089B28C180A2C01D90120F0BD541EE51794
:1021200004EB5575012404EBE5061E4D012B18D177
:10213000F4B213E010F8016B00230AE026FA03F76B
:1021400007F001076F54491C521E5B1C89B292B202
:10215000DBB20AB1082BF1D3641EE4B2002CE9D142
:102160001EE016F0FF061BD000273B4611E000BF23
:1021700015F801E0BEF1000F05D004FA03FC4CEAAB
:10218000070C0CF0FF07521E491C5B1C92B289B26F
:10219000DBB20AB1082BEBD300F8017B761EE0E737
:1021A0000020F0BDDC000020F0B5491E8CB2A11863
:1021B0000A2901D90120F0BD511ECB1701EB537143
:1021C000012505EBE101CEB216491BE000273B4695
:1021D00011E000BF11F804E0BEF1000F05D005FAD0
:1021E00003FC4CEA070C0CF0FF07521E641C5B1C3E
:1021F00092B2A4B2DBB20AB1082BEBD3761E00F880
:10220000017BF6B2002EE1D100200A5C3AB1002237
:102210000A54401C80B20A28F7D30020F0BD0122E6
:10222000F6E70000E600002010B5491E89B28C18C0
:102230000A2C01D9012010BD104C012B09D018E047
:1022400030F8023B5BBA24F81130491C521E89B2A7
:1022500092B2002AF4D10EE034F811301B0A00F8D3
:10226000013B14F81130491C521E00F8013B89B2A1
:1022700092B2002AF0D1002010BD0000B40200206C
:10228000491E10B58BB29C1810490A2C0FD9012099
:1022900010BD00BF31F81340240A00F8014B11F8BB
:1022A00013405B1C521E00F8014B9BB292B2002AF5
:1022B000F0D1002031F81020521C21F81020401CD1
:1022C00080B20A28F6D3002010BD0000A002002032
:1022D00008B5FEF7D1FAFFF729F9FFF7CDF8FFF7B8
:1022E00003F9FFF7DFF800204FF4165302460121EF
:1022F0000090FFF7BBFDFFF7D9FB00BFFFF71AFE09
:10230000FCE7002804D0012803D0072803D00420CC
:102310007047022070470620704710B5092801D881
:10232000303004E0A0F10A01052902D83730C0B2EC
:1023300010BDFEF710F8002203E010F8013B1A442C
:10234000D2B2491E89B2F8D25042C0B270470000E2
:1023500070B5094DFF231A4605F5807606E000BFEB
:1023600010F8014B54402A5D5A40335D491E89B232
:10237000F6D242EA032070BDEA2700080A4B002883
:102380001A68D06802D040F0200001E020F0200060
:10239000D06018680029C16802D041F0800101E0D6
:1023A00021F08001C16070473C01002007480068AF
:1023B000016A41F21112114207D1016A92101142D1
:1023C00003D1016821F0010101607047F400002091
:1023D00004480021026851620068016841F001016F
:1023E00001607047F4000020F8B5374C00272078D2
:1023F00008B1FDF7B0FF684600F0F4F860780025FA
:10240000012670B3012802D002285AD139E0FFF723
:10241000DFFF9DF800003A2807D00D2808D0A0F172
:102420003001092907D8C8B20DE0A570A58048E0A1
:102430000220607045E0A0F14101052902D837383B
:10244000C0B200E0FF20A17811B1012939D10DE01F
:10245000A188FF2906D8A288A16800018854A67027
:102460002FE025E06570FFF7A1FF2AE0A288A168B0
:1024700011440A7802430A70A088401CA080A5700D
:102480001FE09DF80000E178884207D1FFF78EFF3A
:102490006570012000F09EF8074612E03A2801D04E
:1024A00065700EE0A570A5806670FFF791FF08E0EB
:1024B0009DF800003A2804D1FFF78AFFA580A57097
:1024C00066703846F8BD0000BC0000200A4810B510
:1024D0004178012909D0022907D04178012906D085
:1024E0004078022803D0FDF736FF00214170FFF746
:1024F0005DFF002010BD0000BC00002070B5294C1D
:102500000026607808B1FDF726FF20780025052811
:1025100046D2DFE800F041030A3136003A2000F0ED
:1025200091F802202070A5703AE0E088F0B1A1781F
:102530001C48C06811B1012932D108E000780009B7
:10254000FFF7EBFE00F07EF80120A07028E0007895
:1025500000F00F00FFF7E1FE00F074F8E068401CA7
:10256000E060A570E088401EE08019E00D2000F0DA
:1025700069F80320207013E0E07800F063F804208D
:10258000F8E72570032000F025F806460021012019
:10259000FFF7F4FE257003E000210120FFF7EEFEB7
:1025A000304670BDBC0000200549024600204B7833
:1025B000002B04D00878107000204870012070476C
:1025C000F000002002490020487001207047000000
:1025D000F0000020024901224A700870104670473E
:1025E000F000002002494968017001207047000096
:1025F00000100140124810B5104AC0E90021002126
:102600000C22C160C0E905214FF48052C161012B49
:1026100009D0022B0AD0016181600948FEF7B8FE9B
:1026200048B1002010BD4FF4C06101E04FF480615B
:1026300082600161F1E7012010BD0000001001403F
:102640003C01002001494860012070470010014012
:1026500030B587B000251A4C009501950295039579
:10266000049516490595216042F2CF01401E616034
:10267000C4E9025025612046A561FEF799FC70B9B6
:102680004FF48050009069462046FEF7DDFC30B9DB
:10269000049504A920460595FEF742FC10B10020E0
:1026A00007B030BD21686FF0010008612068C16883
:1026B00041F00101C1600120F2E700000014004078
:1026C000F400002038B5174C0025207808B1FDF73C
:1026D00042FE6846FFF786FF607830B1124A012853
:1026E00007D0022810D0032801D1FFF771FE284639
:1026F00038BD0020A0809DF80000A1880A44491C34
:10270000A180107002200BE0A088FF2807D89DF858
:102710000010A0880244401CA0801170E5E703204F
:102720006070E2E7D0000020A001002070B50E4DDF
:102730000024687870B102280BD003280DD0687887
:1027400058B16878022808D06878032805D0FDF7CA
:1027500002FE0120FFF73EFF0446FFF727FE01209F
:102760006870204670BD0000D000002070B5154C88
:1027700000256078012801D0FDF7EDFD207810B12B
:1027800001281CD104E000210120FFF7F7FD16E02D
:10279000608850B1A0680078FFF754FFA068401C23
:1027A000A0606088401E608009E00320FFF712FFF0
:1027B000054600210120FFF7E1FD0020207028469A
:1027C00070BD0000D00000204FF04070E1EE100A14
:1027D000704700000000000000000102030406072B
:1027E0000809000000000102030400C1814001C08B
:1027F000804101C0804100C1814001C0804100C1D1
:10280000814000C1814001C0804101C0804100C1C0
:10281000814000C1814001C0804100C1814001C0B0
:10282000804101C0804100C1814001C0804100C1A0
:10283000814000C1814001C0804100C1814001C090
:10284000804101C0804100C1814000C1814001C080
:10285000804101C0804100C1814001C0804100C170
:10286000814000C1814001C0804101C0804100C160
:10287000814000C1814001C0804100C1814001C050
:10288000804101C0804100C1814000C1814001C040
:10289000804101C0804100C1814001C0804100C130
:1028A000814000C1814001C0804100C1814001C020
:1028B000804101C0804100C1814001C0804100C110
:1028C000814000C1814001C0804101C0804100C100
:1028D000814000C1814001C0804100C1814001C0F0
:1028E000804101C0804100C1814000C0C101C303DB
:1028F00002C2C60607C705C5C404CC0C0DCD0FCF58
:10290000CE0E0ACACB0BC90908C8D81819D91BDBC7
:10291000DA1A1EDEDF1FDD1D1CDC14D4D515D71717
:1029200016D6D21213D311D1D010F03031F133F3C7
:10293000F23236F6F737F53534F43CFCFD3DFF3F17
:102940003EFEFA3A3BFB39F9F83828E8E929EB2B47
:102950002AEAEE2E2FEF2DEDEC2CE42425E527E7D7
:10296000E62622E2E323E12120E0A06061A163A347
:10297000A26266A6A767A56564A46CACAD6DAF6FD7
:102980006EAEAA6A6BAB69A9A86878B8B979BB7B47
:102990007ABABE7E7FBF7DBDBC7CB47475B577B797
:1029A000B67672B2B373B17170B0509091519353C7
:1029B000529296565797559594549C5C5D9D5F9F97
:1029C0009E5E5A9A9B5B99595898884849894B8BC7
:1029D0008A4A4E8E8F4F8D4D4C8C44848545874757
:1029E0004686824243834181804000000C2A0008D1
:1029F00000000020F4000000C4010008002B0008C3
:102A0000F400002034080000E0010008010000008C
:102A100010000000000000000024F400020000008C
:102A200000000000000000000000000000000000A6
:102A30000000000000000000000000000000000096
:102A40000000000000000000110000000D1D000843
:102A5000040000000F1C000803000000B11B000868
:102A6000100000001D1E000806000000871D000861
:102A700017000000711C000801000000CD1A0008BA
:102A800005000000311D00080F000000B91D0008FE
:102A9000020000003F1B00080000000000000000D2
:102AA0000000000000000000000000000000000026
:102AB0000000000000000000000000000000000016
:102AC0000000000000000000000000000000000006
:102AD000A001002000000000000000000000000035
:102AE00000000000000000000101010100000000E2
:102AF00001010101010100000000010100000000CE
:040000050800018965
:00000001FF
