:020000040800F2
:100000008006002029020008D71200089D0C000875
:10001000D51200081F040008851300080000000026
:10002000000000000000000000000000DB120008DB
:100030002104000800000000D9120008DD120008A9
:10004000430200084302000843020008430200087C
:10005000430200084302000843020008430200086C
:10006000430200084302000843020008430200085C
:10007000430200084302000843020008430200084C
:10008000430200084302000843020008430200083C
:10009000430200084302000843020008430200082C
:1000A000430200084302000843020008430200081C
:1000B000430200084302000843020008430200080C
:1000C00043020008430200084302000843020008FC
:1000D00043020008430200084302000843020008EC
:1000E00043020008430200084302000843020008DC
:1000F00043020008430200084302000843020008CC
:1001000043020008430200084302000843020008BB
:1001100043020008430200084302000843020008AB
:10012000430200084302000843020008430200089B
:100130004302000800000000000000004302000825
:10014000430200084302000843020008430200087B
:10015000430200084302000843020008430200086B
:10016000430200084302000843020008430200085B
:1001700043020008430200080000000000000000E5
:10018000430200084302000800F002F800F03CF8C7
:100190000AA090E8000C82448344AAF10107DA45E2
:1001A00001D100F031F8AFF2090EBAE80F0013F0F8
:1001B000010F18BFFB1A43F0010318477C19000018
:1001C0009C190000103A24BF78C878C1FAD85207A9
:1001D00024BF30C830C144BF04680C6070470000C1
:1001E0000023002400250026103A28BF78C1FBD840
:1001F000520728BF30C148BF0B6070471FB501F0E0
:1002000089FC1FBD10B510BD00F0CFF81146FFF7F7
:10021000F5FF01F0D1F800F0EDF803B4FFF7F2FFBD
:1002200003BC00F0F5F80000094880470948004782
:10023000FEE7FEE7FEE7FEE7FEE7FEE7FEE7FEE796
:10024000FEE7FEE704480549054A064B70470000F3
:100250007513000889010008800000208006002036
:10026000800200208002002053EA020C00F0698026
:100270002DE9F04B4FF00006002B1FBFB3FA83F5BA
:1002800003FA05F424FA05F65E4012BF1643B2FAEB
:1002900082F502FA05F4C5F120051EBF22FA05FC1D
:1002A00044EA0C04203556EA044C4FEA144418BFC3
:1002B000641C4FF000084FF00009904271EB030CF2
:1002C00039D3002919BFB1FA81F701FA07F6B0FA5C
:1002D00080F700FA07F6C7F120071EBF20FA07FCD7
:1002E00046EA0C062037B6FBF4FCA7EB0507103FE7
:1002F00007F01F0BCBF120060CFA0BFB2CFA06F6CD
:1003000044BFB3460026202FA4BF5E464FF0000B2B
:100310005BEA060C08BF4FF0010B19EB0B09ABFBB6
:10032000027C48EB0608C01B06FB02CC0BFB03CC8F
:1003300071EB0C01C1E70B46024641464846BDE859
:10034000F08B13B54FF000004FF00001AFF30080C9
:10035000BDE81C4070474FF0000200B513469446BC
:100360009646203922BFA0E80C50A0E80C50B1F10D
:100370002001BFF4F7AF090728BFA0E80C5048BF21
:100380000CC05DF804EB890028BF40F8042B08BFBF
:10039000704748BF20F8022B11F0804F18BF00F8BB
:1003A000012B7047704770477047754600F02CF876
:1003B000AE4605006946534620F00700854618B052
:1003C00020B5FFF73FFFBDE820404FF000064FF09B
:1003D00000074FF000084FF0000B21F00701AC467A
:1003E000ACE8C009ACE8C009ACE8C009ACE8C00999
:1003F0008D46704710B50446AFF300802046BDE837
:100400001040FFF70ABF000000487047200000209E
:1004100001491820ABBEFEE7260002007047FEE748
:100420007047000070B5044600F010F90546601CE6
:1004300002D004480078044400F008F9401BA042B0
:10044000FAD370BD000000202DE9F84FDFF8BCA101
:100450000022012503264FF00F090AF1040BAAF12F
:10046000040E00BF0B6805FA02F42340A34270D1CA
:100470000F7907F00307012F01D0022F16D18768EB
:100480004FEA420806FA08FC27EA0C07D1F80CC02C
:100490000CFA08FC4CEA070CC0F808C04768A743F0
:1004A0000C79C4F3001494403C4344600C79E44359
:1004B000A4070AD0C4684FEA420C06FA0CF7BC4302
:1004C0008F6807FA0CF72743C7600C7904F0030420
:1004D000022C12D1D40800EB840CDCF82040570722
:1004E000FF0E09FA07F824EA0804D1F8108008FA88
:1004F00007F848EA0408CCF8208004684FEA420C68
:1005000006FA0CF7BC430F7907F0030707FA0CF75C
:10051000274307604C6814F4403F70D03C4C276878
:1005200047F480472760246822F0030704F48044DE
:100530000094384C07EB040CDCF8084897074FEAA6
:10054000177809FA08F7BC43334FB84202D10027A5
:1005500024E054E0314FB84201D101271EE0304F72
:10056000B84201D1022719E02E4FB84201D103272A
:1005700014E02D4FB84201D104270FE02B4FB842B1
:1005800001D105270AE02A4FB84201D1062705E02C
:10059000284FB84201D1072700E0082707FA08F7DB
:1005A0002743CCF80878DAF800405746D1F804C061
:1005B0009C435FEACC2C00D51C433C60DBF8004038
:1005C0005F46D1F804C09C435FEA8C2C00D51C43E5
:1005D0003C60DEF800407746D1F804C09C435FEAF7
:1005E0008C3C00D51C433C60084F083F3C68D1F868
:1005F00004C09C435FEACC3C00D51C433C60521CC9
:10060000102AFFF42FAFBDE8F88F0000083C01402E
:100610004438024000300140000002400004024023
:1006200000080240000C024000100240001402408A
:1006300000180240001C02400069084000D0012060
:1006400070470AB1816170470904FBE7014880687F
:1006500070470000000000200248816802781144C1
:1006600081607047000000200B4810B5016841F41C
:1006700000710160016841F480610160016841F42A
:1006800080710160032000F061F80F2000F006F88F
:1006900000F024F8002010BD003C024070B50D4D64
:1006A00004464FF47A712878B1FBF0F00A490968E2
:1006B000B1FBF0F000F0DEFA48B9102C07D20022AE
:1006C0002146501E00F022F800206C6070BD012011
:1006D00070BD0000000000200C0000200A4808B592
:1006E000016841F480410160006800F4804000909E
:1006F0000548001F016841F080510160006800F06A
:100700008050009008BD000044380240F0B40E4B09
:100710001B680C46C3F30223C3F10705042D00D95F
:100720000425191D072901D2002300E0DB1E012644
:1007300006FA05F1491E214099409E40761E16405A
:100740003143F0BC00F01FBE0CED00E0064900F0A4
:10075000070208684FF6FF03184040EA0220034AE8
:1007600010430860704700000CED00E00000FA053F
:100770002DE9F0470E46050065D0DFF81481D8F862
:100780000000F7B200F00700B04207D288F800700E
:10079000D8F8000000F00700B04254D128683D4C62
:1007A000810712D5400703D5206840F4E05020604F
:1007B0002878000703D5206840F460402060206856
:1007C000A96820F0F000084320602878C0072DD0E9
:1007D000304968680839012812D0022813D003284C
:1007E00011D00968890700292DDA216821F0030159
:1007F00001432160FFF72AFF814641F2883A0EE06B
:1008000009688903EFE709688901ECE7FFF71EFF34
:10081000A0EB0901514502D90320BDE8F08720680B
:10082000696800F00C00B0EB810FEFD1D8F8001030
:10083000404601F00701B14207D90770006800F097
:100840000700B04201D00120E7E72878400705D52E
:100850002068E96820F4E050084320602878000709
:1008600006D52068296920F4604040EAC100206074
:1008700000F018F82168084AC1F30311515CC84020
:100880000649086006480068FFF708FF0020C4E733
:10089000003C024008380240281B00080C000020E1
:1008A00004000020154810B5006810F00C02144830
:1008B00013D01449042A0FD0082A0ED10F4C241F3C
:1008C0002268236802F03F025B0207D52068C0F36C
:1008D0008810A0FB010106E0084610BD2168C1F3A5
:1008E0008811A1FB00010023FFF7BEFC2168C1F3C2
:1008F0000141491C4900B0FBF1F010BD083802402D
:100900000024F40040787D012DE9F84F04006ED0FA
:100910002078DFF84C93C007A9F104054AD009F10B
:1009200004000168C1F38101012908D00068C0F307
:10093000810002280AD1D9F80000400206D52868B3
:10094000800337D560680028E1D033E06068B0F5F7
:10095000803F10D0B0F5A02F286810D020F4803050
:100960002860286820F4802028606068A8B1FFF71C
:100970006DFE06460DE0286840F48030F4E740F450
:1009800080202860F7E700BFFFF760FE801B642827
:1009900073D828688003F7D50CE0FFF757FE0646AA
:1009A00005E000BFFFF752FE801B6428F0D82868DE
:1009B0008003F7D42078DFF8AC8280074FF0000A7C
:1009C0003ED5A748001D016811F00C0F08D0006843
:1009D000C0F3810002280BD1D9F80000400207D4EF
:1009E0002868800716D5E068012800D112E033E1BD
:1009F000E068B8B10120C8F80000FFF727FE0646FE
:100A000005E000BFFFF722FE801B0228C0D828683F
:100A10008007F7D52868216920F0F80040EAC10076
:100A200028600DE0C8F800A0FFF710FE064604E0BD
:100A3000FFF70CFE801B02281FD828688007F7D418
:100A40002078000722D5864F87486169703771B1D9
:100A500001210160FFF7FAFD064604E0FFF7F6FD0D
:100A6000801B022809D838688007F7D50EE0C0F847
:100A700000A0FFF7EBFD064605E082E0FFF7E6FD8C
:100A8000801B02287DD838688007F7D4207840077B
:100A900068D5DFF8CCB100270BF13C0BDBF8000088
:100AA000C0000BD4DBF8001041F08051CBF80010EF
:100AB000DBF80000012700F0805000906B4E30689A
:100AC000C00510D4306840F480703060FFF7BEFD80
:100AD000009005E0FFF7BAFD0099401A022850D8AF
:100AE0003068C005F6D55E4EA0686C3601280FD080
:100AF0000528306810D020F001003060306820F008
:100B000004003060A068B8B1FFF7A0FD00900FE0CE
:100B1000306840F00100F4E740F004003060F7E78F
:100B2000FFF794FD0099411A41F28830814266D85E
:100B300030688007F4D50EE0FFF788FD009007E0ED
:100B4000FFF784FD0099411A41F28830814256D85E
:100B500030688007F4D42FB1DBF8001021F0805109
:100B6000CBF80010A069C8B33D49091D0968C1F35D
:100B7000810102294AD00228504607D0C8F86000F7
:100B800000E03CE0FFF762FD04463BE04746C8F862
:100B90006000FFF75BFD064605E000BFFFF756FD6E
:100BA000801B02282BD828688001F7D4D4E90701DC
:100BB0000843A16A2E4A490802EB0141626A41EAF0
:100BC0008211084394F82C1040EA0161C9F8001022
:100BD00001203866FFF73AFD044606E03EE000BF1C
:100BE000FFF734FD001B022809D828688001F7D5DB
:100BF00034E000BFFFF72AFD001B022802D90320C2
:100C0000BDE8F88F28688001F4D427E00128F7D0E8
:100C1000D9F80000E26900F4800191421CD1226AF7
:100C200000F03F01914217D147F6C071626A01405E
:100C3000B1EB821F10D1A26A4FF0FF3300F44031B4
:100C400003EB5202B1EB024F06D194F82C1000F0E6
:100C50007060B0EB016F01D00120D1E70020CFE739
:100C60000438024000004742800E474200700040B6
:100C70000000FFFF10B5401EB0F1807F01D30120BE
:100C800010BD4FF0E02460610F21601700F07BFB86
:100C90000020A06107202061002010BDFEE77CB588
:100CA00014460D4606466B4606223B21682000F09E
:100CB00003FA002814D19DF800109DF8012042EAA3
:100CC000012131809DF802109DF8032042EA0121A4
:100CD00029809DF804109DF8052042EA0121218019
:100CE0007CBD7CB514460D4606466B460622432164
:100CF000682000F0E1F9002814D19DF800109DF85B
:100D0000012042EA012131809DF802109DF8032064
:100D100042EA012129809DF804109DF8052042EA4D
:100D2000012121807CBD000008B56B4602224121D3
:100D3000682000F0C1F9BDF8000040BA00B200F030
:100D400093FD9FED0D1B53EC112B00F035FC9FED37
:100D50000C1B53EC112B00F087FB00F053FB00EE53
:100D6000100ADFED090A20EE200ABDEEC00A10EEDF
:100D7000100A00B208BD00000000000000407540ED
:100D8000A4703D0AD74342400000C84270B5104DE0
:100D90004FF48064002221462846FFF752FC00F001
:100DA000E3F9002261002846FFF74BFC1E2000F00B
:100DB000FAFA012221462846FFF743FC1E2000F0E4
:100DC000F2FA21462846BDE870400022FFF739BC00
:100DD0000004024010B5064C0122D1022046FFF764
:100DE00030FC20460122BDE810409102FFF729BCEB
:100DF0000004024070B5104D4FF48064002221467B
:100E00002846FFF71EFC00F0AFF90122D102284668
:100E1000FFF717FC1E2000F0C6FA012221462846E3
:100E2000FFF70FFC1E2000F0BEFA21462846BDE861
:100E300070400022FFF705BC000402402DE9F04796
:100E40008046002400F06AF9174F00254FF48066B1
:100E50004FF40069002231463846FFF7F2FB1E20AE
:100E600000F0A1FA012231463846FFF7EAFB60069E
:100E7000040E49463846FFF7DFFB012801D1641C08
:100E8000E4B21E2000F08FFA6D1CEDB2082DE1D304
:100E9000B8F1000F04D0FFF779FF2046BDE8F087D6
:100EA000FFF7A8FFF9E70000000402402DE9F04138
:100EB000054600F059F9164F4FF48066002231467E
:100EC0003846FFF7BEFB00244FF40068280601D522
:100ED000012200E0002241463846FFF7B2FB6806D7
:100EE000050E012231463846FFF7ABFB1E2000F00D
:100EF0005AFA002231463846FFF7A3FB1E2000F0C5
:100F000052FA641CE4B2082CE0D3BDE8F081000082
:100F10000004024070B500F027F901220E4DD40202
:100F200021462846FFF78DFB0122960231462846CE
:100F3000FFF787FB1E2000F036FA002221462846E4
:100F4000FFF77FFB1E2000F02EFA31462846BDE851
:100F500070400022FFF775BB0004024070B500F03E
:100F600003F9104D4FF40064002221462846FFF794
:100F700068FB0122960231462846FFF762FB1E20DD
:100F800000F011FA012221462846FFF75AFB012200
:100F900031462846FFF755FBBDE870401E2000F0A3
:100FA00002BA0000000402402DE9F04100F0B6F85A
:100FB0000122144D970239462846FFF742FB1E20B6
:100FC00000F0F1F90122D60231462846FFF739FB3D
:100FD0001E2000F0E8F908E0641CE4B2FA2C04D901
:100FE000FFF7BCFF0120BDE8F08131462846FFF73E
:100FF00023FB0128F0D0002239462846FFF721FBC9
:101000000020F0E70004024010B5FFF7E3FE802166
:101010006B2000F008F96420FFF704FA00216B2030
:1010200000F001F9032000F0CAF8012000F0C2F836
:10103000322000F0E1F80021382000F0F4F800211F
:101040006A2000F0F0F80021232000F0ECF8802165
:10105000372000F0E8F8752000F011F8682801D07A
:10106000012010BD01216B2000F0DDF800216C2073
:1010700000F0D9F8322000F0BFF8002010BD10B504
:101080000446FFF747FFD020FFF710FFFFF78CFF64
:101090002046FFF70BFFFFF787FFFFF73BFFD1204D
:1010A000FFF704FFFFF780FF0020FFF7C7FE0446AD
:1010B000FFF754FF204610BD2DE9F0411D461446B0
:1010C0000F460646FFF726FF7006000EFFF7EEFEFE
:1010D000FFF76AFF20B1FFF741FF0120BDE8F08173
:1010E0003846FFF7E3FEFFF75FFFFFF713FFD1205E
:1010F000FFF7DCFEFFF758FF08E0012C0CD00120C1
:10110000FFF79CFE641E05F8010BE4B2002CF4D13D
:10111000FFF724FF0020E1E70020F1E770B586B07B
:1011200014216846FFF717F90D480024016841F0C3
:101130000201016000680B4E00F002004FF40065F0
:101140000590224629463046FFF77BFACDE9005448
:101150000294694630460394FFF776F906B070BDF5
:10116000303802400004024070B586B01421684651
:10117000FFF7F1F80D480025016841F00201016018
:1011800000680B4E00F002004FF4006405902A4600
:1011900021463046FFF755FA0120CDE90040694667
:1011A00002953046FFF750F906B070BD3038024066
:1011B00000040240C006010E1C2000F034B8C00636
:1011C000010E1B2000F02FB8BC2801D3012110E034
:1011D000622801D302210CE02A2801D3032108E070
:1011E000142801D3042104E00A2801D3052100E0DA
:1011F00006211A2000F017B810B504464FF47A7093
:10120000844201D9044602E0042C00D20424B0FB3D
:10121000F4F0401EC1B2192000F005F86008BDE8E6
:101220001040FFF7D1BF70B50C460546FFF772FEC0
:10123000D020FFF73BFEFFF7B7FE50B92846FFF777
:1012400035FEFFF7B1FE2046FFF730FEFFF7ACFE9C
:1012500018B1FFF783FE012070BDFFF77FFE00206D
:1012600070BD000070B586B014216846FFF773F8B2
:1012700016480024016841F080010160016801F016
:1012800080010591016841F002010160016801F0EF
:1012900002010591016841F00101016000680C4EF6
:1012A00000F001004FF440650590002229463046C9
:1012B000FFF7C7F901200095CDE9010469463046E2
:1012C0000394FFF7C1F806B070BD0000303802404B
:1012D00000040240FEE7FEE770477047FFF7BCB925
:1012E00030B593B030216846FFF735F814210CA8CB
:1012F000FFF731F81D480025016841F08051016079
:10130000006800F0805011901948016841F4804154
:1013100001600068022400F48040119001200390D5
:1013200010200490009406940820CDE90750A820CE
:10133000CDE9090404200B906846FFF7E5FA08B1EF
:1013400072B6FEE70CA90F2081E831004FF4A050DF
:101350000F904FF48050109005210CA8FFF708FA69
:10136000002801D072B6FEE713B030BD403802400D
:10137000007000400248016841F47001016070474C
:1013800088ED00E0FEE70907090E002804DB00F104
:10139000E02080F80014704700F00F0000F1E0201A
:1013A00080F8141D7047A821484380B200BF401E3A
:1013B00080B2FBD270470000FFF756F9FFF790FFAD
:1013C000FFF750FFFFF720FE0D4C642704F10A06DB
:1013D000B6F10205FFF7A8FC90FBF7F000EE100A4B
:1013E000221DA11CB8EEC00A054884ED030AFFF7D0
:1013F00078FC32462946A01DFFF751FCEAE70000C1
:101400001000002021F00042A2F16052B2F5801FCE
:1014100001F0004328BFD2F17F6C0BD95FEA001CBA
:1014200043EAC20242EB507018BF704728BF20F059
:1014300001007047B2F5801FBCBF184670474FEAE5
:10144000410C1CF5001F02D2084600F068BB70B5C5
:1014500000F021FA00000089FFF7F6BF4FF00040CE
:10146000A0F580007047000010B591EA030F48BF57
:1014700083F0004300F16C82841A71EB030C05D2F7
:10148000121943EB0C03001B61EB0C01DFF824E1A4
:101490004FEA1154A4EB135C1EEA430F18BF9EEAF7
:1014A000445F73D023EA0E03DCF1200E21EA0451DD
:1014B00043F4801332D322FA0CFE10EB0E0023FA11
:1014C0000CFE41EB0E01CCF1200E03FA0EFE10EBE8
:1014D0000E0051F10001B1F5801FCCF1200E32D287
:1014E00001EB045112FA0EF2BDE8104058BF7047EC
:1014F000401C38BF5FEA420218BF7047002814BF83
:1015000020F0010041F100014FEA410313F5001FF3
:1015100038BF7047A1F1C04100F00BBA012A43EB7C
:101520000302ACF1200CDCF11F0E32BF4FF0000EB5
:1015300023FA0CF310EB030041EB0451B4EB115F01
:10154000D0D0A1EB045101F5801149085FEA3000C9
:1015500001EB04510ED350F1000038BF12FA0EFE19
:1015600008D1BDE81040C9E7401C38BF5FEA42021D
:10157000CAD1C3E7BDE810404FEA410313F5001F8D
:1015800038BF7047A1F1C04100F0D3B99EEA445F73
:1015900008D011EA5E0FBDE8104004BF01F0004121
:1015A00000207047BDE8104070B500F074F900BF2E
:1015B00064FBBE3E0000E0FF2DE9C04130B4DFF81F
:1015C000A0C23CEA111418BF3CEA131400F0EC80EE
:1015D00081EA03051CEA111444EAD57418BF1CEA19
:1015E000131500F0C780A4EB05044FF0004545EA51
:1015F000C12145EAC32341EA505143EA525304F161
:101600007F74994204F500344FEAC0204FEAC222A9
:1016100008BF904200F09C804FEA13650FF240161D
:10162000765D4FEA134506FB05F7C7F1807706FBA9
:1016300007F74FEAD737A7FB03687642C8F580382B
:10164000A7FB06CE38BFA8F1010807FB08E64FF05C
:10165000000EA6FB028CE6FB03CEDCF1000CCEF103
:10166000004E38BFAEF1010EA6FB0C584FF000073C
:101670004FF00005E6FB0E87A1FB08C6A0FB07CED6
:1016800016EB0E0645F10005E1FB076515F1E04E8E
:101690007EBFA4F580345FEA46066D4116F18007EF
:1016A00045F100054FEA17274FEA066647EA056746
:1016B000A6F1DE46B6F1805F4FEA15251FD9384600
:1016C00024F0010C05EBC471BCF1FE6F01EB0C11B1
:1016D00002D8F0BCBDE8008124425CBF01F5801E49
:1016E0009EEAC47F02D4F0BCBDE80081244238D415
:1016F000F0BCA1F1C041BDE8004100F01AB94FEAC9
:10170000D22242EA43524FEAD323A7FB02864FEA92
:10171000D02040EA415007FB03661EEA0E0F4FEA55
:10172000D12105FB026658BFA6EB0056B6EB00566A
:101730004FEA520E4EEAC37E18EB0E0E56EB530ED6
:10174000BDD518EB02085E417F1C55F10005B6E7D8
:101750004FF480154FF000074FF000064FF00008DF
:10176000ADE7F0BC4FF0000001F1C04101F00041D5
:10177000BDE8008111EA0C1F0CEA131500D00CE043
:1017800013EA0C1F00F025804FF00000F0BC81EA46
:10179000030101F00041BDE80081F0BCBDE800415B
:1017A00081EA030100F0C5B8F0BCBDE8004170B5A6
:1017B00000F071F8097EFC3E00F007B881EA0301F1
:1017C0004FF0000001F00041704781EA030100F092
:1017D000B0B8F0BCBDE800414FF0000021497047AF
:1017E000FFFDFBF9F7F5F4F2F0EEEDEBE9E8E6E4E6
:1017F000E3E1E0DEDDDBDAD8D7D5D4D3D1D0CFCD6D
:10180000CCCBCAC8C7C6C5C4C2C1C0BFBEBDBCBBA5
:10181000BAB9B8B7B6B5B4B3B2B1B0AFAEADACABA0
:10182000AAA9A8A8A7A6A5A4A3A3A2A1A09F9F9E7A
:101830009D9C9C9B9A99999897979695959493932C
:10184000929191908F8F8E8E8D8C8C8B8B8A8989C3
:101850008888878786858584848383828281818046
:101860000000FF070000F87F10F0004248BF404230
:10187000B0FA80F310FA03F10AD0C3F11D0303F5A7
:1018800080634FEA415002EB035202EBD1217047D3
:101890004FF0000070470EF1020E2EF0030E5EF8BE
:1018A000046B364205D4012A43EB030515F5001FEE
:1018B00012D8012841EB010C1CF5001F0CD80ED1E9
:1018C0004FEAD17C15F5001F0CEB4C0C0CF1020C0F
:1018D00008BF4CEBD37C04E04FF0080C01E04FEA6A
:1018E000D37C0CEB4C0526FA05F606F00706B6F19C
:1018F000040C06D20EEB860CBDE870404CF0010CD7
:101900006047DFE80CF0090B02024FF000414FF096
:101910000000A1F5002170BD19461046012851EBC9
:10192000010418BFD4F5001484BF002001F0004169
:1019300070BD0808A0F500114FEA310170470000A2
:1019400010B591EA030F48BF83F000433FF594AD13
:10195000841A71EB030C07D212198CF0004C43EB84
:101960000C03001B61EB0C01DFF8A4E14FEA1154FA
:10197000A4EB135C1EEA430F18BF9EEA445F00F01D
:10198000B08023EA6E03524221EA0451C3EB6E0396
:1019900038BF5B1EDCF1200E25D322FA0CFE10EBC3
:1019A0000E0043FA0CFE41EB0E01CCF1200E03FABF
:1019B0000EFE10EB0E0051F10001CCF1200E29D4E7
:1019C00012FA0EF201EB0451BDE8104058BF704707
:1019D000401C1CBFB2F1004F704700280CBF491CCF
:1019E00020F00100704712EB020E43EB030218BF18
:1019F0004FF0010E4EEA4202ACF1200CDCF11E0E5B
:101A000054D943FA0CFE10EB0E0051F1FF31CCF12A
:101A10001E0ED5D50EF1010E12FA0EFE404141EB1D
:101A2000010101EB445C5FEA5C5C10D910EBDE70F5
:101A300001EB045138BFBEF1004FBDE8104018BFA4
:101A4000704700280CBF491C20F00100704730D2BD
:101A50004FEAD42C11F5001124F400641BD0B1FA24
:101A600081F20B3AA41AA41ED2F12003914030FA5D
:101A700003F31943904001EBCC71002C01EB0451AE
:101A8000BDE81040A8BF704701F1C0414FF0000011
:101A900001F000417047B0FA80F310FA03F100D171
:101AA00010BDE41A173C4805C90AE4E701EB0451EC
:101AB00010BD491001EB0451BDE810404FEA300061
:101AC00002E04FF0000170474A0008BF0042F8D022
:101AD000B2F5001F28BF704701F000414FF0000031
:101AE00070479EEA445F07D011EA5E0FBDE81040E0
:101AF00004BF002100207047BDE8104070B5FFF71B
:101B0000CAFE00BF40DFF63E83F00041104670473A
:101B10000000E0FF4FF04070E1EE100A7047FF2137
:101B200041EAD050C00570470000000000000000EE
:101B30000102030406070809581B000800000020E2
:101B400010000000C4010008681B000810000020FD
:101B500070060000E0010008010000001000000015
:081B6000000000000024F40065
:040000050800018965
:00000001FF
