:020000040800F2
:10000000680400209D0100083F110008750F0008DA
:100010003D110008BB020008251400080000000084
:100020000000000000000000000000004311000874
:10003000BD02000800000000411100084511000841
:10004000B7010008B7010008B7010008B7010008B0
:10005000B7010008B7010008B7010008B7010008A0
:10006000B7010008B7010008B7010008B701000890
:10007000B7010008B7010008B7010008B701000880
:10008000B7010008B7010008B7010008B701000870
:10009000B7010008B7010008B7010008B701000860
:1000A000B7010008B7010008B7010008B701000850
:1000B000B7010008B7010008B7010008B701000840
:1000C000B7010008B7010008B7010008B701000830
:1000D000B701000819140008B7010008B7010008AB
:1000E000B7010008B7010008B7010008B701000810
:1000F000B7010008B7010008B7010008B701000800
:10010000B7010008B7010008B7010008B7010008EF
:10011000B7010008B7010008B7010008B7010008DF
:10012000B7010008B7010008B7010008B7010008CF
:10013000B70100080000000000000000B70100083F
:10014000B7010008B7010008B7010008B7010008AF
:10015000B7010008B7010008B7010008B70100089F
:10016000B7010008B7010008B7010008B70100088F
:10017000B7010008B70100080000000000000000FF
:10018000B7010008B7010008DFF80CD000F07AF8DA
:1001900000480047291600086804002006488047E8
:1001A00006480047FEE7FEE7FEE7FEE7FEE7FEE75C
:1001B000FEE7FEE7FEE7FEE7DD1100088901000823
:1001C0002DE9F05F0546002092469B46884606468C
:1001D000814640241BE0284641464746224600F01F
:1001E00041F853465A46C01A914110D31146184659
:1001F000224600F028F82D1A67EB01084F462246E8
:100200000120002100F01FF817EB00094E41201ECD
:10021000A4F10104DFDC484631462A464346BDE8E6
:10022000F09FD2B201E000F8012B491EFBD27047CB
:100230000022F6E710B513460A4604461946FFF7B2
:10024000F0FF204610BD202A04DB203A00FA02F11C
:10025000002070479140C2F1200320FA03F31943B4
:1002600090407047202A04DB203A21FA02F0002156
:10027000704721FA02F3D040C2F1200291400843B6
:1002800019467047064C074D06E0E06840F0010350
:1002900094E8070098471034AC42F6D3FFF778FF94
:1002A000601600088016000800F00F01000900EB3E
:1002B000800001EB4000C0B27047FEE7704772B6A5
:1002C000FEE72DE9F0410446876D00F057F9064638
:1002D00094F835000025022806D08020606584F857
:1002E00034500120BDE8F0812068016821F016013A
:1002F00001602068416921F080014161206C08B9EA
:10030000A06C20B12068016821F00801016020681C
:10031000016821F0010101600CE000F02FF9801B61
:10032000052807D920206065032084F8350084F86B
:100330003450D7E720680068C007EED194F85C100D
:100340003F208840B860012084F8350084F834509C
:100350000020C7E790F83510022903D080214165BD
:1003600001207047052180F835100068016821F0F0
:1003700001010160002070472DE9F84FDFF8BCA1B2
:100380000022012503264FF00F090AF1040BAAF100
:10039000040E00BF0B6805FA02F42340A34270D19B
:1003A0000F7907F00307012F01D0022F16D18768BC
:1003B0004FEA420806FA08FC27EA0C07D1F80CC0FD
:1003C0000CFA08FC4CEA070CC0F808C04768A743C1
:1003D0000C79C4F3001494403C4344600C79E4432A
:1003E000A4070AD0C4684FEA420C06FA0CF7BC43D3
:1003F0008F6807FA0CF72743C7600C7904F00304F1
:10040000022C12D1D40800EB840CDCF820405707F2
:10041000FF0E09FA07F824EA0804D1F8108008FA58
:1004200007F848EA0408CCF8208004684FEA420C38
:1004300006FA0CF7BC430F7907F0030707FA0CF72D
:10044000274307604C6814F4403F70D03C4C276849
:1004500047F480472760246822F0030704F48044AF
:100460000094384C07EB040CDCF8084897074FEA77
:10047000177809FA08F7BC43334FB84202D1002776
:1004800024E054E0314FB84201D101271EE0304F43
:10049000B84201D1022719E02E4FB84201D10327FB
:1004A00014E02D4FB84201D104270FE02B4FB84282
:1004B00001D105270AE02A4FB84201D1062705E0FD
:1004C000284FB84201D1072700E0082707FA08F7AC
:1004D0002743CCF80878DAF800405746D1F804C032
:1004E0009C435FEACC2C00D51C433C60DBF8004009
:1004F0005F46D1F804C09C435FEA8C2C00D51C43B6
:100500003C60DEF800407746D1F804C09C435FEAC7
:100510008C3C00D51C433C60084F083F3C68D1F838
:1005200004C09C435FEACC3C00D51C433C60521C99
:10053000102AFFF42FAFBDE8F88F0000083C0140FF
:1005400044380240003001400000024000040240F4
:1005500000080240000C024000100240001402405B
:1005600000180240001C02400069084000D0012031
:1005700070470AB1816170470904FBE70148806850
:100580007047000000000020024881680278114492
:1005900081607047000000200B4810B5016841F4ED
:1005A00000710160016841F480610160016841F4FB
:1005B00080710160032000F06FF80F2000F006F852
:1005C00000F024F8002010BD003C024070B50D4D35
:1005D00004464FF47A712878B1FBF0F00A490968B3
:1005E000B1FBF0F000F00AFB48B9102C07D2002252
:1005F0002146501E00F030F800206C6070BD0120D4
:1006000070BD0000000000200C0000200A4808B562
:10061000016841F480410160006800F4804000906E
:100620000548001F016841F080510160006800F03A
:100630008050009008BD000044380240002809DBCB
:1006400000F01F02012191404009800000F1E020EC
:10065000C0F8001170470000F0B40E4B1B680C4648
:10066000C3F30223C3F10705042D00D90425191D86
:10067000072901D2002300E0DB1E012606FA05F15E
:10068000491E214099409E40761E16403143F0BCE1
:1006900000F0C9BE0CED00E0064900F00702086852
:1006A0004FF6FF03184040EA0220034A1043086057
:1006B000704700000CED00E00000FA052DE9F0475E
:1006C0000E46050065D0DFF81481D8F80000F7B2B7
:1006D00000F00700B04207D288F80070D8F8000098
:1006E00000F00700B04254D128683D4C810712D574
:1006F000400703D5206840F4E050206028780007C8
:1007000003D5206840F4604020602068A96820F08C
:10071000F000084320602878C0072DD03049686871
:100720000839012812D0022813D0032811D00968F3
:10073000890700292DDA216821F003010143216096
:10074000FFF71CFF814641F2883A0EE009688903F1
:10075000EFE709688901ECE7FFF710FFA0EB09015B
:10076000514502D90320BDE8F0872068696800F090
:100770000C00B0EB810FEFD1D8F80010404601F02B
:100780000701B14207D90770006800F00700B042C6
:1007900001D00120E7E72878400705D52068E968FF
:1007A00020F4E050084320602878000706D5206830
:1007B000296920F4604040EAC100206000F038F868
:1007C0002168084AC1F30311515CC840064908601A
:1007D00006480068FFF7FAFE0020C4E7003C02402C
:1007E00008380240461600080C00002004000020D3
:1007F0000448054900680968044AC1F38221515C34
:10080000C84070470C000020083802405616000807
:100810000448054900680968044AC1F34231515C43
:10082000C84070470C0000200838024056160008E7
:10083000154810B5006810F00C02144813D0411090
:10084000042A0FD0082A0ED10F4C241F22682368D7
:1008500002F03F025B0207D52068C0F38810A0FBBE
:10086000010106E0084610BD2168C1F38811A1FB13
:1008700000010023FFF7A4FC2168C1F30141491CDA
:100880004900B0FBF1F010BD083802400024F4002C
:100890002DE9F84F04006ED02078DFF84C93C007A4
:1008A000A9F104054AD009F104000168C1F38101EE
:1008B000012908D00068C0F3810002280AD1D9F8C4
:1008C0000000400206D52868800337D560680028FC
:1008D000E1D033E06068B0F5803F10D0B0F5A02FD4
:1008E000286810D020F480302860286820F4802008
:1008F00028606068A8B1FFF741FE06460DE0286851
:1009000040F48030F4E740F480202860F7E700BF2F
:10091000FFF734FE801B642873D828688003F7D55E
:100920000CE0FFF72BFE064605E000BFFFF726FEB2
:10093000801B6428F0D828688003F7D42078DFF87B
:10094000AC8280074FF0000A3ED5A748001D016821
:1009500011F00C0F08D00068C0F3810002280BD101
:10096000D9F80000400207D42868800716D5E0684F
:10097000012800D112E033E1E068B8B10120C8F8E5
:100980000000FFF7FBFD064605E000BFFFF7F6FDA0
:10099000801B0228C0D828688007F7D528682169FD
:1009A00020F0F80040EAC10028600DE0C8F800A07F
:1009B000FFF7E4FD064604E0FFF7E0FD801B022898
:1009C0001FD828688007F7D42078000722D5864FE3
:1009D00087486169703771B101210160FFF7CEFD71
:1009E000064604E0FFF7CAFD801B022809D83868D4
:1009F0008007F7D50EE0C0F800A0FFF7BFFD064660
:100A000005E082E0FFF7BAFD801B02287DD8386838
:100A10008007F7D42078400768D5DFF8CCB10027ED
:100A20000BF13C0BDBF80000C0000BD4DBF800102E
:100A300041F08051CBF80010DBF80000012700F0F6
:100A4000805000906B4E3068C00510D4306840F480
:100A500080703060FFF792FD009005E0FFF78EFD9B
:100A60000099401A022850D83068C005F6D55E4E6D
:100A7000A0686C3601280FD00528306810D020F00F
:100A800001003060306820F004003060A068B8B128
:100A9000FFF774FD00900FE0306840F00100F4E7CC
:100AA00040F004003060F7E7FFF768FD0099411A55
:100AB00041F28830814266D830688007F4D50EE074
:100AC000FFF75CFD009007E0FFF758FD0099411A21
:100AD00041F28830814256D830688007F4D42FB173
:100AE000DBF8001021F08051CBF80010A069C8B3EA
:100AF0003D49091D0968C1F3810102294AD0022834
:100B0000504607D0C8F8600000E03CE0FFF736FD33
:100B100004463BE04746C8F86000FFF72FFD064655
:100B200005E000BFFFF72AFD801B02282BD82868AC
:100B30008001F7D4D4E907010843A16A2E4A490885
:100B400002EB0141626A41EA8211084394F82C10D9
:100B500040EA0161C9F8001001203866FFF70EFD78
:100B6000044606E03EE000BFFFF708FD001B022838
:100B700009D828688001F7D534E000BFFFF7FEFCF4
:100B8000001B022802D90320BDE8F88F28688001E5
:100B9000F4D427E00128F7D0D9F80000E26900F486
:100BA000800191421CD1226A00F03F01914217D18D
:100BB00047F6C071626A0140B1EB821F10D1A26A90
:100BC0004FF0FF3300F4403103EB5202B1EB024F20
:100BD00006D194F82C1000F07060B0EB016F01D0DA
:100BE0000120D1E70020CFE704380240000047424F
:100BF000800E4742007000400000FFFF10B5401E0D
:100C0000B0F1807F01D3012010BD4FF0E02460617E
:100C10000F21601700F007FC0020A0610720206171
:100C2000002010BD70477047F8B501680446086899
:100C3000CA684B6910F00F0F4FF0000559D003F050
:100C4000010602F49077374365D0C10705D0D1057E
:100C500003D5216C41F001012164410705D5D90775
:100C600003D0216C41F002012164810705D5D90729
:100C700003D0216C41F004012164010707D502F083
:100C80002001314303D0216C41F008012164216C23
:100C900000293AD0800604D5900602D5204600F0FF
:100CA000D4FA20684069216CC0F38010090700D491
:100CB00060B3204600F0A2FA20684069400621D5C2
:100CC0002068143050E8001F21F0400140E8001275
:100CD000002AF5D1A06BA8B16C490165A06BFFF7A4
:100CE00039FB002811D0A06B016D01B0BDE8F040C8
:100CF000084783060FD593060DD52046BDE8F8407A
:100D000000F0A3BA2046FFF78EFFF8BD2046FFF79C
:100D10008AFF2564F8BD266B2023012E79D1C606F3
:100D200077D5D60675D508684868009048694006AA
:100D300040D5A16B086840680004000CEAD0A28D81
:100D40008242E7D9E085C869B0F5807F2DD0206860
:100D50000C3050E8001F21F4807140E80012002A96
:100D6000F5D12068143050E8001F21F0010140E85F
:100D70000012002AF5D12068143050E8001F21F03D
:100D8000400140E80012002AF5D184F83E30256386
:100D900020680C3050E8001F21F0100140E80012DC
:100DA000002AF5D1A06BFFF78CFAA08DE18D401AD7
:100DB00081B229E0A08DE18D401A81B2E08D00283A
:100DC000A8D00029A6D020680C3050E8002F22F4CB
:100DD000907240E80026002EF5D12068143050E8CB
:100DE000002F22F0010240E80026002EF5D184F801
:100DF0003E30256320680C3050E8002F22F01002AE
:100E000040E80023002BF5D12046FFF70BFFF8BD8B
:100E1000FFE705062BD5150629D594F83D002128B6
:100E2000F5D1A068B0F5805F01D12069B0B1206A2A
:100E3000411C2162216800784860E08C401E00045B
:100E4000000CE084E3D12068C16821F08001C1601A
:100E50002068C16841F04001C160D8E7206A00887D
:100E6000C0F308004860206A801C2062E5E7400665
:100E7000CDD55006CBD5CA68204622F04002CA60C4
:100E800084F83D3000F075F8C1E70000ED1100086E
:100E900070B5040004D094F83D00002510B106E0C0
:100EA000012070BD84F83C50204600F023F8242037
:100EB00084F83D002068C16821F40051C1602046DB
:100EC00000F024FA2068016921F490410161206852
:100ED000416921F02A0141612068C16841F4005153
:100EE000C1602564202084F83D0084F83E00002085
:100EF00070BD000010B586B0044614216846FFF7A7
:100F000097F918492068884229D1174800210268BA
:100F100042F010020260006800F0100005901248D4
:100F20001438026842F001020260006800F001001B
:100F300005904FF4C06000900220CDE9010103202C
:100F400003900720049069460848FFF715FA00222D
:100F500011462520FFF780FB2520FFF76FFB06B029
:100F600010BD000000100140443802400000024063
:100F700070477047FEE710B5044600F0F3FAD02042
:100F800000F0BCFA00F02AFB68B9204600F0B6FA7F
:100F900000F024FB38B900F0E5FAD12000F0AEFAF9
:100FA00000F01CFB18B100F0FFFA002010BD00F0AB
:100FB0007BFA044600F05CFA00F0F6FA204610BD19
:100FC00030B5104887B0016841F004010160006845
:100FD0000D4D00F0040005901120019001200290B9
:100FE000032044030390694600942846FFF7C4F9A0
:100FF000012221462846FFF7BCFA07B0BDE8304081
:1010000000F0D2BA303802400008024010B511207A
:10101000FFF7B1FF0149888110BD00005400002096
:1010200010B50620FFF7A7FF194C6060FFF73CF9E9
:1010300000F5FA6060600520FFF79DFF2072FFF762
:1010400033F920720420FFF796FF6072FFF72CF946
:1010500060720320FFF78FFFA072FFF725F9A072DF
:101060000220FFF788FF00F03F002070FFF71CF917
:1010700020700120FFF77FFF6070FFF715F96070A7
:101080000020FFF778FFA070FFF70EF9A07010BDE9
:101090005400002070B586B014216846FFF7C8F8E8
:1010A00016480024016841F004010160016801F064
:1010B00004010591016841F080010160016801F0BF
:1010C00080010591016841F00101016000680C4E4A
:1010D00000F001004FF4C04505900122294630463A
:1010E000FFF747FA11200095CDE901046946304623
:1010F0000394FFF741F906B070BD0000303802409C
:10110000000802400C4810B50A4901604FF4E13173
:101110004160002181600C22C160C0E9041281613C
:10112000C161FFF7B5FE002803D0BDE81040FFF70E
:10113000C6B810BD0010014010000020FEE7FEE719
:1011400070477047FFF720BA30B593B0302168463A
:10115000FFF76EF814210CA8FFF76AF81D48002568
:10116000016841F080510160006800F080501190EA
:101170001948016841F4804101600068022400F4CC
:101180008040119001200090000401908001CDE981
:10119000064008AA0420A82182E813000B906846A4
:1011A000FFF776FB08B172B6FEE70CA90F2081E8C5
:1011B00031004FF4A0500F904FF480501090052153
:1011C0000CA8FFF77BFA002801D072B6FEE713B037
:1011D00030BD000040380240007000400248016805
:1011E00041F470010160704788ED00E010B5806B3C
:1011F0000021C185C184FFF716FD10BD01680C31C7
:1012000051E8002F22F4907241E80023002BF5D121
:101210000168143151E8002F22F0010241E8002357
:10122000002BF5D1016B012909D101680C3151E87E
:10123000002F22F0100241E80023002BF5D12021DD
:1012400080F83E1000210163704708B590F83E1009
:10125000222901D0022008BD82684FF480539A42AF
:1012600001D1016921B1816A9A421BD04AB10AE0D9
:101270000268816A5268C2F308020A80816A891C86
:1012800008E0026972B10268526802F07F020A70D7
:10129000816A491C8162C18D491E0904090CC185FE
:1012A00003D019E002685268F1E70168CA6822F0C9
:1012B0002002CA600168CA6822F48072CA600168AC
:1012C0004A6922F001024A61202180F83E10016B38
:1012D000012903D0FFF74CFE002008BD0021016367
:1012E00001680C3151E8002F22F0100241E8002380
:1012F000002BF5D101680A68D20602D50A68496850
:101300000091818DFFF78EFCE6E7000070B5044682
:1013100000680169E26821F44051114301612169CB
:10132000A068E26908436169114308432168CA68FB
:1013300049F20C639A430243CA6020684169A2697A
:1013400021F440711143416131492068884202D043
:101350003049884202D1FFF75BFA01E0FFF748FA13
:10136000E2690023192164253226B2F5004F626834
:1013700028D0A0FB0101930F9200FEF721FF014648
:10138000B0FBF5F06FF01802504301EB800006EB64
:101390000010B0FBF5F000F0F002B1FBF5F002EB4D
:1013A0000012B1FBF5F06FF01803584301EB800019
:1013B00006EB0010B0FBF5F000F00F0021681044C0
:1013C000886070BDA0FB010192185B41FEF7F8FE3A
:1013D0000146B0FBF5F00201B1FBF5F06FF0180328
:1013E000584301EB800006EBC000B0FBF5F000F0C5
:1013F000F80002EB4002B1FBF5F0584301EB80002E
:1014000006EBC000B0FBF5F000F00700D6E70000E7
:1014100000100140001401400148FFF705BC000026
:1014200010000020FEE70907090E002804DB00F188
:10143000E02080F80014704700F00F0000F1E02079
:1014400080F8141D704702E008C8121F08C1002A66
:10145000FAD170477047002001E001C1121F002A35
:10146000FBD170470020401CC0B21428FBD370474A
:1014700070B50C4C012251032046FFF77AF8FFF7B4
:10148000F1FF0122950329462046FFF772F8FFF786
:10149000E9FF002229462046FFF76BF8BDE87040BF
:1014A000FFF7E0BF000802402DE9F0410024124E92
:1014B00025464FF400584FF480476006040E012281
:1014C00039463046FFF755F8FFF7CCFF4146304626
:1014D000FFF74AF808B1641CE4B2002239463046EE
:1014E000FFF747F8FFF7BEFF6D1CEDB2082DE4D300
:1014F0002046BDE8F0810000000802402DE9F041DF
:10150000174E054600244FF480474FF40058280634
:1015100001D5012200E0002241463046FFF729F8BC
:10152000FFF7A0FF012239463046FFF722F8FFF708
:1015300099FF002239463046FFF71BF8072C04D1EB
:10154000012241463046FFF714F86806050EFFF702
:1015500089FF641CE4B2082CD9D3BDE8F0810000F7
:101560000008024070B501220E4D54032146284662
:10157000FEF7FFFF0122960331462846FEF7F9FFEA
:10158000FFF770FF002221462846FEF7F2FFFFF723
:1015900069FF002231462846FEF7EBFFBDE87040A8
:1015A000FFF760BF0008024070B50B4D4FF40054C8
:1015B000002221462846FEF7DCFF0122910328463F
:1015C000FEF7D7FFFFF74EFF21462846BDE87040E3
:1015D0000122FEF7CEBF00000008024070B50122D4
:1015E000104D540321462846FEF7C3FFFFF73AFF8C
:1015F0000122960331462846FEF7BBFFFFF732FF74
:1016000021462846FEF7B0FF08B1012400E000247F
:10161000002231462846FEF7ACFFFFF723FF2046A5
:1016200070BD000000080240FEF7B6FFFFF78CFD1A
:10163000FFF730FDFFF766FDFFF7C2FCFFF7F0FC98
:10164000FFF7E4FCFAE700000000000000000102E0
:10165000030406070809000000000102030400005B
:10166000801600080000002010000000461400084A
:1016700090160008100000205804000056140008BE
:101680000100000010000000000000000024F40031
:040000050800018965
:00000001FF
