:020000040800F2
:100000006007002029020008BB120008CD0F00087D
:10001000B91200081F0400085D1700080000000066
:10002000000000000000000000000000B3160008FF
:100030002104000800000000B1160008B5160008F1
:10004000430200084302000843020008430200087C
:10005000430200084302000843020008430200086C
:10006000430200084302000843020008430200085C
:10007000430200084302000843020008430200084C
:10008000430200084302000843020008430200083C
:10009000430200084302000843020008430200082C
:1000A000430200084302000843020008430200081C
:1000B000430200084302000843020008430200080C
:1000C00043020008430200084302000843020008FC
:1000D00043020008430200084302000843020008EC
:1000E00043020008430200084302000843020008DC
:1000F00043020008430200084302000843020008CC
:1001000043020008430200084302000843020008BB
:1001100043020008430200084302000843020008AB
:10012000430200084302000843020008430200089B
:100130004302000800000000000000004302000825
:10014000430200084302000843020008430200087B
:10015000430200084302000843020008430200086B
:10016000430200084302000843020008430200085B
:1001700043020008430200080000000000000000E5
:10018000430200084302000800F002F800F03CF8C7
:100190000AA090E8000C82448344AAF10107DA45E2
:1001A00001D100F031F8AFF2090EBAE80F0013F0F8
:1001B000010F18BFFB1A43F0010318475420000039
:1001C00074200000103A24BF78C878C1FAD85207CA
:1001D00024BF30C830C144BF04680C6070470000C1
:1001E0000023002400250026103A28BF78C1FBD840
:1001F000520728BF30C148BF0B6070471FB501F0E0
:1002000091FB1FBD10B510BD00F0CFF81146FFF7F0
:10021000F5FF01F0CFFA00F0EDF803B4FFF7F2FFBD
:1002200003BC00F0F5F80000094880470948004782
:10023000FEE7FEE7FEE7FEE7FEE7FEE7FEE7FEE796
:10024000FEE7FEE704480549054A064B70470000F3
:100250004D17000889010008600100206007002098
:10026000600300206003002053EA020C00F0698064
:100270002DE9F04B4FF00006002B1FBFB3FA83F5BA
:1002800003FA05F424FA05F65E4012BF1643B2FAEB
:1002900082F502FA05F4C5F120051EBF22FA05FC1D
:1002A00044EA0C04203556EA044C4FEA144418BFC3
:1002B000641C4FF000084FF00009904271EB030CF2
:1002C00039D3002919BFB1FA81F701FA07F6B0FA5C
:1002D00080F700FA07F6C7F120071EBF20FA07FCD7
:1002E00046EA0C062037B6FBF4FCA7EB0507103FE7
:1002F00007F01F0BCBF120060CFA0BFB2CFA06F6CD
:1003000044BFB3460026202FA4BF5E464FF0000B2B
:100310005BEA060C08BF4FF0010B19EB0B09ABFBB6
:10032000027C48EB0608C01B06FB02CC0BFB03CC8F
:1003300071EB0C01C1E70B46024641464846BDE859
:10034000F08B13B54FF000004FF00001AFF30080C9
:10035000BDE81C4070474FF0000200B513469446BC
:100360009646203922BFA0E80C50A0E80C50B1F10D
:100370002001BFF4F7AF090728BFA0E80C5048BF21
:100380000CC05DF804EB890028BF40F8042B08BFBF
:10039000704748BF20F8022B11F0804F18BF00F8BB
:1003A000012B7047704770477047754600F02CF876
:1003B000AE4605006946534620F00700854618B052
:1003C00020B5FFF73FFFBDE820404FF000064FF09B
:1003D00000074FF000084FF0000B21F00701AC467A
:1003E000ACE8C009ACE8C009ACE8C009ACE8C00999
:1003F0008D46704710B50446AFF300802046BDE837
:100400001040FFF70ABF00000048704700010020BD
:1004100001491820ABBEFEE7260002007047FEE748
:10042000704772B6FEE7000070B5044600F006F9AA
:100430000546601C02D004480078044400F0FEF831
:10044000401BA042FAD370BD000000202DE9F84FF8
:10045000DFF8BCA10022012503264FF00F090AF1A5
:10046000040BAAF1040E00BF0B6805FA02F4234046
:10047000A34270D10F7907F00307012F01D0022F9B
:1004800016D187684FEA420806FA08FC27EA0C07EB
:10049000D1F80CC00CFA08FC4CEA070CC0F808C0F4
:1004A0004768A7430C79C4F3001494403C4344606C
:1004B0000C79E443A4070AD0C4684FEA420C06FA58
:1004C0000CF7BC438F6807FA0CF72743C7600C7919
:1004D00004F00304022C12D1D40800EB840CDCF8E5
:1004E00020405707FF0E09FA07F824EA0804D1F85C
:1004F000108008FA07F848EA0408CCF8208004685D
:100500004FEA420C06FA0CF7BC430F7907F00307D9
:1005100007FA0CF7274307604C6814F4403F70D08B
:100520003C4C276847F480472760246822F0030783
:1005300004F480440094384C07EB040CDCF80848C1
:1005400097074FEA177809FA08F7BC43334FB842C8
:1005500002D1002724E054E0314FB84201D10127F5
:100560001EE0304FB84201D1022719E02E4FB842A9
:1005700001D1032714E02D4FB84201D104270FE029
:100580002B4FB84201D105270AE02A4FB84201D1CA
:10059000062705E0284FB84201D1072700E00827C9
:1005A00007FA08F72743CCF80878DAF800405746EE
:1005B000D1F804C09C435FEACC2C00D51C433C60BE
:1005C000DBF800405F46D1F804C09C435FEA8C2C06
:1005D00000D51C433C60DEF800407746D1F804C0EB
:1005E0009C435FEA8C3C00D51C433C60084F083FAD
:1005F0003C68D1F804C09C435FEACC3C00D51C4366
:100600003C60521C102AFFF42FAFBDE8F88F0000A9
:10061000083C0140443802400030014000000240E4
:100620000004024000080240000C0240001002409A
:100630000014024000180240001C0240014880687B
:10064000704700000000002070B5040025D094F829
:100650003D00002520B984F83C50204600F050F9B8
:10066000242084F83D002068016821F00101016028
:100670002068016841F4004101602068016821F4AC
:100680000041016000F096FA4D4A6168914201D83C
:100690004C4900E04C49884201D2012070BD4B49D1
:1006A0002368B0FBF1F15E6826F03F060E435E6002
:1006B0006368934206D94FF4967359434FF47A73A3
:1006C000B1FBF3F12368491C1E6A26F03F06314353
:1006D00019626168914210D84900401EB0FBF1F2E6
:1006E000521CC2F30B02042A01D2042022E0B0FB08
:1006F000F1F0401CC0F30B001CE0A268F2B301EB68
:10070000C10303EB0116431EB3FBF6F35B1C43F47A
:1007100080431B0549D092B301EBC10202EB0111EA
:10072000401EB0FBF1F0401CC0F30B0040F48040D1
:1007300040F400402168CA694CF6FF739A431043A5
:10074000C861D4E9071001432068026822F0C002A2
:1007500011430160D4E9030101432068826848F233
:10076000FF339A4311438160D4E9050108432168AE
:10077000CA6822F0FF021043C86001E00EE016E0F4
:100780002068016841F0010101602564202084F89F
:100790003D00256384F83E50002070BD01EB41060A
:1007A000431EB3FBF6F35B1CB3E70120C2E701EB8A
:1007B0004101401EB0FBF1F0401CC0F30B00B7E755
:1007C000A086010080841E0000093D0040420F0009
:1007D0002DE9FF4F83B09A46DDE911979346044611
:1007E000DDF84080FFF72AFF054694F83D002028F9
:1007F0007FD11923012240492046009500F078FC62
:10080000002876D194F83C00012872D0012084F8A9
:100810003C0020680168C90703D1016841F001016B
:1008200001602068016821F400610160212084F8E2
:100830003D00402084F83E0000262664C4F8248051
:10084000A4F82A90608D20852C48E062CDE90075DF
:1008500053465A462046049900F0D0FB70B930E068
:100860002A463946204600F0C2FC58B1206C0428C4
:1008700004D12068016841F400710160012007B0D3
:10088000BDE8F08F606A216800780861606A401CEA
:100890006062218D491E89B22185628D521E62855A
:1008A00022685369DB435B070BD469B100781061A0
:1008B000606A401C6062208D401E2085608D401E55
:1008C0006085208D0028CBD12A463946204600F08D
:1008D000E9FB0028CAD154F83D0B016841F40071CE
:1008E0000160202004F81E09E67766770020C6E73D
:1008F000FFE70220C3E70000020010000000FFFF36
:1009000010B586B0044614216846FFF724FD13494C
:100910002068884220D112480021026842F0020279
:100920000260006800F002000590C02000901220D4
:10093000CDE9010103200390042004906946094891
:10094000FFF784FD06481030016841F40011016092
:10095000006800F40010059006B010BD005400407F
:100960003038024000040240024881680278114495
:1009700081607047000000200B4810B5016841F409
:1009800000710160016841F480610160016841F417
:1009900080710160032000F061F80F2000F006F87C
:1009A00000F024F8002010BD003C024070B50D4D51
:1009B00004464FF47A712878B1FBF0F00A490968CF
:1009C000B1FBF0F000F0EEFA48B9102C07D200228B
:1009D0002146501E00F022F800206C6070BD0120FE
:1009E00070BD0000000000200C0000200A4808B57F
:1009F000016841F480410160006800F4804000908B
:100A00000548001F016841F080510160006800F056
:100A10008050009008BD000044380240F0B40E4BF6
:100A20001B680C46C3F30223C3F10705042D00D94C
:100A30000425191D072901D2002300E0DB1E012631
:100A400006FA05F1491E214099409E40761E164047
:100A50003143F0BC00F09EBE0CED00E0064900F012
:100A6000070208684FF6FF03184040EA0220034AD5
:100A700010430860704700000CED00E00000FA052C
:100A80002DE9F0470E46050065D0DFF81481D8F84F
:100A90000000F7B200F00700B04207D288F80070FB
:100AA000D8F8000000F00700B04254D128683D4C4F
:100AB000810712D5400703D5206840F4E05020603C
:100AC0002878000703D5206840F460402060206843
:100AD000A96820F0F000084320602878C0072DD0D6
:100AE000304968680839012812D0022813D0032839
:100AF00011D00968890700292DDA216821F0030146
:100B000001432160FFF79AFD814641F2883A0EE0E9
:100B100009688903EFE709688901ECE7FFF78EFDB3
:100B2000A0EB0901514502D90320BDE8F0872068F8
:100B3000696800F00C00B0EB810FEFD1D8F800101D
:100B4000404601F00701B14207D90770006800F084
:100B50000700B04201D00120E7E72878400705D51B
:100B60002068E96820F4E0500843206028780007F6
:100B700006D52068296920F4604040EAC100206061
:100B800000F028F82168084AC1F30311515CC840FD
:100B90000649086006480068FFF708FF0020C4E720
:100BA000003C0240083802402E1900080C000020CA
:100BB000040000200448054900680968044AC1F39C
:100BC0008221515CC84070470C0000200838024068
:100BD0003E190008154810B5006810F00C021448C2
:100BE00013D01449042A0FD0082A0ED10F4C241F09
:100BF0002268236802F03F025B0207D52068C0F339
:100C00008810A0FB010106E0084610BD2168C1F371
:100C10008811A1FB00010023FFF726FB2168C1F327
:100C20000141491C4900B0FBF1F010BD08380240F9
:100C30000024F40040787D012DE9F84F04006ED0C7
:100C40002078DFF84C93C007A9F104054AD009F1D8
:100C500004000168C1F38101012908D00068C0F3D4
:100C6000810002280AD1D9F80000400206D5286880
:100C7000800337D560680028E1D033E06068B0F5C4
:100C8000803F10D0B0F5A02F286810D020F480301D
:100C90002860286820F4802028606068A8B1FFF7E9
:100CA000CDFC06460DE0286840F48030F4E740F4BF
:100CB00080202860F7E700BFFFF7C0FC801B642896
:100CC00073D828688003F7D50CE0FFF7B7FC064619
:100CD00005E000BFFFF7B2FC801B6428F0D828684D
:100CE0008003F7D42078DFF8AC8280074FF0000A49
:100CF0003ED5A748001D016811F00C0F08D0006810
:100D0000C0F3810002280BD1D9F80000400207D4BB
:100D10002868800716D5E068012800D112E033E189
:100D2000E068B8B10120C8F80000FFF787FC06466C
:100D300005E000BFFFF782FC801B0228C0D82868AE
:100D40008007F7D52868216920F0F80040EAC10043
:100D500028600DE0C8F800A0FFF770FC064604E02C
:100D6000FFF76CFC801B02281FD828688007F7D487
:100D70002078000722D5864F87486169703771B1A6
:100D800001210160FFF75AFC064604E0FFF756FC1C
:100D9000801B022809D838688007F7D50EE0C0F814
:100DA00000A0FFF74BFC064605E082E0FFF746FC9B
:100DB000801B02287DD838688007F7D42078400748
:100DC00068D5DFF8CCB100270BF13C0BDBF8000055
:100DD000C0000BD4DBF8001041F08051CBF80010BC
:100DE000DBF80000012700F0805000906B4E306867
:100DF000C00510D4306840F480703060FFF71EFCEE
:100E0000009005E0FFF71AFC0099401A022850D81C
:100E10003068C005F6D55E4EA0686C3601280FD04C
:100E20000528306810D020F001003060306820F0D4
:100E300004003060A068B8B1FFF700FC00900FE03C
:100E4000306840F00100F4E740F004003060F7E75C
:100E5000FFF7F4FB0099411A41F28830814266D8CD
:100E600030688007F4D50EE0FFF7E8FB009007E05C
:100E7000FFF7E4FB0099411A41F28830814256D8CD
:100E800030688007F4D42FB1DBF8001021F08051D6
:100E9000CBF80010A069C8B33D49091D0968C1F32A
:100EA000810102294AD00228504607D0C8F86000C4
:100EB00000E03CE0FFF7C2FB04463BE04746C8F8D1
:100EC0006000FFF7BBFB064605E000BFFFF7B6FB7F
:100ED000801B02282BD828688001F7D4D4E90701A9
:100EE0000843A16A2E4A490802EB0141626A41EABD
:100EF0008211084394F82C1040EA0161C9F80010EF
:100F000001203866FFF79AFB044606E03EE000BF8A
:100F1000FFF794FB001B022809D828688001F7D549
:100F200034E000BFFFF78AFB001B022802D9032030
:100F3000BDE8F88F28688001F4D427E00128F7D0B5
:100F4000D9F80000E26900F4800191421CD1226AC4
:100F500000F03F01914217D147F6C071626A01402B
:100F6000B1EB821F10D1A26A4FF0FF3300F4403181
:100F700003EB5202B1EB024F06D194F82C1000F0B3
:100F80007060B0EB016F01D00120D1E70020CFE706
:100F90000438024000004742800E47420070004083
:100FA0000000FFFF10B5401EB0F1807F01D301208B
:100FB00010BD4FF0E02460610F21601700F0EAFBE4
:100FC0000020A06107202061002010BDFEE701681D
:100FD0004A69D24352050FD46FF480624A610021FE
:100FE00040F8301F202242738173026942F00402EC
:100FF0000261017301207047002070472DE9F8431A
:10100000044600680D46DDE90897016898461646D3
:1010100041F4807101604B4600224FF001112046DF
:10102000009700F065F848B120680068C00502D557
:101030004FF4007020640320BDE8F883216805F0B8
:10104000FE0008613B464A461549204600F084F8F8
:1010500088B920684169806900903A46494620462F
:1010600000F0C5F848B1206C042804D1206801685C
:1010700041F4007101600120DEE7F5B2B8F1010F23
:1010800009D02168300A08613A464946204600F0F6
:10109000AEF80028E7D1206805610020CCE7000009
:1010A0000200010070B516460D4604460DE02046CC
:1010B000FFF78DFF08B1012070BD681C05D0FFF758
:1010C000BDFA801BA84207D835B120684069C043EB
:1010D0004007ECD4002070BD002044F8300F2021E0
:1010E0006173A073216941F0200121612073E2E75F
:1010F0002DE9F0471E4690460D460446C1F30747CA
:10110000DDF8209008E0701C06D0FFF797FAA0EBFE
:101110000900B0420FD876B12068012F18D080693D
:1011200025EA00000004000C14D000214145EAD05B
:101130000020BDE8F087002044F8300F20216173C3
:10114000A073216941F02001216120730120F0E7A3
:101150004069E5E70121E9E72DE9F0479A46914624
:101160000E46044600254FF02008C1F3074725E04E
:1011700020684069C043400514D42068016841F4E8
:101180000071016021686FF480604861256384F814
:101190003D8084F83E50206C40F00400206484F8C8
:1011A0003C501FE0B9F1FF3F08D0FFF747FAA0EB32
:1011B0000A0149450CD8B9F1000F09D02068012F68
:1011C00013D0806926EA00000004000C0BD0CFE7A2
:1011D00044F8305F84F80D80A573206940F020004A
:1011E000206125730120BDE8F0874069EAE770B50A
:1011F00016460D4604460DE02046FFF7E8FE08B10E
:10120000012070BD681C05D0FFF718FA801BA842AA
:1012100007D835B120684069C0430006ECD40020EF
:1012200070BD002044F8300F20216173A073216944
:1012300041F0200121612073E2E700000D4808B56C
:10124000016841F080010160016801F080010091B6
:10125000016841F001010160016801F001010091A4
:10126000016841F002010160006800F00200009096
:1012700008BD0000303802400D4810B50B49016030
:101280000C49416000214FF480428160C0E90312A3
:1012900041618161C1610162FFF7D6F9002803D085
:1012A000BDE81040FFF7BDB810BD0000005400407D
:1012B000AC000020A0860100FEE7FEE770B5002428
:1012C00004F1B000C0B200F0CFF9002000F0CCF97A
:1012D000102000F0C9F90025002000F0D7F96D1C9E
:1012E000EDB2802DF8D3641CE4B2082CE8D370BDB5
:1012F0002DE9F05F9846DDE90A9A174683460024F7
:101300000D4615E02946584600F01EF85E460BE0F3
:1013100019F80400BAF1000F01D0C043C0B2641C38
:1013200000F0B4F9761CF6B2BE42F1D36D1CEDB2FA
:101330004545E7D3BDE8F09F10B5C820FFF774F826
:10134000BDE8104000F00CBA10B50446B031C8B288
:1013500000F08AF9102040EA141000F085F904F03A
:101360000F00BDE8104000F07FB900002DE9F0410A
:101370001E4615460F4680460024FFF7E5FF11483C
:1013800000EB8515285D0EB1C043C0B200F07EF9B8
:10139000641CE4B2102CF5D37F1CF9B24046FFF771
:1013A000D3FF002405EB040090F820000EB1C043E9
:1013B000C0B200F06BF9641CE4B2102CF2D3BDE8AB
:1013C000F08100004E2100082DE9F047203A00246A
:1013D000089E0F468146D5B27F2803D900208F1C76
:1013E0008146FFB2102B394612D0FFF7ADFF1B49E3
:1013F00005EB450001EB4005285D0EB1C043C0B2CE
:1014000000F044F9641CE4B2062CF5D3BDE8F08783
:10141000FFF79AFFDFF8488004EB051118F8010088
:101420000EB1C043C0B200F031F9641CE4B2082C24
:10143000F2D37F1CF9B24846FFF786FF00244746E7
:1014400004EB05103844007A0EB1C043C0B200F07E
:101450001DF9641CE4B2082CF2D3D7E74619000842
:101460006E1B00082DE9FF4F81B00026DDE90EA9B3
:101470001D469346804634464FEA5A0727E0281B0C
:10148000401EC1B20A2000F045FABBFBF0F00A2171
:10149000B0FBF1F201FB120026B9691E8C4201DAA1
:1014A00048B101263030C2B207FB0480C0B25346B7
:1014B000CDF8009006E007FB0480C0B2534620221E
:1014C000CDF800900299FFF77FFF641CE4B2AC42B4
:1014D000D5D305B0BDE8F08F2DE9F8431E46174679
:1014E000894604460025DDF8208014E0334649464D
:1014F0002046CDF80080FFF767FF0C2E10D008348F
:10150000E4B27A2C01D90C2E0CD0782C01D9102EF3
:1015100008D06D1CEDB27A5D002AE7D1BDE8F883F2
:10152000A41DEDE709F10100002400F0FF09F0E738
:101530002DE9FF4F9A462DED020B144680462DED06
:10154000028BB0EE408A83B0B5EEC08A159FF1EEF3
:1015500010FA4FF0000B05D2541CE4B24FF0010B0F
:10156000B1EE488A1498BDEEC80A0025460810EE70
:10157000109A27E0601B401EC1B20A2000F0CAF991
:10158000B9FBF0F10A20B1FBF0F200FB1210019957
:1015900029B9611E8D4202DA48B101210191303032
:1015A000C2B206FB05800097C0B2149B05E006FBA3
:1015B00005800097149BC0B220220899FFF704FF12
:1015C0006D1CEDB2A542D5D306FB04800097C0B2D6
:1015D0002E22149B0899FFF7F7FE51460A2000F0CF
:1015E00099F900EE100A0025F8EE400A00EE109A74
:1015F000B8EEC00A38EE400A20EE800ABDEEC00AFE
:1016000010EE109A1DE000BFAAEB0500401EC1B20B
:101610000A2000F07FF9B9FBF0F10A20B1FBF0F2EB
:1016200000FB12112A1908F1050006FB02003031F7
:10163000CAB20097C0B2149B0899FFF7C5FE6D1C93
:10164000EDB25545E0D3BBF1000F06D000972D2237
:101650004046149B0899FFF7B7FE03B0BDEC028B20
:1016600006B0BDE8F08F000001B584B001214FF451
:10167000807204A88DE807000B46002278210248FA
:10168000FFF7A6F805B000BDAC00002001B584B09E
:1016900001214FF4807204A88DE807000B46402218
:1016A00078210248FFF794F805B000BDAC00002097
:1016B00070477047FFF758B930B593B0302168468E
:1016C000FEF749FE14210CA8FEF745FE1D48002533
:1016D000016841F080510160006800F08050119075
:1016E0001948016841F4804101600068022400F457
:1016F00080401190012003901020049000940694E3
:101700000820CDE90750A820CDE9090404200B905A
:101710006846FFF791FA08B172B6FEE70CA90F20F0
:1017200081E831004FF4A0500F904FF4805010909A
:1017300005210CA8FFF7A4F9002801D072B6FEE736
:1017400013B030BD403802400070004002480168CC
:1017500041F470010160704788ED00E0FEE7000091
:10176000FEB50024094F4FF4807501263819CDE9E4
:10177000000601230022782102950548FFF728F88A
:10178000641CE4B21B2CF1D3FEBD0000100000204D
:10179000AC0000200907090E002804DB00F1E0205E
:1017A00080F80014704700F00F0000F1E02080F88E
:1017B000141D70472DED028B82B0FFF7DDF8FFF7A7
:1017C0007BFFFFF73BFDFFF757FDFFF7B5FDFFF789
:1017D00075FD00240125DFF8049110264FF00C0858
:1017E0004FF47A7ADFED3E8A9FED3E8A0021102386
:1017F0003DA208460095FFF76FFE0C233DA2022193
:1018000000200094FFF768FE002201230421104607
:10181000FFF7ACFD01231A4604211020FFF7A6FDB7
:101820000123022204212020FFF7A0FD00231A46F5
:1018300006211846FFF79AFD0023012206211020F9
:10184000FFF794FD0023022206212020FFF78EFDE2
:10185000CDE900640123062204213020FFF702FEB7
:10186000CDE9008502234D2207213020FFF7FAFD44
:10187000CDE900944F4604237A2200215A20FFF735
:1018800037FDCDE9007508237A2204215A20FFF79D
:101890002FFD57465046FEF7C7FDFFF70FFD00210D
:1018A0000C2318A208460094FFF716FECDE9008429
:1018B00002230322B0EE680A04210020FFF738FE5D
:1018C000CDE9006503230222B0EE480A062100207C
:1018D000FFF72EFE3846FEF7A7FD87E72B00002016
:1018E000713D67C30000BB41554E49434F524E5FA7
:1018F0004C490000756E69636F726E5F6C695F3191
:101900003233000053686F7720446563696D616C02
:10191000000000000246012000E05043491EC9B209
:10192000FBD270474FF04070E1EE100A70470000A4
:10193000000000000000010203040607080900007F
:101940000000010203040000000000000000002F5E
:10195000000000000700070000147F147F1400241B
:101960002A7F2A1200626408132300364955225048
:1019700000000503000000001C224100000041227D
:101980001C000014083E08140008083E0808000067
:1019900000A060000008080808080000606000005F
:1019A000002010080402003E5149453E0000427FDD
:1019B0004000004261514946002141454B31001829
:1019C00014127F10002745454539003C4A494930EB
:1019D00000017109050300364949493600064949A5
:1019E000291E0000363600000000563600000008B0
:1019F000142241000014141414140000412214088D
:101A000000020151090600324959513E007C121171
:101A1000127C007F49494936003E41414122007F06
:101A20004141221C007F49494941007F09090901C0
:101A3000003E4149497A007F0808087F0000417F45
:101A40004100002040413F01007F08142241007FF7
:101A500040404040007F020C027F007F0408107F5E
:101A6000003E4141413E007F09090906003E4151C7
:101A7000215E007F09192946004649494931000184
:101A8000017F0101003F4040403F001F2040201FD8
:101A9000003F4038403F006314081463000708709B
:101AA000080700615149454300007F41410000554E
:101AB0002A552A55000041417F000004020102041A
:101AC0000040404040400000010204000020545407
:101AD0005478007F48444438003844444420003857
:101AE0004444487F00385454541800087E090102C9
:101AF0000018A4A4A47C007F080404780000447D9E
:101B00004000004080847D00007F102844000000D9
:101B1000417F4000007C04180478007C08040478AD
:101B200000384444443800FC242424180018242499
:101B300018FC007C08040408004854545420000495
:101B40003F444020003C4040207C001C2040201CA2
:101B5000003C4030403C004428102844001CA0A019
:101B6000A07C004464544C44141414141414000055
:101B70000000000000000000000000000000000065
:101B800000F80000000000000033300000000010EA
:101B90000C06100C0600000000000000000040C011
:101BA0007840C0784000043F04043F040400007003
:101BB00088FC08300000001820FF211E0000F008FB
:101BC000F000E018000000211C031E211E0000F0A0
:101BD0000888700000001E212324192721101016E8
:101BE0000E000000000000000000000000000000E7
:101BF00000E0180402000000000718204000000266
:101C00000418E000000000402018070000004040D9
:101C100080F0804040000202010F0102020000003B
:101C200000F0000000000101011F0101010000009F
:101C300000000000000080B0700000000000000004
:101C4000000000000000000101010101010100008D
:101C50000000000000000030300000000000000024
:101C6000000080601804006018060100000000E019
:101C700010080810E000000F102020100F000010C6
:101C800010F8000000000020203F2020000000701D
:101C90000808088870000030282422213000003015
:101CA0000888884830000018202020110E0000000D
:101CB000C02010F8000000070424243F240000F88E
:101CC0000888880808000019212020110E0000E073
:101CD000108888180000000F112020110E00003815
:101CE0000808C83808000000003F0000000000702D
:101CF000880808887000001C222121221C0000E0B6
:101D000010080810E0000000312222110F0000002E
:101D100000C0C000000000000030300000000000E3
:101D20000080000000000000806000000000000053
:101D300080402010080000010204081020004040EC
:101D4000404040404000040404040404040000082F
:101D500010204080000000201008040201000070E4
:101D600048080808F0000000003036010000C030CC
:101D7000C828E810E0000718272423140B000000EF
:101D8000C038E0000000203C23020227382008F879
:101D9000888888700000203F202020110E00C0306D
:101DA000080808083800071820202010080008F844
:101DB00008080810E000203F202020100F0008F83D
:101DC0008888E8081000203F20202320180008F809
:101DD0008888E8081000203F200003000000C03081
:101DE00008080838000007182020221E020008F802
:101DF00008000008F808203F210101213F200008C9
:101E000008F8080800000020203F20200000000003
:101E10000808F8080800C08080807F00000008F8EB
:101E200088C028180800203F20012638200008F824
:101E3000080000000000203F20202020300008F88B
:101E4000F800F8F80800203F003F003F200008F8A5
:101E500030C00008F808203F200007183F00E010BD
:101E600008080810E0000F10202020100F0008F8CC
:101E700008080808F000203F210101010000E010DF
:101E800008080810E0000F18242438504F0008F804
:101E9000888888887000203F2000030C3020007064
:101EA0008808080838000038202121221C00180862
:101EB00008F8080818000000203F2000000008F87B
:101EC00008000008F808001F202020201F000878C4
:101ED000880000C83808000007380E010000F80824
:101EE00000F80008F800033C0700073C030008184E
:101EF00068808068180820302C03032C30200838B4
:101F0000C800C83808000000203F2000000010086A
:101F10000808C838080020382621202018000000B2
:101F200000FE020202000000007F40404000000C62
:101F300030C000000000000000010638C0000002B0
:101F40000202FE000000004040407F000000000050
:101F50000402020204000000000000000000000073
:101F6000000000000000808080808080808000026F
:101F7000020400000000000000000000000000005B
:101F80008080808000000019242222223F2008F84F
:101F9000008080000000003F112020110E00000092
:101FA000008080800000000E112020201100000021
:101FB00000808088F800000E112020103F200000D3
:101FC000808080800000001F2222222213000080D7
:101FD00080F0888888180020203F20200000000022
:101FE000808080808000006B94949493600008F857
:101FF000008080800000203F210000203F200080E2
:102000009898000000000020203F202000000000E1
:1020100000809898000000C08080807F000008F851
:10202000000080808000203F24022D302000000826
:1020300008F8000000000020203F202000008080E1
:10204000808080808000203F20003F20003F8080F3
:10205000008080800000203F210000203F20000001
:10206000808080800000001F202020201F008080B2
:1020700000808000000080FFA12020110E000000E1
:10208000008080808000000E112020A0FF808080D2
:1020900080008080800020203F212000010000007F
:1020A0008080808080000033242424241900008054
:1020B00080E0808000000000001F20200000808061
:1020C000000000808000001F202020103F20808022
:1020D00080000080808000010E30080601008080B2
:1020E0000080008080800F300C030C300F000080D7
:1020F0008000808080000020312E0E312000808002
:1021000080000080808080818E7018060100008031
:102110008080808080000021302C2221300000004F
:102120000000807C020200000000003F40400002EE
:10213000027C800000000040403F000000000000E2
:102140000000FF00000000000000FF00000040222F
:102150001408F40200F80808FF0808F8000000005E
:102160000000000000000000000000000000084423
:1021700082413F00206321213F212933600000007C
:10218000000000000000000000000000000020101F
:10219000E824272424E424342C20E000000000005C
:1021A000000000000000000000000000000080604F
:1021B0001F090909097F090949897F0000000000FA
:1021C000000000000000000000000000000000000F
:1021D0007C545556547C545655547C0000000000E5
:1021E00000000000000000000000000000000101ED
:1021F00001FD45454545454545FD010101000000FE
:1022000000000000000000000000000000000000CE
:102210003022000800000020AC000000C4010008CB
:10222000DC220008AC000020B4060000E001000839
:102230000100000010000000000000000024F40075
:10224000AE001040B081FFA1A6A83FC8D300D58042
:10225000D805D9F1DA12D8308D14AF000000000093
:102260000000000080800040E0E06000408000004E
:10227000008080606010000000000000000000008E
:1022800090B2666EECC98302004080000C0C010322
:10229000070F11204080000000000000000000082F
:1022A000183B3766EEEECC8880000001020408106F
:1022B00010101010100F0000000000003E404040C1
:1022C0003E007E0408107E007E003C4242424200F6
:0C22D0007E4242427E007E0408107E0028
:040000050800018965
:00000001FF
