:020000040800F2
:10000000A808002029020008D91600087512000867
:10001000771200081F040008511A000800000000B1
:10002000000000000000000000000000DD160008D5
:100030002104000800000000DB160008DF1600089D
:10004000430200084302000843020008430200087C
:10005000430200084302000843020008430200086C
:10006000430200084302000843020008430200085C
:10007000430200084302000843020008430200084C
:10008000430200084302000843020008430200083C
:10009000430200084302000843020008430200082C
:1000A000430200084302000843020008430200081C
:1000B000430200084302000843020008430200080C
:1000C00043020008430200084302000843020008FC
:1000D000430200082D1A00084302000843020008EA
:1000E00043020008430200084302000843020008DC
:1000F00043020008430200084302000843020008CC
:1001000043020008430200084302000843020008BB
:1001100043020008430200084302000843020008AB
:10012000430200084302000843020008430200089B
:100130004302000800000000000000004302000825
:10014000430200084302000843020008430200087B
:10015000430200084302000843020008430200086B
:10016000430200084302000843020008430200085B
:1001700043020008430200080000000000000000E5
:10018000430200084302000800F002F800F03CF8C7
:100190000AA090E8000C82448344AAF10107DA45E2
:1001A00001D100F031F8AFF2090EBAE80F0013F0F8
:1001B000010F18BFFB1A43F001031847441A00004F
:1001C000641A0000103A24BF78C878C1FAD85207E0
:1001D00024BF30C830C144BF04680C6070470000C1
:1001E0000023002400250026103A28BF78C1FBD840
:1001F000520728BF30C148BF0B6070471FB501F0E0
:10020000EDFC1FBD10B510BD00F0CFF81146FFF793
:10021000F5FF01F03DFC00F0EDF803B4FFF7F2FF4D
:1002200003BC00F0F5F80000094880470948004782
:10023000FEE7FEE7FEE7FEE7FEE7FEE7FEE7FEE796
:10024000FEE7FEE704480549054A064B70470000F3
:100250007917000889010008A8020020A8080020DA
:10026000A8040020A804002053EA020C00F06980D2
:100270002DE9F04B4FF00006002B1FBFB3FA83F5BA
:1002800003FA05F424FA05F65E4012BF1643B2FAEB
:1002900082F502FA05F4C5F120051EBF22FA05FC1D
:1002A00044EA0C04203556EA044C4FEA144418BFC3
:1002B000641C4FF000084FF00009904271EB030CF2
:1002C00039D3002919BFB1FA81F701FA07F6B0FA5C
:1002D00080F700FA07F6C7F120071EBF20FA07FCD7
:1002E00046EA0C062037B6FBF4FCA7EB0507103FE7
:1002F00007F01F0BCBF120060CFA0BFB2CFA06F6CD
:1003000044BFB3460026202FA4BF5E464FF0000B2B
:100310005BEA060C08BF4FF0010B19EB0B09ABFBB6
:10032000027C48EB0608C01B06FB02CC0BFB03CC8F
:1003300071EB0C01C1E70B46024641464846BDE859
:10034000F08B13B54FF000004FF00001AFF30080C9
:10035000BDE81C4070474FF0000200B513469446BC
:100360009646203922BFA0E80C50A0E80C50B1F10D
:100370002001BFF4F7AF090728BFA0E80C5048BF21
:100380000CC05DF804EB890028BF40F8042B08BFBF
:10039000704748BF20F8022B11F0804F18BF00F8BB
:1003A000012B7047704770477047754600F02CF876
:1003B000AE4605006946534620F00700854618B052
:1003C00020B5FFF73FFFBDE820404FF000064FF09B
:1003D00000074FF000084FF0000B21F00701AC467A
:1003E000ACE8C009ACE8C009ACE8C009ACE8C00999
:1003F0008D46704710B50446AFF300802046BDE837
:100400001040FFF70ABF0000004870474802002074
:1004100001491820ABBEFEE7260002007047FEE748
:1004200070472DE9F0410446876D00F05FF90646FC
:1004300094F835000025022806D08020606584F8F5
:1004400034500120BDE8F0812068016821F01601D8
:1004500001602068416921F080014161206C08B988
:10046000A06C20B12068016821F0080101602068BB
:10047000016821F0010101600CE000F037F9801BF8
:10048000052807D920206065032084F8350084F80A
:100490003450D7E720680068C007EED194F85C10AC
:1004A0003F208840B860012084F8350084F834503B
:1004B0000020C7E790F83510022903D0802141655C
:1004C00001207047052180F835100068016821F08F
:1004D000010101600020704770B5044600F006F984
:1004E0000546601C02D004480078044400F0FEF881
:1004F000401BA042FAD370BD080000202DE9F84F40
:10050000DFF8BCA10022012503264FF00F090AF1F4
:10051000040BAAF1040E00BF0B6805FA02F4234095
:10052000A34270D10F7907F00307012F01D0022FEA
:1005300016D187684FEA420806FA08FC27EA0C073A
:10054000D1F80CC00CFA08FC4CEA070CC0F808C043
:100550004768A7430C79C4F3001494403C434460BB
:100560000C79E443A4070AD0C4684FEA420C06FAA7
:100570000CF7BC438F6807FA0CF72743C7600C7968
:1005800004F00304022C12D1D40800EB840CDCF834
:1005900020405707FF0E09FA07F824EA0804D1F8AB
:1005A000108008FA07F848EA0408CCF820800468AC
:1005B0004FEA420C06FA0CF7BC430F7907F0030729
:1005C00007FA0CF7274307604C6814F4403F70D0DB
:1005D0003C4C276847F480472760246822F00307D3
:1005E00004F480440094384C07EB040CDCF8084811
:1005F00097074FEA177809FA08F7BC43334FB84218
:1006000002D1002724E054E0314FB84201D1012744
:100610001EE0304FB84201D1022719E02E4FB842F8
:1006200001D1032714E02D4FB84201D104270FE078
:100630002B4FB84201D105270AE02A4FB84201D119
:10064000062705E0284FB84201D1072700E0082718
:1006500007FA08F72743CCF80878DAF8004057463D
:10066000D1F804C09C435FEACC2C00D51C433C600D
:10067000DBF800405F46D1F804C09C435FEA8C2C55
:1006800000D51C433C60DEF800407746D1F804C03A
:100690009C435FEA8C3C00D51C433C60084F083FFC
:1006A0003C68D1F804C09C435FEACC3C00D51C43B5
:1006B0003C60521C102AFFF42FAFBDE8F88F0000F9
:1006C000083C014044380240003001400000024034
:1006D0000004024000080240000C024000100240EA
:1006E0000014024000180240001C024001488068CB
:1006F0007047000008000020024881680278114419
:1007000081607047080000200B4810B5016841F473
:1007100000710160016841F480610160016841F489
:1007200080710160032000F07BF80F2000F006F8D4
:1007300000F024F8002010BD003C024070B50D4DC3
:1007400004464FF47A712878B1FBF0F00A49096841
:10075000B1FBF0F000F018FB48B9102C07D20022D2
:100760002146501E00F03CF800206C6070BD012056
:1007700070BD000008000020140000200A4808B5E1
:10078000016841F480410160006800F480400090FD
:100790000548001F016841F080510160006800F0C9
:1007A0008050009008BD000044380240002809DB5A
:1007B00000F01F02012191404009800000F1E0207B
:1007C000C0F880127047002809DB00F01F020121E9
:1007D00091404009800000F1E020C0F8001170470E
:1007E000F0B40E4B1B680C46C3F30223C3F107059C
:1007F000042D00D90425191D072901D2002300E08A
:10080000DB1E012606FA05F1491E214099409E4053
:10081000761E16403143F0BC01F01BB90CED00E030
:10082000064900F0070208684FF6FF03184040EA47
:100830000220034A10430860704700000CED00E0FE
:100840000000FA052DE9F0470E46050065D0DFF8F7
:100850001481D8F80000F7B200F00700B04207D2C8
:1008600088F80070D8F8000000F00700B04254D1BA
:1008700028683D4C810712D5400703D5206840F415
:10088000E05020602878000703D5206840F46040DD
:1008900020602068A96820F0F000084320602878D4
:1008A000C0072DD0304968680839012812D00228C5
:1008B00013D0032811D00968890700292DDA21688F
:1008C00021F0030101432160FFF710FF814641F24F
:1008D000883A0EE009688903EFE709688901ECE7C7
:1008E000FFF704FFA0EB0901514502D90320BDE841
:1008F000F0872068696800F00C00B0EB810FEFD141
:10090000D8F80010404601F00701B14207D907703E
:10091000006800F00700B04201D00120E7E7287826
:10092000400705D52068E96820F4E05008432060BE
:100930002878000706D52068296920F4604040EA3D
:10094000C100206000F038F82168084AC1F30311A3
:10095000515CC8400649086006480068FFF7EEFE93
:100960000020C4E7003C024008380240E61B0008B3
:10097000140000200C0000200448054900680968A4
:10098000044AC1F38221515CC84070471400002022
:1009900008380240F61B0008044805490068096849
:1009A000044AC1F34231515CC84070471400002032
:1009B00008380240F61B0008154810B5006810F012
:1009C0000C02144813D01449042A0FD0082A0ED15F
:1009D0000F4C241F2268236802F03F025B0207D5F8
:1009E0002068C0F38810A0FB010106E0084610BD96
:1009F0002168C1F38811A1FB00010023FFF734FC3B
:100A00002168C1F30141491C4900B0FBF1F010BD60
:100A1000083802400024F40040787D012DE9F84FA9
:100A200004006ED02078DFF84C93C007A9F10405CC
:100A30004AD009F104000168C1F38101012908D0FD
:100A40000068C0F3810002280AD1D9F800004002F2
:100A500006D52868800337D560680028E1D033E0E8
:100A60006068B0F5803F10D0B0F5A02F286810D096
:100A700020F480302860286820F480202860606896
:100A8000A8B1FFF733FE06460DE0286840F4803039
:100A9000F4E740F480202860F7E700BFFFF726FE68
:100AA000801B642873D828688003F7D50CE0FFF713
:100AB0001DFE064605E000BFFFF718FE801B6428F8
:100AC000F0D828688003F7D42078DFF8AC8280075C
:100AD0004FF0000A3ED5A748001D016811F00C0F29
:100AE00008D00068C0F3810002280BD1D9F80000BB
:100AF000400207D42868800716D5E068012800D195
:100B000012E033E1E068B8B10120C8F80000FFF757
:100B1000EDFD064605E000BFFFF7E8FD801B02285B
:100B2000C0D828688007F7D52868216920F0F80028
:100B300040EAC10028600DE0C8F800A0FFF7D6FD2C
:100B4000064604E0FFF7D2FD801B02281FD8286864
:100B50008007F7D42078000722D5864F874861693F
:100B6000703771B101210160FFF7C0FD064604E056
:100B7000FFF7BCFD801B022809D838688007F7D52D
:100B80000EE0C0F800A0FFF7B1FD064605E082E0E8
:100B9000FFF7ACFD801B02287DD838688007F7D4AA
:100BA0002078400768D5DFF8CCB100270BF13C0B6B
:100BB000DBF80000C0000BD4DBF8001041F08051DE
:100BC000CBF80010DBF80000012700F08050009007
:100BD0006B4E3068C00510D4306840F480703060CF
:100BE000FFF784FD009005E0FFF780FD0099401AB3
:100BF000022850D83068C005F6D55E4EA0686C3625
:100C000001280FD00528306810D020F00100306096
:100C1000306820F004003060A068B8B1FFF766FDCE
:100C200000900FE0306840F00100F4E740F004006D
:100C30003060F7E7FFF75AFD0099411A41F288301A
:100C4000814266D830688007F4D50EE0FFF74EFD8C
:100C5000009007E0FFF74AFD0099411A41F2883001
:100C6000814256D830688007F4D42FB1DBF80010E9
:100C700021F08051CBF80010A069C8B33D49091D8F
:100C80000968C1F3810102294AD00228504607D0E1
:100C9000C8F8600000E03CE0FFF728FD04463BE0B8
:100CA0004746C8F86000FFF721FD064605E000BF93
:100CB000FFF71CFD801B02282BD828688001F7D481
:100CC000D4E907010843A16A2E4A490802EB014111
:100CD000626A41EA8211084394F82C1040EA0161EB
:100CE000C9F8001001203866FFF700FD044606E051
:100CF0003EE000BFFFF7FAFC001B022809D8286875
:100D00008001F7D534E000BFFFF7F0FC001B02289C
:100D100002D90320BDE8F88F28688001F4D427E0C9
:100D20000128F7D0D9F80000E26900F4800191426F
:100D30001CD1226A00F03F01914217D147F6C071E1
:100D4000626A0140B1EB821F10D1A26A4FF0FF33FB
:100D500000F4403103EB5202B1EB024F06D194F89C
:100D60002C1000F07060B0EB016F01D00120D1E7D2
:100D70000020CFE70438024000004742800E47427F
:100D8000007000400000FFFF10B5401EB0F1807FF2
:100D900001D3012010BD4FF0E02460610F216017E6
:100DA00000F057FE0020A06107202061002010BD48
:100DB00070477047F8B5016804460868CA684B690F
:100DC00010F00F0F4FF0000559D003F0010602F4A8
:100DD0009077374365D0C10705D0D10503D5216C85
:100DE00041F001012164410705D5D90703D0216CE9
:100DF00041F002012164810705D5D90703D0216C98
:100E000041F004012164010707D502F020013143BC
:100E100003D0216C41F008012164216C00293AD0F3
:100E2000800604D5900602D5204600F0DCFC206840
:100E30004069216CC0F38010090700D460B32046DC
:100E400000F0AAFC20684069400621D520681430D3
:100E500050E8001F21F0400140E80012002AF5D1BF
:100E6000A06BA8B16C490165A06BFFF723FB0028BC
:100E700011D0A06B016D01B0BDE8F04008478306BA
:100E80000FD593060DD52046BDE8F84000F0ABBC69
:100E90002046FFF78EFFF8BD2046FFF78AFF256446
:100EA000F8BD266B2023012E79D1C60677D5D6064C
:100EB00075D50868486800904869400640D5A16B20
:100EC000086840680004000CEAD0A28D8242E7D98D
:100ED000E085C869B0F5807F2DD020680C3050E8DF
:100EE000001F21F4807140E80012002AF5D120682B
:100EF000143050E8001F21F0010140E80012002AE0
:100F0000F5D12068143050E8001F21F0400140E87E
:100F10000012002AF5D184F83E30256320680C3099
:100F200050E8001F21F0100140E80012002AF5D11E
:100F3000A06BFFF776FAA08DE18D401A81B229E00F
:100F4000A08DE18D401A81B2E08D0028A8D0002943
:100F5000A6D020680C3050E8002F22F4907240E8B0
:100F60000026002EF5D12068143050E8002F22F022
:100F7000010240E80026002EF5D184F83E302563BA
:100F800020680C3050E8002F22F0100240E80023C7
:100F9000002BF5D12046FFF70BFFF8BDFFE7050654
:100FA0002BD5150629D594F83D002128F5D1A06848
:100FB000B0F5805F01D12069B0B1206A411C216287
:100FC000216800784860E08C401E0004000CE0843A
:100FD000E3D12068C16821F08001C1602068C16848
:100FE00041F04001C160D8E7206A0088C0F30800E2
:100FF0004860206A801C2062E5E74006CDD5500697
:10100000CBD5CA68204622F04002CA6084F83D3041
:1010100000F02FF9C1E700008917000870B504003F
:1010200004D094F83D00002510B106E0012070BD09
:1010300084F83C50204600F023F8242084F83D003A
:101040002068C16821F40051C160204600F02CFCEA
:101050002068016921F4904101612068416921F013
:101060002A0141612068C16841F40051C1602564D2
:10107000202084F83D0084F83E00002070BD000070
:1010800010B586B0044614216846FFF764F9184984
:101090002068884229D117480021026842F01002D6
:1010A0000260006800F010000590124814380268D1
:1010B00042F001020260006800F0010005904FF468
:1010C000C06000900220CDE90101032003900720B9
:1010D000049069460848FFF711FA002211462520BE
:1010E000FFF77EFB2520FFF76EFB06B010BD00006A
:1010F0000010014044380240000002402DE9F84F42
:10110000044690F83E009A4616460D46202853D1D4
:10111000FDB1F6B194F83C0001284DD0012084F8CF
:101120003C0000272764222084F83E002763FFF755
:10113000DDFAA6858146E685A0684FF480584045D3
:1011400001D1206940B12E465FF0000584F83C7063
:1011500027E00120BDE8F88F0026F7E74B46002284
:1011600020212046CDF800A000F024FC08B1032087
:10117000F0E726B1A06840451BD038B108E02068F0
:101180004068C0F3080025F8020B07E0206980B131
:101190002068406800F07F0006F8010BE08D401EDB
:1011A000E085E08D0028D9D1202084F83E00002081
:1011B000D0E720684068EFE70220CBE770470000E7
:1011C0002DE9F843044690F83D001F4616460D46AB
:1011D00020284CD1C5B1BEB194F83C00012846D0BE
:1011E000012084F83C004FF00008C4F84080212022
:1011F00084F83D00FFF77AFAA6848146E684A06869
:10120000B0F5805F03D004E00120BDE8F8832069D9
:1012100028B12E465FF0000584F83C800EE00026E1
:10122000FAE78021204600F0C5FBA0B9AEB116F860
:10123000010B21684860E08C401EE084E08C4B4646
:101240004FF0000200970028EBD14FF040012046FC
:1012500000F0B0FB30B10320D7E735F8020BC0F344
:101260000800E6E7202084F83D000020CDE70220BA
:10127000CBE77047FEE7FEE72DE9F04FDFF838A334
:10128000C1B007469AF8001000258DF8001002241E
:101290004FF0080968468DF80170032F09D004DC6F
:1012A000012F06D0022F13D103E0042F01D0172FF6
:1012B0000ED1BAF804100B0A8DF802308DF8031025
:1012C000BAF806100A0A8DF804208DF805100624D5
:1012D000102F0BD006DC052F08D0062F06D00F2FBD
:1012E0000BD103E0162F01D0172F06D1BAF8081042
:1012F0000A0A0255641C0155641CAF49DFF8BC8220
:101300004FF6FF7B4989B8F800C00B0A4FEA1C264C
:10131000CAB20CF0FF0C102F3ED006DC052F09D00E
:10132000062F0BD00F2F5ED10EE0162F4ED0172FA9
:1013300059D131E00355641C025503E00655641C85
:1013400000F804C0641C4EE00355641C02554A07B3
:10135000994904F1010449894FEAD10100D0491C9F
:10136000CAB202550021641C0EE000BF11F0010357
:101370000DD03BB121F0010338F803301B0A0355AF
:10138000641CE4B2491CC9B29142EFD32BE021F0B6
:10139000010318F80330F2E70355641CCBB2025581
:1013A000641C0BEA410202550022641C0BE000BFE2
:1013B00038F812100E0A0655641CE4B20155641C7C
:1013C000521CE4B2D2B29342F2D80CE00655641C2F
:1013D00000F804C0B8F80210641C0A0A0255641C24
:1013E0000155641CE4B25A460026804608E000BF5E
:1013F00018F80610104600F03CFB761C0246F6B2C8
:10140000A642F5D308F80420641CE1B2120A08F8D9
:101410000120491CCCB2002108F8041000F038F972
:101420002146684600F04AF9002400F003F9064618
:1014300000F01CF948B100F00BF908F80400641C36
:10144000A9F10100E4B200F0FF09052C2DD19DF8AF
:1014500000109AF80000814201D0E025A0E09DF83C
:10146000010000F07F01B94201D0E12598E0C109F7
:1014700002D09DF8025025E0062812D006DC06288E
:1014800013D2DFE800F0120B0B0B0B0E0F2808D065
:10149000102806D0162806D0172806D19DF802007D
:1014A00002E0032000E00520814600F0C3F8801B25
:1014B000B0F5FA6F00D9E225B9F1000F02D0002D86
:1014C000B6D06DE09DBB052C1AD300265846A71E4A
:1014D00006E000BF18F8061000F0CBFA761CF6B252
:1014E000BE42F7DB08EB0401C2B211F8023C9A429B
:1014F00004D111F8011C000A884201D0E3254FE015
:101500002E4A9DF80100803A03282ED004DC0128E1
:1015100007D0022844D104E0042826D017283FD160
:1015200023E00020414653469DF802400DE01BE0B9
:10153000402807D201EB40063779F67806EB0726FC
:1015400022F81060D870401CC0B2B0EB540FEFD33B
:10155000E40725D0402804D208EB4001C97822F8DE
:101560001010401C8AF803001AE09DF802100020B9
:10157000B0EB510F14D243464FEA0A0403EB400686
:1015800096F803C0377907EB0C2622F81060E0705C
:10159000401CC0B2B0EB510F02D24028EED3F6E7A8
:1015A00000208AF80100AAF80C008AF8020041B075
:1015B0002846BDE8F08F000018000020EC00002055
:1015C000024800214170818100F036B818000020E7
:1015D000402803D2034931F8100070474FF6FF70DE
:1015E000704700006C000020034B18709980DA806F
:1015F0000420FFF741BE000018000020054B1870C2
:10160000198112B14FF47F4000E00020588105207D
:10161000FFF732BE1800002010B5012301461A461C
:101620000348FFF76BFD002800D0012010BD00002B
:1016300028000020FFF75AB8044910B5C822A1F1CC
:10164000140000F097FA012010BD00008001002076
:1016500010B5FF24044800F096FA18B9024800F0CB
:101660009AFA0446204610BD6C010020074810B5C8
:10167000807C012802D1054800F076FA034800F08A
:1016800082FA08B1002010BD012010BD6C010020BD
:1016900010B5024800F068FA10BD00006C0100208F
:1016A00008B56846FFF7B8FF002804D19DF8001080
:1016B000014800F081FA08BD6C0100200A4610B50F
:1016C0000146FF230348FFF77BFD002800D00120DF
:1016D00010BD000028000020FEE770477047FFF7AC
:1016E0000BB8000030B593B030216846FEF733FEEA
:1016F00014210CA8FEF72FFE1D480025016841F0BB
:1017000080510160006800F0805011901948016814
:1017100041F4804101600068022400F4804011908F
:101720000120039010200490009406940820CDE935
:101730000750A820CDE9090404200B906846FFF764
:101740006DF908B172B6FEE70CA90F2081E83100EF
:101750004FF4A0500F904FF48050109005210CA82A
:10176000FFF770F8002801D072B6FEE713B030BD65
:1017700040380240007000400248016841F47001A6
:101780000160704788ED00E010B5806B0021C185D5
:10179000C184FFF70EFB10BD01680C3151E8002F2A
:1017A00022F4907241E80023002BF5D10168143136
:1017B00051E8002F22F0010241E80023002BF5D16F
:1017C000016B012909D101680C3151E8002F22F089
:1017D000100241E80023002BF5D1202180F83E10B3
:1017E00000210163704708B590F83E10222901D00E
:1017F000022008BD82684FF480539A4201D10169EA
:1018000021B1816A9A421BD04AB10AE00268816A1A
:101810005268C2F308020A80816A891C08E00269E2
:1018200072B10268526802F07F020A70816A491C34
:101830008162C18D491E0904090CC18503D019E0DC
:1018400002685268F1E70168CA6822F02002CA60A3
:101850000168CA6822F48072CA6001684A6922F08D
:1018600001024A61202180F83E10016B012903D05A
:10187000FFF7A4FC002008BD0021016301680C31C2
:1018800051E8002F22F0100241E80023002BF5D18F
:1018900001680A68D20602D50A6849680091818DFC
:1018A000FFF786FAE6E7000070B5044600680169B4
:1018B000E26821F44051114301612169A068E269A5
:1018C00008436169114308432168CA6849F20C63FF
:1018D0009A430243CA6020684169A26921F44071B9
:1018E0001143416131492068884202D03049884221
:1018F00002D1FFF751F801E0FFF73EF8E26900235B
:10190000192164253226B2F5004F626828D0A0FB69
:101910000101930F9200FEF7A7FC0146B0FBF5F022
:101920006FF01802504301EB800006EB0010B0FB93
:10193000F5F000F0F002B1FBF5F002EB0012B1FBA4
:10194000F5F06FF01803584301EB800006EB001030
:10195000B0FBF5F000F00F0021681044886070BD06
:10196000A0FB010192185B41FEF77EFC0146B0FB33
:10197000F5F00201B1FBF5F06FF01803584301EBED
:10198000800006EBC000B0FBF5F000F0F80002EBC1
:101990004002B1FBF5F0584301EB800006EBC000BC
:1019A000B0FBF5F000F00700D6E7000000100140A2
:1019B000001401402DE9F041984617460E460446B2
:1019C000069D27E0681C25D02DB1FEF78FFEA0EB09
:1019D0000800A8421ED920680C3050E8001F21F4EE
:1019E000D07140E80012002AF5D12068143050E888
:1019F000001F21F0010140E80012002AF5D120204B
:101A000084F83D0084F83E00002084F83C00032068
:101A1000BDE8F0812068006836EA000004D00020AC
:101A2000B842CFD00020F3E70120F9E7074810B50E
:101A30000068C068800601D5FFF732FE2520FEF75A
:101A4000B5FEBDE810400148FFF7B4B928000020FA
:101A5000FEE70907090E002804DB00F1E02080F80A
:101A60000014704700F00F0000F1E02080F8141D12
:101A70007047484000214AF20102C30702D082EABF
:101A8000500000E04008491C0829F6DB70470000C0
:101A900008B5FEF739FEFFF725FE2F480021026842
:101AA00042F080020260026802F080020092026846
:101AB00042F0010202600068294C00F00100009031
:101AC000264820604FF4E130C4E901010C20E160B8
:101AD000C4E90410A1612046E161FFF79FFA08B153
:101AE00072B6FEE7FFF76CFD2068C16841F0200187
:101AF000C1601C4D4FF47A77AC1C7E10022200218D
:101B00000120FFF771FD287038B90020FFF760FD54
:101B100020800120FFF75CFD60803846FEF7DCFC8A
:101B2000012202211046FFF769FD00220321012056
:101B3000FFF764FD3046FEF7CFFC002202210120B2
:101B4000FFF75CFD012203211046FFF757FD3046E9
:101B5000FEF7C2FCD2E7000030380240001001401E
:101B6000280000200000002001688160C160002181
:101B7000817470478B18C0E900138160C1600282D4
:101B8000002181747047D0E90210814201D1012007
:101B9000704700207047D0E902128A4201D100202C
:101BA0007047511CC16043681278994202D1038A80
:101BB000C91AC1601046704710B582684468134660
:101BC000521C944201D1048A121BC468944202D070
:101BD0001970826010BD0121817410BD4FF04070FA
:101BE000E1EE100A70470000000000000000010252
:101BF00003040607080900000000010203040000B6
:101C0000201C00080000002028000000C40100087B
:101C1000481C00082800002080080000E00100089F
:101C200000000000000000000100000010000000A3
:101C3000000000000024F40000000000000000008C
:081C400000000000000000009C
:040000050800018965
:00000001FF
