:020000040800F2
:10000000C0090020CD0100086B130008CD120008C4
:1000100069130008C5030008191700080000000054
:100020000000000000000000000000006F13000846
:10003000C7030008000000006D13000871130008DA
:10004000E7010008E7010008E7010008E7010008F0
:10005000E7010008E7010008E7010008E7010008E0
:10006000E7010008E7010008E7010008E7010008D0
:10007000E7010008E7010008E7010008E7010008C0
:10008000E7010008E7010008E7010008E7010008B0
:10009000E7010008E7010008E7010008E7010008A0
:1000A000E7010008E7010008E7010008E701000890
:1000B000E7010008E7010008E7010008E701000880
:1000C000E7010008E7010008E7010008E701000870
:1000D000E7010008CD160008E7010008E701000865
:1000E000E7010008E7010008E7010008E701000850
:1000F000E7010008E7010008E7010008E701000840
:10010000E7010008E7010008E7010008E70100082F
:10011000E7010008E7010008D5130008E70100081F
:10012000E7010008E7010008E7010008E70100080F
:1001300000F002F800F03AF80AA090E8000C8244BF
:100140008344AAF10107DA4501D100F02FF8AFF29C
:10015000090EBAE80F0013F0010F18BFFB1A43F0A5
:1001600001031847E41D0000041E0000103A24BFDC
:1001700078C878C1FAD8520724BF30C830C144BF0C
:1001800004680C607047000000230024002500264E
:10019000103A28BF78C1FBD8520728BF30C148BFEA
:1001A0000B6070471FB51FBD10B510BD00F0D7F82C
:1001B0001146FFF7F7FF01F03BFE00F0F5F803B43E
:1001C000FFF7F2FF03BC00F091F8000009488047F8
:1001D00009480047FEE7FEE7FEE7FEE7FEE7FEE729
:1001E000FEE7FEE7FEE7FEE704480549054A064B41
:1001F00070470000D113000831010008C00300203F
:10020000C0090020C0050020C0050020032A40F2DC
:10021000308010F0030C00F0158011F8013BBCF1A8
:10022000020F624498BF11F801CB00F8013B38BFC0
:1002300011F8013BA2F1040298BF00F801CB38BFCE
:1002400000F8013B11F0030300F05680083AC0F0BB
:10025000088051F8043B083A51F804CBA0E8081094
:10026000F5E7121D5CBF51F8043B40F8043BAFF3C7
:100270000080D20724BF11F8013B11F801CB48BF21
:1002800011F8012B24BF00F8013B00F801CB48BF57
:1002900000F8012B70474FF0000200B5134694465A
:1002A0009646203922BFA0E80C50A0E80C50B1F1CE
:1002B0002001BFF4F7AF090728BFA0E80C5048BFE2
:1002C0000CC05DF804EB890028BF40F8042B08BF80
:1002D000704748BF20F8022B11F0804F18BF00F87C
:1002E000012B704770477047704700000149182084
:1002F000ABBEFEE72600020010B5203AC0F00B802E
:10030000B1E81850203AA0E81850B1E81850A0E819
:100310001850BFF4F5AF5FEA027C24BFB1E8185073
:10032000A0E8185044BF18C918C0BDE810405FEAE3
:10033000827C24BF51F8043B40F8043B08BF70475F
:10034000D20728BF31F8023B48BF11F8012B28BF64
:1003500020F8023B48BF00F8012B704770477546F4
:1003600000F02CF8AE4605006946534620F0070021
:10037000854618B020B5FFF737FFBDE820404FF0A5
:1003800000064FF000074FF000084FF0000B21F07F
:100390000701AC46ACE8C009ACE8C009ACE8C0094C
:1003A000ACE8C0098D46704710B50446AFF3008035
:1003B0002046BDE81040FFF702BF0000004870472C
:1003C00060030020FEE7704772B6FEE710B590F8B4
:1003D00021100022022905D00421816380F8202009
:1003E000012010BD01680B6823F00E030B6001684B
:1003F0000B6823F001030B6090F84030C46B0121BF
:1004000001FA03F3636080F8211080F82020104681
:1004100010BD00002DE9F05F90F8211000240229A2
:1004200003D004218163012485E001680A6822F079
:100430000E020A6001680A6822F001020A603F4E5B
:100440003E4FB215DFF8F4C0DFF8F090DFF8ECA013
:10045000DFF8E8B0DFF8E4E00168783F1301150247
:10046000ACF1640CA9F15009AAF13C0AABF1280BDC
:10047000AEF1140E4FF48018B14227D9B9420ED014
:10048000614512D049451DD0514518D0594518D065
:10049000714501D1424615E0294EB14201D10122F8
:1004A00010E0274E1436B14201D110220AE0244E4A
:1004B0002836B14206D0224A3C32914201D11A4636
:1004C00000E02A461E49091F0A602BE0B94213D0FA
:1004D000614517D0494522D051451DD059451DD001
:1004E000714501D142461AE0B14202D14FF080720B
:1004F00015E0134EB14201D1012210E0104E143626
:10050000B14201D110220AE00D4E2836B14206D088
:100510000B4A3C32914201D11A4600E02A46074973
:1005200080394A60012180F82110002180F82010D4
:10053000416B01B188472046BDE8F09F8000024032
:100540000804024070B5044600F00AF90546601C34
:1005500002D004480078044400F002F9401BA04295
:10056000FAD370BD000000202DE9F84FDFF8C891E4
:10057000002409F1040A0AF1040B23460F270BF1AA
:10058000040ED1E00125A54006EA0502AA4276D173
:10059000DFF8A8C14E68A6EB0C0866452BD00DDC31
:1005A000032E34D005DC36B3012E19D0022E2FD104
:1005B0001BE0112E16D0122E2AD119E0B8F5881F93
:1005C00019D006DCB8F5803F15D0B8F5801F1FD1D3
:1005D00011E0B8F5001F0ED0B8F5041F18D10AE0DD
:1005E000CB6815E0CB681B1D12E0CB6808330FE029
:1005F000CB680C330CE08B682BB1012B4FF0080358
:1006000003D0456104E0042302E0056100E000231B
:10061000FF2A01D8064601E000F104064FEA8405EE
:1006200001D9A5F12005D6F8008007FA05FC28EAD3
:100630000C0803FA05F548EA0508C6F800804D687D
:10064000ED0070D53E4DAE6946F00106AE61AD6974
:1006500024F0030605F0010500953A4D06EB050C64
:10066000DCF80850A607360F07FA06F825EA080551
:10067000DFF8D480404503D14FF0000825E052E078
:10068000DFF8C880404502D14FF001081DE0DFF8D7
:10069000C080404502D14FF0020816E0DFF8B48078
:1006A000404502D14FF003080FE0DFF8AC80404531
:1006B00002D14FF0040808E0DFF8A080404502D1E5
:1006C0004FF0050801E04FF0060808FA06F848EA7E
:1006D0000508CCF808804D68D9F80060ED034D4658
:1006E00001D5164300E096432E604D68DAF80060AD
:1006F000AD03554601D5164300E096432E604D6884
:10070000DBF80060ED025D4601D5164300E096433C
:100710002E604D68DEF80060AD02754601D51643C7
:1007200000E096432E60641C0A681646E2407FF49F
:1007300029AFBDE8F88F000000040140000011104F
:10074000001002400000014000080140000C014080
:10075000001001400014014000180140001C01403D
:10076000014880687047000000000020024881684E
:10077000027811448160704700000020074810B5DE
:10078000016841F010010160032000F075F80F20AE
:1007900000F006F800F024F8002010BD0020024010
:1007A00070B50D4D04464FF47A712878B1FBF0F026
:1007B0000A490968B1FBF0F000F0ECFA48B9102CD6
:1007C00007D200222146501E00F036F800206C604F
:1007D00070BD012070BD0000000000200C00002052
:1007E0000C4808B5816941F001018161816901F01E
:1007F00001010091C16941F08051C161C06900F0FF
:10080000805000900448416821F0E06141F000719F
:10081000416008BD0010024000000140002809DBD3
:1008200000F01F02012191404009800000F1E0200A
:10083000C0F8001170470000F0B40E4B1B680C4666
:10084000C3F30223C3F10705042D00D90425191DA4
:10085000072901D2002300E0DB1E012606FA05F17C
:10086000491E214099409E40761E16403143F0BCFF
:1008700000F053BF0CED00E0064900F007020868E5
:100880004FF6FF03184040EA0220034A1043086075
:10089000704700000CED00E00000FA052DE9F0477C
:1008A0000F46050061D0434E306800F00700B842A3
:1008B00009D2306820F0070038433060306800F01B
:1008C0000700B84251D128683B4C810712D5400738
:1008D00003D5606840F4E06060602878000703D5C5
:1008E000606840F4605060606068A96820F0F000C3
:1008F000084360602878C00728D06868012810D0B5
:100900002168022810D0890700292EDA616821F0B9
:10091000030101436160FFF723FF804641F28839FC
:100920000DE021688903EFE78901EDE7FFF718FF84
:10093000A0EB0801494502D90320BDE8F0876068B3
:10094000696800F00C00B0EB810FEFD1306800F067
:100950000700B8420BD9306820F0070038433060F8
:10096000306800F00700B84201D00120E5E72878A0
:10097000400705D56068E96820F4E06008436060DE
:100980002878000706D56068296920F4605040EA9D
:10099000C100606000F038F86168084AC1F30311D3
:1009A000515CC8400649086006480068FFF7F8FE39
:1009B0000020C2E70020024000100240301F000863
:1009C0000C00002004000020044805490068496824
:1009D000044AC1F30221515CC84070470C0000205A
:1009E00000100240401F000804480549006849689B
:1009F000044AC1F3C221515CC84070470C0000207A
:100A000000100240401F000812A185B00FC98DE8F8
:100A10000F0014A0144A006804905168134801F0B4
:100A20000C03042B10D0082B0ED1C1F38343C90350
:100A30001DF803000AD5516804AAC1F34041515C76
:100A40000A4A5043B0FBF1F005B0704708494843EB
:100A5000FAE7000002030405060708090A0B0C0D5B
:100A60000E0F1010010200000010024000127A0068
:100A700000093D002DE9F84F040070D02078C04DEA
:100A8000C00749D06868C0F38100012807D06868B2
:100A9000C0F38100022809D16868C00306D5286820
:100AA000800339D560680028E7D035E06068B0F58C
:100AB000803F0BD010B1B0F5A02F11D0286820F4E2
:100AC00080302860286820F4802002E0286840F404
:100AD00080302860606890B1FFF742FE06460AE069
:100AE000286840F480202860F0E700BFFFF738FE58
:100AF000801B642873D828688003F7D50CE0FFF7C3
:100B00002FFE064605E000BFFFF72AFE801B642883
:100B1000F0D828688003F7D420789A4E80074FF0E9
:100B200001094FF0000839D5686810F00C0F07D0A4
:100B30006868C0F38100022809D16868C00306D440
:100B40002868800714D52069012808D110E02069A1
:100B5000B0B1C6F80090FFF703FE074605E00AE1D2
:100B6000FFF7FEFDC01B0228C4D828688007F7D510
:100B70002868616920F0F80040EAC10028600DE0B3
:100B8000C6F80080FFF7ECFD074604E0FFF7E8FD3C
:100B9000C01B022823D828688007F7D420780007D4
:100BA0002CD57948A169D9B1C0F80090FFF7D8FDDC
:100BB000074604E0FFF7D4FDC01B02280FD8686A7F
:100BC0008007F7D571484FF4FA510068B0FBF1F097
:100BD000009000BF0098411E0091FAD20EE080E024
:100BE000C0F80080FFF7BCFD074604E0FFF7B8FD42
:100BF000C01B022875D8686A8007F7D420784007A0
:100C000060D5E8690027C00008D4E86940F080504A
:100C1000E861E869012700F0805000905C480168B5
:100C2000C90513D40168834641F480710160FFF760
:100C300097FD824606E000BFFFF792FDA0EB0A0099
:100C400064284ED8DBF80000C005F5D5E06801281F
:100C50000AD008B1052813D0286A20F001002862C4
:100C6000286A20F0040002E0286A40F001002862AF
:100C7000E06841F2883B98B1FFF772FD82460BE0D5
:100C8000286A40F004002862EEE700BFFFF768FD25
:100C9000A0EB0A0159455AD8286A8007F6D50CE01E
:100CA000FFF75EFD824605E0FFF75AFDA0EB0A0163
:100CB00059454CD8286A8007F6D41FB1E86920F05E
:100CC0008050E861E06988B36968C1F38101022955
:100CD00044D00228C6F8608004D0FFF741FD0446E6
:100CE00038E034E0FFF73CFD074604E0FFF738FD4D
:100CF000C01B02282BD828688001F7D4206AB0F5E1
:100D0000803F05D16868A16820F40030084368601E
:100D1000D4E908010843696821F474110843686044
:100D2000C6F86090FFF71CFD044606E025E000BF12
:100D3000FFF716FD001B022809D828688001F7D5A7
:100D40001BE000BFFFF70CFD001B022802D90320A7
:100D5000BDE8F88F28688001F4D40EE00128F7D0B0
:100D60006868226A00F48031914204D1616A00F41B
:100D70007010884201D00120EAE70020E8E7000077
:100D80000010024000004242800442420C00002059
:100D90000070004010B5401EB0F1807F01D30120EB
:100DA00010BD4FF0E02460610F21601700F0B5FC2A
:100DB0000020A06107202061002010BD70B590F8D0
:100DC0003C20012A2CD0012480F83C40022280F8EB
:100DD0003D2003685A689D6822F070060A68324315
:100DE0005A60104B02689A420ED00F4B9A420BD0B9
:100DF000B2F1804F08D00D4B9A4205D00C4B9A426D
:100E000002D00C4B9A4204D1496825F08003194363
:100E1000916080F83D40002180F83C10084670BD8C
:100E2000022070BD002C014000340140000400404D
:100E300000080040000C004010B5040003D094F8F6
:100E40003D0010B107E0012010BD002084F83C00F7
:100E5000204600F01FF8022084F83D00211D206884
:100E600000F0C8FA012084F8460084F83E0084F8B7
:100E70003F0084F8400084F8410084F8420084F880
:100E8000430084F8440084F8450084F83D000020C5
:100E900010BD000008B500680B49884212D10B480C
:100EA000C16941F01001C161C069002200F0100069
:100EB000009003213620FFF7BFFCBDE80840362034
:100EC000FFF7ACBC08BD000000100040001002405D
:100ED00070477047F8B5026804461068D1685369D6
:100EE00010F00F0F4FF0000553D003F0010601F48E
:100EF000907737435FD0C20705D0CA0503D5226C6F
:100F000042F001022264420705D5DA0703D0226CC1
:100F100042F002022264820705D5DA0703D0226C70
:100F200042F004022264020707D501F02002324396
:100F300003D0226C42F008022264226C002A34D0D2
:100F4000800604D5880602D5204600F0B9FA20684C
:100F50004069216CC0F38010090700D430B32046EB
:100F600000F096FA2068416949061BD5416921F0D5
:100F700040014161A06BA8B158494163A06BFFF7E4
:100F800049FA002811D0A06B416B01B0BDE8F040D8
:100F9000084783060FD58B060DD52046BDE8F840DF
:100FA00000F08EBA2046FFF794FFF8BD2046FFF709
:100FB00090FF2564F8BD266B2023012E52D1C60672
:100FC00050D5CE064ED51068506800905069400646
:100FD0002AD5A16B086840680004000CEAD0A68DF1
:100FE0008642E7D9E0858869202818D0D06820F4A7
:100FF0008070D0602068416921F001014161206862
:10100000416921F04001416184F83E302563206848
:10101000C16821F01001C160A06BFFF7D7F9A08D66
:10102000E18D401A81B219E0A08DE18D401A81B2A4
:10103000E08D0028BED00029BCD0D06820F490708C
:10104000D0602068426922F00102426184F83E309B
:1010500025632068C26822F01002C2602046FFF7B4
:1010600037FFF8BD05062BD50D0629D594F83D00B0
:101070002128F6D1A068B0F5805F01D12069B0B118
:10108000206A411C2162216800784860E08C401E83
:101090000004000CE084E4D12068C16821F08001E4
:1010A000C1602068C16841F04001C160F8BD206A9C
:1010B0000088C0F308005060206A801C2062E5E7C9
:1010C0004006F3D54806F1D5D168204621F040010D
:1010D000D16084F83D3000F0F8F8F8BD81140008C4
:1010E00070B5040004D094F83D00002510B106E06E
:1010F000012070BD84F83C50204600F023F82420E5
:1011000084F83D002068C16821F40051C160204688
:1011100000F032FA2068016921F4904101612068F1
:10112000416921F02A0141612068C16841F4005100
:10113000C1602564202084F83D0084F83E00002032
:1011400070BD000030B585B0002400940194029475
:10115000039400681449884224D11448816941F4F9
:1011600080418161816901F480410491816941F08C
:101170000401816180690E4D00F0040004904FF479
:1011800000700090022001900320039069462846D9
:10119000FFF7EAF92815CDE90004694628460294CC
:1011A000FFF7E2F905B030BD003801400010024001
:1011B0000008014090F83E30202B0ED159B152B1B9
:1011C00090F83C30012B08D0012380F83C300023FC
:1011D000036300F02DBA0120704702207047000021
:1011E0000A49884210D10A480A4B418802785A5469
:1011F000491C89B24180642901D300214180012228
:1012000003490248FFF7D6BF7047000014010020D1
:10121000C6000020FB0200202DE9F843044690F8A8
:101220003D001F4616460D4620284CD1C5B1BEB123
:1012300094F83C00012846D0012084F83C004FF08F
:101240000008C4F84080212084F83D00FFF788FAA8
:10125000A6848146E684A068B0F5805F03D004E0F0
:101260000120BDE8F883206928B12E465FF0000513
:1012700084F83C800EE00026FAE78021204600F04A
:10128000F2F9A0B9AEB116F8010B21684860E08C04
:10129000401EE084E08C4B464FF00002009700288F
:1012A000EBD14FF04001204600F0DDF930B10320D2
:1012B000D7E735F8020BC0F30800E6E7202084F8F2
:1012C0003D000020CDE70220CBE77047FEE700009D
:1012D000054808B5816941F004018161806900F029
:1012E0000400009008BD0000001002401CB500245E
:1012F0000E4800940C490194C0E900144FF6FF71A8
:10130000C0E902418461FFF797FD08B1FFF75CF87F
:101310000094694605480194FFF750FD002801D06C
:10132000FFF752F81CBD000000100040CC00002068
:101330000C4810B50A4901604FF4E13141600021C9
:1013400081600C22C160C0E904128161C161FFF7B4
:10135000C7FE002803D0BDE81040FFF735B810BD28
:101360000038014014010020FEE7FEE77047704797
:10137000FFF7FCB930B58FB028216846FEF78BFF28
:1013800014210AA8FEF787FF02250120049000958A
:101390001020059000244FF46010CDE90840079517
:1013A0006846FFF767FB08B172B6FEE70F20CDE98C
:1013B0000A054FF48060CDE90C4002210AA80E9482
:1013C000FFF76CFA002801D072B6FEE70FB030BD0F
:1013D00070470000054800680169C90705D06FF033
:1013E000010101610248006800477047CC000020FD
:1013F000B0000020F0B502681C4B1D4D1D4E1E4F65
:101400001E4C4FF0804C984209D0A04207D0604556
:1014100005D0A84203D0B04201D0B84204D122F096
:10142000700E4A6842EA0E02984209D0A04207D0E4
:10143000604505D0A84203D0B04201D0B84203D1E4
:1014400022F44075CA682A434D6922F080022A437B
:1014500002608A68C2620A688262984201D0A04231
:1014600001D10969016301214161F0BD002C0140F6
:101470000004004000080040000C0040003401401F
:1014800010B5406A0021C185C184FFF722FD10BD5F
:101490000168CA6822F49072CA6001684A6922F041
:1014A00001024A61016B012904D10168CA6822F076
:1014B0001002CA60202180F83E10002101637047AD
:1014C00008B590F83E10222901D0022008BD82689C
:1014D0004FF480539A4201D1016921B1816A9A4245
:1014E0001BD04AB10AE00268816A5268C2F308025E
:1014F0000A80816A891C08E0026972B10268526838
:1015000002F07F020A70816A491C8162C18D491E06
:101510000904090CC18503D019E002685268F1E79B
:101520000168CA6822F02002CA600168CA6822F411
:101530008072CA6001684A6922F001024A61202172
:1015400080F83E10016B012903D0FFF749FE00200F
:1015500008BD002101630168CA6822F01002CA6058
:1015600001680A68D20602D50A6849680091818D2F
:10157000FFF7AEFCEBE7000070B5044600680169B8
:10158000E26821F44051114301612169A0680843D8
:10159000616908432168CA6841F20C639A430243B7
:1015A000CA6020684169A26921F440711143416118
:1015B0001E492068884202D1FFF716FA01E0FFF7C2
:1015C00003FA00EBC00101EB0012606864218000A7
:1015D000B2FBF0F3B3FBF1F36FF018067343B2FB09
:1015E000F0F5B2FBF0F605EB8305322303EB0515AE
:1015F000B5FBF1F5B6FBF1F605F0F00505EB0615C8
:10160000B2FBF0F6B2FBF0F0B0FBF1F06FF01802B5
:10161000504306EB800003EB0010B0FBF1F02168B3
:1016200000F00F002844886070BD000000380140C1
:1016300081628285C28500210164222280F83E20D9
:1016400080F83C100168CA6842F48072CA60016880
:101650004A6942F001024A610068C16841F0200114
:10166000C160002070472DE9F041984617460E46AC
:101670000446069D1DE0681C1BD02DB1FFF770F8D5
:10168000A0EB0800A84214D92068C16821F4D071E9
:10169000C1602068416921F001014161202084F886
:1016A0003D0084F83E00002084F83C000320BDE8A3
:1016B000F0812068006836EA000004D00020B842BB
:1016C000D9D00020F3E70120F9E700000148FFF737
:1016D00001BC0000140100200D4810B54188A9B1DB
:1016E000821E1388994210D1002313808180438089
:1016F000084A1846A2F1640303E0145C1C54401C21
:1017000080B28142F9D8012010BD1180002010BDA7
:10171000C6000020FB020020FEE70907090E002892
:1017200004DB00F1E02080F80014704700F00F00A7
:1017300000F1E02080F8141D7047000070B5064DE0
:1017400000242878012802D00624204670BD28698C
:10175000804700202870F8E71000002070B50C4684
:101760000988002505292FD1417840F2CF760A0259
:1017700081781143C278491C1302027989B21A4355
:10178000531EB34220D200232380012300F8013BE3
:101790002688761C2680560703D003EBD203DEB2E0
:1017A00001E0C2F3C70600F8016B23885B1C2380AD
:1017B000002300F0FDF918B100F068FB054604E0D5
:1017C00020883044208000E00325284670BD70B595
:1017D0000C460988002505292FD1417840F2CF76A3
:1017E0000A0281781143C278491C1302027989B236
:1017F0001A43531EB34220D200232380022300F851
:10180000013B23885B1C2380530704D0012303EB97
:10181000D203DEB201E0C2F3C70600F8016B2388F1
:101820005B1C238000F00EFA18B100F02FFB054678
:1018300004E020883044208000E00325284670BD65
:1018400070B50C4609880026052925D1417805790F
:101850000A0281781143491C6A1E89B27C2A1BD86E
:1018600000222280032200F8012B22880023521C30
:1018700022806A0000F8012B2288521C22802A460E
:1018800000F020FA18B100F001FB064605E02088C0
:1018900000EB4500208000E00326304670BD70B5A7
:1018A0000C4609880026052927D1417805790A02C6
:1018B00081781143C278491C45EA02256A1E89B223
:1018C0007C2A1AD200222280042200F8012B2288CE
:1018D000521C22806A0000F8012B2288521C2280B0
:1018E0002A4600F01BFA18B100F0D0FA064605E0CF
:1018F000208800EB4500208000E00326304670BDC4
:101900002DE9F0410446088800270D460A2842D3F5
:10191000607826790102A078227A0843401C1FFAD9
:1019200080F8E07846EA00266079731E0102A0790B
:101930000843401C81B2E0797C2B42EA0022607AA5
:1019400028D83AB3792A25D8B0EB420F22D1012307
:1019500004F10A0000F0B6F998B900212980172196
:1019600021702988601C491C2980710000F8011B26
:1019700029880023491C29803246414600F0A2F9FB
:1019800018B100F083FA074605E0288800EB46000E
:10199000288000E003273846BDE8F08170B5064C8A
:1019A0000D4606492288401CFEF730FC2088401C6A
:1019B0002880002070BD0000B400002058010020E5
:1019C00038B50988002405290BD141780A028178AD
:1019D0001143491C027989B21AB9C278FF2A03D08F
:1019E00012B10324204638BD00228DF80120C078B2
:1019F000FF280CD08DF8002001231A46684600F01D
:101A0000D7F80028EED000F041FA0446EAE70120BA
:101A10008DF80000F0E710B509880024052902D0F0
:101A20000324204610BD417801230A028178C01C9E
:101A30001143491C89B21A4600F044F90028F0D03D
:101A400000F024FA0446ECE72DE9F0410D46098840
:101A50000024052926D9417843790A028178114367
:101A6000491C8EB2C178027942EA0122510704D0A2
:101A7000012101EBD201C9B201E0C2F3C701571E37
:101A8000B7F5F66F0ED299420CD101233146801D75
:101A900000F08EF818B100F0F9F9044603E00520D3
:101AA000288000E003242046BDE8F08170B50D4693
:101AB0000988002406291DD341780A028178114340
:101AC000C278491C1302027989B21A434379561E1F
:101AD000772E0FD85606360E9E420BD10123801D5D
:101AE00000F0F0F818B100F0D1F9044603E0052049
:101AF000288000E00324204670BD000038B52B4C40
:101B0000207808B1062038BD684600F0CDF90128DC
:101B10004AD19DF80000E8B3012802D0022843D141
:101B20000FE0224AA369921D911CC81F984788BBE9
:101B300060782179884200D060BB022000F0CAF9A9
:101B400032E0A0680121194B0278A270E1700021F7
:101B500013F1200313F8315065B1954207D103EB1F
:101B6000C1014A681149891D9047E07002E0491C93
:101B70001029EFDB607868B1E07880B10021E18066
:101B8000A17841F08002A1680A70E288521C92B2EA
:101B9000E28000E008E08854E088401CE080D4E95E
:101BA0000213E28820799847002038BD10000020F9
:101BB000F0B5541EE51704EB55740125491E05EBDD
:101BC000E40489B200278D18A4B20A2D01D901209E
:101BD000F0BD1B4E012B11D02CE000BF10F8013BD3
:101BE000082505E003F001077754491C89B25B081A
:101BF000521E92B202D36D1EEDB2F3D2641EA4B295
:101C0000ECD21AE0002508230CE000BF16F801C052
:101C10000CFA05FC491C4CEA070C6D1C0CF0FF0784
:101C200089B2EDB2521E92B202D35B1EDBB2EDD28C
:101C300000F8017B641EA4B2E4D20020F0BD0000D5
:101C4000B6000020F0B5491E1FFA81FE511ECB17C9
:101C500001EB5371012404EBE1018BB200270EEB81
:101C6000020517490A2D1AD90120F0BD00260825C2
:101C70000DE000BF11F80EC0BCF1000F05D004FA52
:101C800006FC4CEA070C0CF0FF07761CF6B2521E5D
:101C900092B202D36D1EEDB2ECD200F8017B5B1E56
:101CA0009BB2E3D200200A5C3AB100220A54401CE5
:101CB00080B20A28F7D30020F0BD0122F6E7000029
:101CC0005402002010B5491E89B28C18642C01D929
:101CD000012010BD104C012B09D018E030F8023B58
:101CE0005BBA24F81130491C521E89B292B2002A04
:101CF000F4D10EE034F811301B0A00F8013B14F85F
:101D00001130491C521E00F8013B89B292B2002AE0
:101D1000F0D1002010BD00008C010020491E10B53C
:101D20008BB29C1810490A2C0FD9012010BD00BF9E
:101D300031F81340240A00F8014B11F813405B1CE2
:101D4000521E00F8014B9BB292B2002AF0D1002043
:101D500031F81020521C21F81020401C80B20A28B3
:101D6000F6D3002010BD00007801002010B500243B
:101D700000F0C4F800B90324204610BD70B5FFF789
:101D8000F5FF0E4C05004FF0010601D0267012E061
:101D900000F098F870B10A4820610A4860610A486A
:101DA000A0610A48E0600020E061FF20207102206D
:101DB0006071EBE70325284670BD0000100000208D
:101DC000291E00082B1E0008D11D00080B1E00084C
:101DD0002DE9FC410E4607461546052401A9684633
:101DE00000F080F870B1009881780A02C178114340
:101DF00008D1C01D3060BDF804000024C01F288039
:101E0000FF2038702046BDE8FC81C81FD11D10B5E9
:101E1000521C130A0371002489B2427100F070F859
:101E200000B90524204610BD704700F03BB8000003
:101E3000FEF7A4FCFFF79EFAFFF74AFAFFF756FAFF
:101E4000FFF776FA002203212520FEF7F5FC252076
:101E5000FEF7E4FC01220B490B48FFF7ABF94FF406
:101E6000FB70FFF78BFFFFF769FC00BFFFF746FE33
:101E7000FFF732FC10B1012000F02CF80120FEF732
:101E800061FBF3E7C600002014010020002804D005
:101E9000012803D0072803D0042070470220704790
:101EA00006207047704700000549024600204B7825
:101EB000002B04D008781070002048700120704773
:101EC000C000002002490020487001207047000037
:101ED000C0000020024901224A7008701046704775
:101EE000C0000020034A0260034880880880012067
:101EF0007047000097020020C600002001207047B4
:101F000010B50C460A4601460648FEF77FF906481A
:101F1000224632230480BDE8104002490348FFF7FF
:101F20007BB900005E020020C200002014010020E6
:101F30000000000000000000010203040607080979
:101F40000000000001020304681F000800000020D8
:101F5000CC0000006C01000834200008CC000020F8
:101F6000F4080000880100080100000010000000D3
:101F7000000000000024F400020000000000000047
:101F80000000000000000000000000000000000051
:101F90000000000000000000110000009D19000872
:101FA000040000009F18000803000000411800080A
:101FB00010000000AD1A000806000000171A000803
:101FC0001700000001190008010000005D1700085B
:101FD00005000000C11900080F000000491A0008A0
:101FE00002000000CF170008000000000000000001
:101FF00000000000000000000000000000000000E1
:1020000000000000000000000000000000000000D0
:1020100000000000000000000000000000000101BE
:1020200001010000000001010000000000000000AC
:0420300000000000AC
:0400000508000131BD
:00000001FF
