:020000040800F2
:10000000D80600202902000883170008C91100083B
:10001000811700081F0400083118000800000000C4
:10002000000000000000000000000000871700082A
:100030002104000800000000851700088917000847
:10004000430200084302000843020008430200087C
:10005000430200084302000843020008430200086C
:10006000430200084302000843020008430200085C
:10007000430200084302000843020008430200084C
:10008000430200084302000843020008430200083C
:10009000430200084302000843020008430200082C
:1000A000430200084302000843020008430200081C
:1000B000430200084302000843020008430200080C
:1000C00043020008430200084302000843020008FC
:1000D00043020008430200084302000843020008EC
:1000E00043020008430200084302000843020008DC
:1000F00043020008430200084302000843020008CC
:1001000043020008430200084302000843020008BB
:1001100043020008430200084302000843020008AB
:10012000430200084302000843020008430200089B
:100130004302000800000000000000004302000825
:10014000430200084302000843020008430200087B
:10015000430200084302000843020008430200086B
:10016000430200084302000843020008430200085B
:1001700043020008430200080000000000000000E5
:10018000430200084302000800F002F800F03CF8C7
:100190000AA090E8000C82448344AAF10107DA45E2
:1001A00001D100F031F8AFF2090EBAE80F0013F0F8
:1001B000010F18BFFB1A43F001031847001E00008F
:1001C000201E0000103A24BF78C878C1FAD8520720
:1001D00024BF30C830C144BF04680C6070470000C1
:1001E0000023002400250026103A28BF78C1FBD840
:1001F000520728BF30C148BF0B6070471FB501F0E0
:10020000C7FE1FBD10B510BD00F0CFF81146FFF7B7
:10021000F5FF01F01FFB00F0EDF803B4FFF7F2FF6C
:1002200003BC00F0F5F80000094880470948004782
:10023000FEE7FEE7FEE7FEE7FEE7FEE7FEE7FEE796
:10024000FEE7FEE704480549054A064B70470000F3
:100250002118000889010008D8000020D8060020D5
:10026000D8020020D802002053EA020C00F0698076
:100270002DE9F04B4FF00006002B1FBFB3FA83F5BA
:1002800003FA05F424FA05F65E4012BF1643B2FAEB
:1002900082F502FA05F4C5F120051EBF22FA05FC1D
:1002A00044EA0C04203556EA044C4FEA144418BFC3
:1002B000641C4FF000084FF00009904271EB030CF2
:1002C00039D3002919BFB1FA81F701FA07F6B0FA5C
:1002D00080F700FA07F6C7F120071EBF20FA07FCD7
:1002E00046EA0C062037B6FBF4FCA7EB0507103FE7
:1002F00007F01F0BCBF120060CFA0BFB2CFA06F6CD
:1003000044BFB3460026202FA4BF5E464FF0000B2B
:100310005BEA060C08BF4FF0010B19EB0B09ABFBB6
:10032000027C48EB0608C01B06FB02CC0BFB03CC8F
:1003300071EB0C01C1E70B46024641464846BDE859
:10034000F08B13B54FF000004FF00001AFF30080C9
:10035000BDE81C4070474FF0000200B513469446BC
:100360009646203922BFA0E80C50A0E80C50B1F10D
:100370002001BFF4F7AF090728BFA0E80C5048BF21
:100380000CC05DF804EB890028BF40F8042B08BFBF
:10039000704748BF20F8022B11F0804F18BF00F8BB
:1003A000012B7047704770477047754600F02CF876
:1003B000AE4605006946534620F00700854618B052
:1003C00020B5FFF73FFFBDE820404FF000064FF09B
:1003D00000074FF000084FF0000B21F00701AC467A
:1003E000ACE8C009ACE8C009ACE8C009ACE8C00999
:1003F0008D46704710B50446AFF300802046BDE837
:100400001040FFF70ABF000000487047740000204A
:1004100001491820ABBEFEE7260002007047FEE748
:10042000704772B6FEE7000070B5044600F006F9AA
:100430000546601C02D004480078044400F0FEF831
:10044000401BA042FAD370BD000000202DE9F84FF8
:10045000DFF8BCA10022012503264FF00F090AF1A5
:10046000040BAAF1040E00BF0B6805FA02F4234046
:10047000A34270D10F7907F00307012F01D0022F9B
:1004800016D187684FEA420806FA08FC27EA0C07EB
:10049000D1F80CC00CFA08FC4CEA070CC0F808C0F4
:1004A0004768A7430C79C4F3001494403C4344606C
:1004B0000C79E443A4070AD0C4684FEA420C06FA58
:1004C0000CF7BC438F6807FA0CF72743C7600C7919
:1004D00004F00304022C12D1D40800EB840CDCF8E5
:1004E00020405707FF0E09FA07F824EA0804D1F85C
:1004F000108008FA07F848EA0408CCF8208004685D
:100500004FEA420C06FA0CF7BC430F7907F00307D9
:1005100007FA0CF7274307604C6814F4403F70D08B
:100520003C4C276847F480472760246822F0030783
:1005300004F480440094384C07EB040CDCF80848C1
:1005400097074FEA177809FA08F7BC43334FB842C8
:1005500002D1002724E054E0314FB84201D10127F5
:100560001EE0304FB84201D1022719E02E4FB842A9
:1005700001D1032714E02D4FB84201D104270FE029
:100580002B4FB84201D105270AE02A4FB84201D1CA
:10059000062705E0284FB84201D1072700E00827C9
:1005A00007FA08F72743CCF80878DAF800405746EE
:1005B000D1F804C09C435FEACC2C00D51C433C60BE
:1005C000DBF800405F46D1F804C09C435FEA8C2C06
:1005D00000D51C433C60DEF800407746D1F804C0EB
:1005E0009C435FEA8C3C00D51C433C60084F083FAD
:1005F0003C68D1F804C09C435FEACC3C00D51C4366
:100600003C60521C102AFFF42FAFBDE8F88F0000A9
:10061000083C0140443802400030014000000240E4
:100620000004024000080240000C0240001002409A
:100630000014024000180240001C0240014880687B
:10064000704700000000002070B5040025D094F829
:100650003D00002520B984F83C50204600F04CFABB
:10066000242084F83D002068016821F00101016028
:100670002068016841F4004101602068016821F4AC
:100680000041016000F094FB4D4A6168914201D83D
:100690004C4900E04C49884201D2012070BD4B49D1
:1006A0002368B0FBF1F15E6826F03F060E435E6002
:1006B0006368934206D94FF4967359434FF47A73A3
:1006C000B1FBF3F12368491C1E6A26F03F06314353
:1006D00019626168914210D84900401EB0FBF1F2E6
:1006E000521CC2F30B02042A01D2042022E0B0FB08
:1006F000F1F0401CC0F30B001CE0A268F2B301EB68
:10070000C10303EB0116431EB3FBF6F35B1C43F47A
:1007100080431B0549D092B301EBC10202EB0111EA
:10072000401EB0FBF1F0401CC0F30B0040F48040D1
:1007300040F400402168CA694CF6FF739A431043A5
:10074000C861D4E9071001432068026822F0C002A2
:1007500011430160D4E9030101432068826848F233
:10076000FF339A4311438160D4E9050108432168AE
:10077000CA6822F0FF021043C86001E00EE016E0F4
:100780002068016841F0010101602564202084F89F
:100790003D00256384F83E50002070BD01EB41060A
:1007A000431EB3FBF6F35B1CB3E70120C2E701EB8A
:1007B0004101401EB0FBF1F0401CC0F30B00B7E755
:1007C000A086010080841E0000093D0040420F0009
:1007D0002DE9FF4F83B09A46DDE911979346044611
:1007E000DDF84080FFF72AFF054694F83D002028F9
:1007F00070D11923012271492046009500F0F4FDC3
:100800000028F5D194F83C00012863D0012084F839
:100810003C0020680168C90703D1016841F001016B
:1008200001602068016821F400610160222084F8E1
:100830003D00402084F83E0000262664C4F8248051
:10084000A4F82A90608D20855D48E062CDE90075AE
:1008500053465A462046049900F0CEFC00287CD12D
:10086000208DD0B1012821D00228206824D04169F0
:1008700080690090208D032869D801282BD0514928
:1008800002283B464FF00002009559D0884620468A
:1008900000F0AAFD002860D13CE020684169816930
:1008A0000091016841F40071016077E020680168FF
:1008B00021F480610160F0E7016821F4806101604A
:1008C0002068016841F40061016020684169806925
:1008D000009063E06FE02A463946204600F003FEB0
:1008E00098BB20680069616A08704EE02068016862
:1008F00041F40071016020680069616A0870606AF3
:10090000401C6062218D491E2185618D491E6185D3
:10091000216838E02068016821F480610160206866
:100920000069616A0870606A401C6062208D401E28
:100930002085608D401E60853B4600224146009523
:10094000204600F051FD00B9D0E706E0FFE72A4657
:100950003946204600F0C7FD18B1012007B0BDE8B8
:10096000F08F20680069616A0870606A401C6062EC
:10097000218D491E2185618D491E618521684A6945
:10098000D24352070AD409690170606A401C606250
:10099000208D401E2085608D401E6085208D0028A2
:1009A0007FF468AF202084F83D0084F83E6084F82E
:1009B0003C600020D2E70220D0E7000002001000D7
:1009C0000000FFFF040001002DE9FF4F83B09A46AD
:1009D000DDE9119793460446DDF84080FFF72EFECF
:1009E000054694F83D0020287FD119230122404973
:1009F0002046009500F0F8FC002876D194F83C00E1
:100A0000012872D0012084F83C0020680168C907E1
:100A100003D1016841F0010101602068016821F4FF
:100A200000610160212084F83D00402084F83E00F0
:100A300000262664C4F82480A4F82A90608D2085BE
:100A40002C48E062CDE9007553465A462046049989
:100A500000F050FC70B930E02A463946204600F0DC
:100A600075FD58B1206C042804D12068016841F458
:100A700000710160012007B0BDE8F08F606A216855
:100A800000780861606A401C6062218D491E89B24D
:100A90002185628D521E628522685369DB435B07A4
:100AA0000BD469B100781061606A401C6062208DCF
:100AB000401E2085608D401E6085208D0028CBD192
:100AC0002A463946204600F069FC0028CAD154F86D
:100AD0003D0B016841F400710160202004F81E09FB
:100AE000E67766770020C6E7FFE70220C3E700004D
:100AF000020010000000FFFF10B586B0044614216C
:100B00006846FFF728FC14492068884221D1134821
:100B10000021026842F002020260006800F0020058
:100B200005904FF4406000901220CDE901010320B0
:100B300003900420049069460948FFF787FC0748A2
:100B40001030016841F480010160006800F4800009
:100B5000059006B010BD000000580040303802403B
:100B600000040240024881680278114481607047A5
:100B7000000000200B4810B5016841F400710160CD
:100B8000016841F480610160016841F48071016095
:100B9000032000F061F80F2000F006F800F024F8C0
:100BA000002010BD003C024070B50D4D04464FF4CE
:100BB0007A712878B1FBF0F00A490968B1FBF0F0CE
:100BC00000F0EEFA48B9102C07D200222146501E40
:100BD00000F022F800206C6070BD012070BD0000A4
:100BE000000000200C0000200A4808B5016841F40C
:100BF00080410160006800F4804000900548001FBB
:100C0000016841F080510160006800F08050009060
:100C100008BD000044380240F0B40E4B1B680C467F
:100C2000C3F30223C3F10705042D00D90425191DC0
:100C3000072901D2002300E0DB1E012606FA05F198
:100C4000491E214099409E40761E16403143F0BC1B
:100C500000F0EFBD0CED00E0064900F00702086867
:100C60004FF6FF03184040EA0220034A1043086091
:100C7000704700000CED00E00000FA052DE9F04798
:100C80000E46050065D0DFF81481D8F80000F7B2F1
:100C900000F00700B04207D288F80070D8F80000D2
:100CA00000F00700B04254D128683D4C810712D5AE
:100CB000400703D5206840F4E05020602878000702
:100CC00003D5206840F4604020602068A96820F0C7
:100CD000F000084320602878C0072DD030496868AC
:100CE0000839012812D0022813D0032811D009682E
:100CF000890700292DDA216821F0030101432160D1
:100D0000FFF79CFC814641F2883A0EE009688903AE
:100D1000EFE709688901ECE7FFF790FCA0EB090118
:100D2000514502D90320BDE8F0872068696800F0CA
:100D30000C00B0EB810FEFD1D8F80010404601F065
:100D40000701B14207D90770006800F00700B04200
:100D500001D00120E7E72878400705D52068E96839
:100D600020F4E050084320602878000706D520686A
:100D7000296920F4604040EAC100206000F028F8B2
:100D80002168084AC1F30311515CC8400649086054
:100D900006480068FFF708FF0020C4E7003C024057
:100DA00008380240A41F00080C00002004000020A6
:100DB0000448054900680968044AC1F38221515C6E
:100DC000C84070470C00002008380240B41F0008DB
:100DD000154810B5006810F00C02144813D01449DF
:100DE000042A0FD0082A0ED10F4C241F2268236832
:100DF00002F03F025B0207D52068C0F38810A0FB19
:100E0000010106E0084610BD2168C1F38811A1FB6D
:100E100000010023FFF728FA2168C1F30141491CB2
:100E20004900B0FBF1F010BD083802400024F40086
:100E300040787D012DE9F84F04006ED02078DFF86E
:100E40004C93C007A9F104054AD009F104000168D8
:100E5000C1F38101012908D00068C0F38100022894
:100E60000AD1D9F80000400206D52868800337D59A
:100E700060680028E1D033E06068B0F5803F10D0B2
:100E8000B0F5A02F286810D020F4803028602868A2
:100E900020F4802028606068A8B1FFF7CFFB0646E9
:100EA0000DE0286840F48030F4E740F480202860AA
:100EB000F7E700BFFFF7C2FB801B642873D82868E0
:100EC0008003F7D50CE0FFF7B9FB064605E000BF4D
:100ED000FFF7B4FB801B6428F0D828688003F7D4A0
:100EE0002078DFF8AC8280074FF0000A3ED5A74893
:100EF000001D016811F00C0F08D00068C0F38100DC
:100F000002280BD1D9F80000400207D428688007D6
:100F100016D5E068012800D112E033E1E068B8B1ED
:100F20000120C8F80000FFF789FB064605E000BF76
:100F3000FFF784FB801B0228C0D828688007F7D5FC
:100F40002868216920F0F80040EAC10028600DE01F
:100F5000C8F800A0FFF772FB064604E0FFF76EFB3F
:100F6000801B02281FD828688007F7D42078000744
:100F700022D5864F87486169703771B101210160C0
:100F8000FFF75CFB064604E0FFF758FB801B0228D6
:100F900009D838688007F7D50EE0C0F800A0FFF741
:100FA0004DFB064605E082E0FFF748FB801B022868
:100FB0007DD838688007F7D42078400768D5DFF8F7
:100FC000CCB100270BF13C0BDBF80000C0000BD4C8
:100FD000DBF8001041F08051CBF80010DBF8000086
:100FE000012700F0805000906B4E3068C00510D48F
:100FF000306840F480703060FFF720FB009005E01F
:10100000FFF71CFB0099401A022850D83068C00531
:10101000F6D55E4EA0686C3601280FD005283068E2
:1010200010D020F001003060306820F00400306003
:10103000A068B8B1FFF702FB00900FE0306840F005
:101040000100F4E740F004003060F7E7FFF7F6FA3C
:101050000099411A41F28830814266D83068800791
:10106000F4D50EE0FFF7EAFA009007E0FFF7E6FAA2
:101070000099411A41F28830814256D83068800781
:10108000F4D42FB1DBF8001021F08051CBF8001020
:10109000A069C8B33D49091D0968C1F3810102294E
:1010A0004AD00228504607D0C8F8600000E03CE073
:1010B000FFF7C4FA04463BE04746C8F86000FFF774
:1010C000BDFA064605E000BFFFF7B8FA801B02280C
:1010D0002BD828688001F7D4D4E907010843A16A16
:1010E0002E4A490802EB0141626A41EA8211084333
:1010F00094F82C1040EA0161C9F80010012038660C
:10110000FFF79CFA044606E03EE000BFFFF796FAC0
:10111000001B022809D828688001F7D534E000BFF9
:10112000FFF78CFA001B022802D90320BDE8F88FD4
:1011300028688001F4D427E00128F7D0D9F800000E
:10114000E26900F4800191421CD1226A00F03F0163
:10115000914217D147F6C071626A0140B1EB821F1C
:1011600010D1A26A4FF0FF3300F4403103EB52027A
:10117000B1EB024F06D194F82C1000F07060B0EB88
:10118000016F01D00120D1E70020CFE704380240F1
:1011900000004742800E4742007000400000FFFF01
:1011A00010B5401EB0F1807F01D3012010BD4FF07B
:1011B000E02460610F21601700F03BFB0020A0617C
:1011C00007202061002010BDFEE701684A69D24374
:1011D00052050FD46FF480624A61002140F8301F3D
:1011E000202242738173026942F00402026101739A
:1011F00001207047002070472DE9F84F0446006831
:1012000089460B9D01689846174641F4806101604C
:101210002068016841F48071016000954FF0011B66
:101220000022594620460A9B00F0DEF84FF4007A6F
:1012300040B120680068C00501D5C4F840A0032073
:10124000BDE8F88F216809F0FE0008612B462849A7
:1012500020460A9A00F0FCF8F0BB206841698069DA
:1012600000902A4620460A9900F070F940B1206C9F
:1012700004283AD12068016841F40071016034E02B
:10128000FEB2B8F1010F09D02168380A08612A4678
:1012900020460A9900F05AF90028E8D12068066132
:1012A0002A4620460A9900F051F90028DFD120682B
:1012B000016841F480710160009500225946204682
:1012C0000A9B00F091F80028B3D1216809F0FF00D3
:1012D00040F00100086100E007E02B460449204689
:1012E0000A9A00F0B5F80028AAD00120A8E700006B
:1012F000020001002DE9F843044600680D46DDE9CF
:10130000089701689846164641F4807101604B4683
:1013100000224FF001112046009700F065F848B117
:1013200020680068C00502D54FF4007020640320D7
:10133000BDE8F883216805F0FE0008613B464A4697
:101340001549204600F084F888B920684169806911
:1013500000903A464946204600F0F8F848B1206C23
:10136000042804D12068016841F400710160012063
:10137000DEE7F5B2B8F1010F09D02168300A086143
:101380003A464946204600F0E1F80028E7D12068B7
:1013900005610020CCE700000200010070B5164690
:1013A0000D4604460DE02046FFF70FFF08B101206F
:1013B00070BD681C05D0FFF741F9801BA84207D813
:1013C00035B120684069C0434007ECD4002070BDAF
:1013D000002044F8300F20216173A073216941F08F
:1013E000200121612073E2E72DE9F0471E46904677
:1013F0000D460446C1F30747DDF8209008E0701C55
:1014000006D0FFF71BF9A0EB0900B0420FD876B168
:101410002068012F18D0806925EA00000004000C24
:1014200014D000214145EAD00020BDE8F08700201B
:1014300044F8300F20216173A073216941F020012D
:10144000216120730120F0E74069E5E70121E9E728
:101450002DE9F0479A4691460E46044600254FF086
:101460002008C1F3074725E020684069C0434005D4
:1014700014D42068016841F40071016021686FF4A0
:1014800080604861256384F83D8084F83E50206C7C
:1014900040F00400206484F83C501FE0B9F1FF3FA5
:1014A00008D0FFF7CBF8A0EB0A0149450CD8B9F1F9
:1014B000000F09D02068012F13D0806926EA0000B0
:1014C0000004000C0BD0CFE744F8305F84F80D80A7
:1014D000A573206940F02000206125730120BDE83C
:1014E000F0874069EAE72DE9F041002590460E4675
:1014F0000446202717E04069C043C0060CD454F8C6
:10150000301B6FF01000486144F810596777A577D9
:10151000206A2062257717E0FFF790F8A0EB08001B
:10152000B04208D83EB120684169C9434906E2D4B7
:101530000020BDE8F08144F8305F6773A57320692F
:1015400040F02000206125730120F2E770B51646B7
:101550000D4604460DE02046FFF737FE08B1012096
:1015600070BD681C05D0FFF769F8801BA84207D83A
:1015700035B120684069C0430006ECD4002070BD3E
:10158000002044F8300F20216173A073216941F0DD
:10159000200121612073E2E71CB50446062269465A
:1015A0003B2000F059F808B101201CBD9DF8000057
:1015B0009DF8011041EA0020E0809DF802009DF8AE
:1015C000031041EA002020819DF804009DF80510D9
:1015D00041EA0020608100201CBD1CB504460622A3
:1015E0006946432000F038F808B101201CBD9DF881
:1015F00000009DF8011041EA002020809DF80200C3
:101600009DF8031041EA002060809DF804009DF8D9
:10161000051041EA0020A08000201CBD10B500216B
:101620006B2000F057F8C820FEF7FEFE03216B2068
:1016300000F050F80021192000F04CF803211A2086
:1016400000F048F808211C2000F044F81821BDE8FB
:1016500010401B2000F03EB80EB5FF238DE80E00B1
:1016600002460123D1210548FFF7B2F800284FF0C8
:10167000010002D1FEF7D8FE00200EBD20000020A0
:1016800038B50446022269464120FFF7E5FF08B15C
:10169000012038BDBDF8000040BA00B200F022FBC6
:1016A0009FED081B53EC112B00F0C4F99FED071BB5
:1016B00053EC112B00F016F900F0E2F8E060002086
:1016C00038BD00000000000000407540A4703D0AD5
:1016D000D743424003B583B0FF23012204A98DE81C
:1016E0000E0013460246D0210548FFF76DF9002889
:1016F0004FF0010002D1FEF797FE002005B000BDBB
:10170000200000200D4808B5016841F0800101600B
:10171000016801F080010091016841F0020101605F
:10172000016801F002010091016841F001010160CE
:10173000006800F00100009008BD00003038024051
:101740000D4810B50B4901600C49416000214FF470
:1017500080428160C0E9031241618161C16101621F
:10176000FEF772FF002803D0BDE81040FEF759BE17
:1017700010BD00000058004020000020A08601009D
:10178000FEE7FEE770477047FFF7ECB930B593B05E
:1017900030216846FEF7DFFD14210CA8FEF7DBFDC3
:1017A0001D480025016841F080510160006800F08B
:1017B000805011901948016841F48041016000682F
:1017C000022400F480401190012003901020049026
:1017D000009406940820CDE90750A820CDE909041B
:1017E00004200B906846FFF725FB08B172B6FEE7B0
:1017F0000CA90F2081E831004FF4A0500F904FF456
:101800008050109005210CA8FFF738FA002801D06D
:1018100072B6FEE713B030BD4038024000700040A1
:101820000248016841F470010160704788ED00E0F2
:10183000FEE70907090E002804DB00F1E02080F82C
:101840000014704700F00F0000F1E02080F8141D34
:1018500070470000FFF78EF9FFF798FFFFF752FF80
:10186000FFF76EFFFFF7DAFE0448FFF7B6FE034806
:10187000FFF792FE0148FFF703FFF5E71000002095
:1018800021F00042A2F16052B2F5801F01F0004346
:1018900028BFD2F17F6C0BD95FEA001C43EAC20279
:1018A00042EB507018BF704728BF20F0010070470E
:1018B000B2F5801FBCBF184670474FEA410C1CF5BB
:1018C000001F02D2084600F068BB70B500F021FA94
:1018D00000000089FFF7F6BF4FF00040A0F5800040
:1018E0007047000010B591EA030F48BF83F0004332
:1018F00000F16C82841A71EB030C05D2121943EBD0
:101900000C03001B61EB0C01DFF824E14FEA1154DA
:10191000A4EB135C1EEA430F18BF9EEA445F73D02A
:1019200023EA0E03DCF1200E21EA045143F4801374
:1019300032D322FA0CFE10EB0E0023FA0CFE41EB20
:101940000E01CCF1200E03FA0EFE10EB0E0051F149
:101950000001B1F5801FCCF1200E32D201EB045111
:1019600012FA0EF2BDE8104058BF7047401C38BF55
:101970005FEA420218BF7047002814BF20F0010040
:1019800041F100014FEA410313F5001F38BF7047D2
:10199000A1F1C04100F00BBA012A43EB0302ACF104
:1019A000200CDCF11F0E32BF4FF0000E23FA0CF3B7
:1019B00010EB030041EB0451B4EB115FD0D0A1EB6D
:1019C000045101F5801149085FEA300001EB045130
:1019D0000ED350F1000038BF12FA0EFE08D1BDE858
:1019E0001040C9E7401C38BF5FEA4202CAD1C3E7D2
:1019F000BDE810404FEA410313F5001F38BF7047A0
:101A0000A1F1C04100F0D3B99EEA445F08D011EAC9
:101A10005E0FBDE8104004BF01F000410020704798
:101A2000BDE8104070B500F074F900BF64FBBE3E25
:101A30000000E0FF2DE9C04130B4DFF8A0C23CEA6D
:101A4000111418BF3CEA131400F0EC8081EA03057E
:101A50001CEA111444EAD57418BF1CEA131500F0EF
:101A6000C780A4EB05044FF0004545EAC12145EAD3
:101A7000C32341EA505143EA525304F17F7499421F
:101A800004F500344FEAC0204FEAC22208BF90425A
:101A900000F09C804FEA13650FF24016765D4FEA26
:101AA000134506FB05F7C7F1807706FB07F74FEAFA
:101AB000D737A7FB03687642C8F58038A7FB06CE68
:101AC00038BFA8F1010807FB08E64FF0000EA6FB9F
:101AD000028CE6FB03CEDCF1000CCEF1004E38BFE9
:101AE000AEF1010EA6FB0C584FF000074FF00005B9
:101AF000E6FB0E87A1FB08C6A0FB07CE16EB0E0681
:101B000045F10005E1FB076515F1E04E7EBFA4F548
:101B100080345FEA46066D4116F1800745F1000505
:101B20004FEA17274FEA066647EA0567A6F1DE4641
:101B3000B6F1805F4FEA15251FD9384624F0010C15
:101B400005EBC471BCF1FE6F01EB0C1102D8F0BCC7
:101B5000BDE8008124425CBF01F5801E9EEAC47F7F
:101B600002D4F0BCBDE80081244238D4F0BCA1F11D
:101B7000C041BDE8004100F01AB94FEAD22242EA62
:101B800043524FEAD323A7FB02864FEAD02040EA14
:101B9000415007FB03661EEA0E0F4FEAD12105FBF9
:101BA000026658BFA6EB0056B6EB00564FEA520E3F
:101BB0004EEAC37E18EB0E0E56EB530EBDD518EB56
:101BC00002085E417F1C55F10005B6E74FF4801511
:101BD0004FF000074FF000064FF00008ADE7F0BCF3
:101BE0004FF0000001F1C04101F00041BDE800816B
:101BF00011EA0C1F0CEA131500D00CE013EA0C1FBD
:101C000000F025804FF00000F0BC81EA030101F0F4
:101C10000041BDE80081F0BCBDE8004181EA03015C
:101C200000F0C5B8F0BCBDE8004170B500F071F837
:101C3000097EFC3E00F007B881EA03014FF0000086
:101C400001F00041704781EA030100F0B0B8F0BC38
:101C5000BDE800414FF0000021497047FFFDFBF94E
:101C6000F7F5F4F2F0EEEDEBE9E8E6E4E3E1E0DECF
:101C7000DDDBDAD8D7D5D4D3D1D0CFCDCCCBCAC841
:101C8000C7C6C5C4C2C1C0BFBEBDBCBBBAB9B8B768
:101C9000B6B5B4B3B2B1B0AFAEADACABAAA9A8A85B
:101CA000A7A6A5A4A3A3A2A1A09F9F9E9D9C9C9B29
:101CB0009A999998979796959594939392919190D4
:101CC0008F8F8E8E8D8C8C8B8B8A89898888878765
:101CD0008685858484838382828181800000FF07DA
:101CE0000000F87F10F0004248BF4042B0FA80F395
:101CF00010FA03F10AD0C3F11D0303F580634FEA24
:101D0000415002EB035202EBD12170474FF000002B
:101D100070470EF1020E2EF0030E5EF8046B364291
:101D200005D4012A43EB030515F5001F12D801283D
:101D300041EB010C1CF5001F0CD80ED14FEAD17CF1
:101D400015F5001F0CEB4C0C0CF1020C08BF4CEB12
:101D5000D37C04E04FF0080C01E04FEAD37C0CEB9D
:101D60004C0526FA05F606F00706B6F1040C06D275
:101D70000EEB860CBDE870404CF0010C6047DFE8CC
:101D80000CF0090B02024FF000414FF00000A1F5EA
:101D9000002170BD19461046012851EB010418BFFF
:101DA000D4F5001484BF002001F0004170BD080884
:101DB000A0F500114FEA31017047000010B591EA1B
:101DC000030F48BF83F000433FF594AD841A71EBD5
:101DD000030C07D212198CF0004C43EB0C03001BD0
:101DE00061EB0C01DFF8A4E14FEA1154A4EB135CA2
:101DF0001EEA430F18BF9EEA445F00F0B08023EA5A
:101E00006E03524221EA0451C3EB6E0338BF5B1EDE
:101E1000DCF1200E25D322FA0CFE10EB0E0043FA63
:101E20000CFE41EB0E01CCF1200E03FA0EFE10EB7E
:101E30000E0051F10001CCF1200E29D412FA0EF25D
:101E400001EB0451BDE8104058BF7047401C1CBF57
:101E5000B2F1004F704700280CBF491C20F0010070
:101E6000704712EB020E43EB030218BF4FF0010E56
:101E70004EEA4202ACF1200CDCF11E0E54D943FABA
:101E80000CFE10EB0E0051F1FF31CCF11E0ED5D53A
:101E90000EF1010E12FA0EFE404141EB010101EB81
:101EA000445C5FEA5C5C10D910EBDE7001EB04511E
:101EB00038BFBEF1004FBDE8104018BF7047002882
:101EC0000CBF491C20F00100704730D24FEAD42CDF
:101ED00011F5001124F400641BD0B1FA81F20B3A21
:101EE000A41AA41ED2F12003914030FA03F319433F
:101EF000904001EBCC71002C01EB0451BDE8104087
:101F0000A8BF704701F1C0414FF0000001F000414F
:101F10007047B0FA80F310FA03F100D110BDE41A53
:101F2000173C4805C90AE4E701EB045110BD49100C
:101F300001EB0451BDE810404FEA300002E04FF0E1
:101F4000000170474A0008BF0042F8D0B2F5001FF8
:101F500028BF704701F000414FF0000070479EEA33
:101F6000445F07D011EA5E0FBDE8104004BF0021B6
:101F700000207047BDE8104070B5FFF7CAFE00BFF3
:101F800040DFF63E83F00041104670470000E0FF5E
:101F90004FF04070E1EE100A7047FF2141EAD05047
:101FA000C0057047000000000000000001020304AB
:101FB000060708090000000001020304DC1F0008F6
:101FC0000000002010000000C4010008EC1F000801
:101FD00010000020C8060000E00100080100000019
:0C1FE00010000000000000000024F400CD
:040000050800018965
:00000001FF
